{
	"cramer_shoup.sol": {
		"CramerShoup": {
			"abi": [
				{
					"anonymous": false,
					"inputs": [
						{
							"indexed": false,
							"internalType": "uint8",
							"name": "b",
							"type": "uint8"
						}
					],
					"name": "CommitmentVerified",
					"type": "event"
				},
				{
					"inputs": [
						{
							"components": [
								{
									"internalType": "bytes32",
									"name": "y",
									"type": "bytes32"
								},
								{
									"components": [
										{
											"internalType": "bytes32[2]",
											"name": "u1",
											"type": "bytes32[2]"
										},
										{
											"internalType": "bytes32[2]",
											"name": "u2",
											"type": "bytes32[2]"
										},
										{
											"internalType": "bytes32[2]",
											"name": "e",
											"type": "bytes32[2]"
										},
										{
											"internalType": "bytes32[2]",
											"name": "v",
											"type": "bytes32[2]"
										}
									],
									"internalType": "struct ChiperText",
									"name": "ct0",
									"type": "tuple"
								},
								{
									"components": [
										{
											"internalType": "bytes32[2]",
											"name": "u1",
											"type": "bytes32[2]"
										},
										{
											"internalType": "bytes32[2]",
											"name": "u2",
											"type": "bytes32[2]"
										},
										{
											"internalType": "bytes32[2]",
											"name": "e",
											"type": "bytes32[2]"
										},
										{
											"internalType": "bytes32[2]",
											"name": "v",
											"type": "bytes32[2]"
										}
									],
									"internalType": "struct ChiperText",
									"name": "ct1",
									"type": "tuple"
								}
							],
							"internalType": "struct Commitment",
							"name": "_com",
							"type": "tuple"
						}
					],
					"name": "commit",
					"outputs": [],
					"stateMutability": "nonpayable",
					"type": "function"
				},
				{
					"inputs": [
						{
							"internalType": "bytes32[2]",
							"name": "a",
							"type": "bytes32[2]"
						},
						{
							"internalType": "bytes32[2]",
							"name": "b",
							"type": "bytes32[2]"
						}
					],
					"name": "ecAdd",
					"outputs": [
						{
							"internalType": "bytes32[2]",
							"name": "result",
							"type": "bytes32[2]"
						}
					],
					"stateMutability": "nonpayable",
					"type": "function"
				},
				{
					"inputs": [
						{
							"internalType": "bytes32[2]",
							"name": "g",
							"type": "bytes32[2]"
						},
						{
							"internalType": "bytes32",
							"name": "scalar",
							"type": "bytes32"
						}
					],
					"name": "ecMul",
					"outputs": [
						{
							"internalType": "bytes32[2]",
							"name": "result",
							"type": "bytes32[2]"
						}
					],
					"stateMutability": "nonpayable",
					"type": "function"
				},
				{
					"inputs": [
						{
							"internalType": "bytes32",
							"name": "x",
							"type": "bytes32"
						},
						{
							"internalType": "uint256",
							"name": "pad",
							"type": "uint256"
						}
					],
					"name": "encode_x",
					"outputs": [
						{
							"internalType": "bytes32[2]",
							"name": "",
							"type": "bytes32[2]"
						}
					],
					"stateMutability": "view",
					"type": "function"
				},
				{
					"inputs": [
						{
							"internalType": "bytes32[2]",
							"name": "message",
							"type": "bytes32[2]"
						},
						{
							"internalType": "bytes32",
							"name": "k",
							"type": "bytes32"
						}
					],
					"name": "encrypt",
					"outputs": [
						{
							"components": [
								{
									"internalType": "bytes32[2]",
									"name": "u1",
									"type": "bytes32[2]"
								},
								{
									"internalType": "bytes32[2]",
									"name": "u2",
									"type": "bytes32[2]"
								},
								{
									"internalType": "bytes32[2]",
									"name": "e",
									"type": "bytes32[2]"
								},
								{
									"internalType": "bytes32[2]",
									"name": "v",
									"type": "bytes32[2]"
								}
							],
							"internalType": "struct ChiperText",
							"name": "",
							"type": "tuple"
						}
					],
					"stateMutability": "nonpayable",
					"type": "function"
				},
				{
					"inputs": [
						{
							"internalType": "bytes32[2]",
							"name": "message",
							"type": "bytes32[2]"
						},
						{
							"internalType": "bytes32",
							"name": "k",
							"type": "bytes32"
						},
						{
							"internalType": "uint8",
							"name": "b",
							"type": "uint8"
						}
					],
					"name": "encryptAndCompare",
					"outputs": [
						{
							"internalType": "bool",
							"name": "",
							"type": "bool"
						}
					],
					"stateMutability": "nonpayable",
					"type": "function"
				},
				{
					"inputs": [
						{
							"internalType": "uint256",
							"name": "base",
							"type": "uint256"
						},
						{
							"internalType": "uint256",
							"name": "e",
							"type": "uint256"
						},
						{
							"internalType": "uint256",
							"name": "m",
							"type": "uint256"
						}
					],
					"name": "expmod",
					"outputs": [
						{
							"internalType": "uint256",
							"name": "o",
							"type": "uint256"
						}
					],
					"stateMutability": "view",
					"type": "function"
				},
				{
					"inputs": [
						{
							"internalType": "uint8",
							"name": "b",
							"type": "uint8"
						},
						{
							"internalType": "bytes32",
							"name": "x",
							"type": "bytes32"
						}
					],
					"name": "f",
					"outputs": [
						{
							"internalType": "bytes32",
							"name": "result",
							"type": "bytes32"
						}
					],
					"stateMutability": "pure",
					"type": "function"
				},
				{
					"inputs": [
						{
							"internalType": "uint256",
							"name": "a",
							"type": "uint256"
						}
					],
					"name": "legendre_p",
					"outputs": [
						{
							"internalType": "bool",
							"name": "",
							"type": "bool"
						}
					],
					"stateMutability": "view",
					"type": "function"
				},
				{
					"inputs": [
						{
							"internalType": "uint8",
							"name": "b",
							"type": "uint8"
						},
						{
							"internalType": "bytes32",
							"name": "x",
							"type": "bytes32"
						},
						{
							"internalType": "bytes32",
							"name": "k",
							"type": "bytes32"
						},
						{
							"internalType": "uint256",
							"name": "pad",
							"type": "uint256"
						}
					],
					"name": "reveal",
					"outputs": [
						{
							"internalType": "bool",
							"name": "",
							"type": "bool"
						}
					],
					"stateMutability": "nonpayable",
					"type": "function"
				},
				{
					"inputs": [
						{
							"components": [
								{
									"internalType": "bytes32[2]",
									"name": "g1",
									"type": "bytes32[2]"
								},
								{
									"internalType": "bytes32[2]",
									"name": "g2",
									"type": "bytes32[2]"
								},
								{
									"internalType": "bytes32[2]",
									"name": "c",
									"type": "bytes32[2]"
								},
								{
									"internalType": "bytes32[2]",
									"name": "d",
									"type": "bytes32[2]"
								},
								{
									"internalType": "bytes32[2]",
									"name": "h",
									"type": "bytes32[2]"
								}
							],
							"internalType": "struct PublicKey",
							"name": "_pk",
							"type": "tuple"
						}
					],
					"name": "setPublicKey",
					"outputs": [],
					"stateMutability": "nonpayable",
					"type": "function"
				},
				{
					"inputs": [
						{
							"internalType": "uint256",
							"name": "a",
							"type": "uint256"
						}
					],
					"name": "sqrt_p",
					"outputs": [
						{
							"internalType": "uint256",
							"name": "",
							"type": "uint256"
						}
					],
					"stateMutability": "view",
					"type": "function"
				}
			],
			"devdoc": {
				"kind": "dev",
				"methods": {},
				"version": 1
			},
			"evm": {
				"assembly": "    /* \"cramer_shoup.sol\":314:5480  contract CramerShoup {... */\n  mstore(0x40, 0x80)\n  callvalue\n  dup1\n  iszero\n  tag_1\n  jumpi\n  0x00\n  dup1\n  revert\ntag_1:\n  pop\n  dataSize(sub_0)\n  dup1\n  dataOffset(sub_0)\n  0x00\n  codecopy\n  0x00\n  return\nstop\n\nsub_0: assembly {\n        /* \"cramer_shoup.sol\":314:5480  contract CramerShoup {... */\n      mstore(0x40, 0x80)\n      callvalue\n      dup1\n      iszero\n      tag_1\n      jumpi\n      0x00\n      dup1\n      revert\n    tag_1:\n      pop\n      jumpi(tag_2, lt(calldatasize, 0x04))\n      shr(0xe0, calldataload(0x00))\n      dup1\n      0x7befbde8\n      gt\n      tag_15\n      jumpi\n      dup1\n      0x7befbde8\n      eq\n      tag_9\n      jumpi\n      dup1\n      0x7c75074a\n      eq\n      tag_10\n      jumpi\n      dup1\n      0x8b7b8cf2\n      eq\n      tag_11\n      jumpi\n      dup1\n      0x9b0421dd\n      eq\n      tag_12\n      jumpi\n      dup1\n      0xb83f457a\n      eq\n      tag_13\n      jumpi\n      dup1\n      0xdaf4b08c\n      eq\n      tag_14\n      jumpi\n      jump(tag_2)\n    tag_15:\n      dup1\n      0x082084b1\n      eq\n      tag_3\n      jumpi\n      dup1\n      0x0868a3f2\n      eq\n      tag_4\n      jumpi\n      dup1\n      0x15e54a66\n      eq\n      tag_5\n      jumpi\n      dup1\n      0x53495d3d\n      eq\n      tag_6\n      jumpi\n      dup1\n      0x5714a505\n      eq\n      tag_7\n      jumpi\n      dup1\n      0x783ce458\n      eq\n      tag_8\n      jumpi\n    tag_2:\n      0x00\n      dup1\n      revert\n        /* \"cramer_shoup.sol\":761:1262  function encrypt(... */\n    tag_3:\n      tag_16\n      0x04\n      dup1\n      calldatasize\n      sub\n      dup2\n      add\n      swap1\n      tag_17\n      swap2\n      swap1\n      tag_18\n      jump\t// in\n    tag_17:\n      tag_19\n      jump\t// in\n    tag_16:\n      mload(0x40)\n      tag_20\n      swap2\n      swap1\n      tag_21\n      jump\t// in\n    tag_20:\n      mload(0x40)\n      dup1\n      swap2\n      sub\n      swap1\n      return\n        /* \"cramer_shoup.sol\":4148:4398  function f(uint8 b, bytes32 x) public pure returns (bytes32 result) {... */\n    tag_4:\n      tag_22\n      0x04\n      dup1\n      calldatasize\n      sub\n      dup2\n      add\n      swap1\n      tag_23\n      swap2\n      swap1\n      tag_24\n      jump\t// in\n    tag_23:\n      tag_25\n      jump\t// in\n    tag_22:\n      mload(0x40)\n      tag_26\n      swap2\n      swap1\n      tag_27\n      jump\t// in\n    tag_26:\n      mload(0x40)\n      dup1\n      swap2\n      sub\n      swap1\n      return\n        /* \"cramer_shoup.sol\":1906:2399  function reveal(... */\n    tag_5:\n      tag_28\n      0x04\n      dup1\n      calldatasize\n      sub\n      dup2\n      add\n      swap1\n      tag_29\n      swap2\n      swap1\n      tag_30\n      jump\t// in\n    tag_29:\n      tag_31\n      jump\t// in\n    tag_28:\n      mload(0x40)\n      tag_32\n      swap2\n      swap1\n      tag_33\n      jump\t// in\n    tag_32:\n      mload(0x40)\n      dup1\n      swap2\n      sub\n      swap1\n      return\n        /* \"cramer_shoup.sol\":1268:1900  function encryptAndCompare(... */\n    tag_6:\n      tag_34\n      0x04\n      dup1\n      calldatasize\n      sub\n      dup2\n      add\n      swap1\n      tag_35\n      swap2\n      swap1\n      tag_36\n      jump\t// in\n    tag_35:\n      tag_37\n      jump\t// in\n    tag_34:\n      mload(0x40)\n      tag_38\n      swap2\n      swap1\n      tag_33\n      jump\t// in\n    tag_38:\n      mload(0x40)\n      dup1\n      swap2\n      sub\n      swap1\n      return\n        /* \"cramer_shoup.sol\":3004:3408  function ecMul(bytes32[2] memory g, bytes32 scalar) public returns (bytes32[2] memory result) {... */\n    tag_7:\n      tag_39\n      0x04\n      dup1\n      calldatasize\n      sub\n      dup2\n      add\n      swap1\n      tag_40\n      swap2\n      swap1\n      tag_18\n      jump\t// in\n    tag_40:\n      tag_41\n      jump\t// in\n    tag_39:\n      mload(0x40)\n      tag_42\n      swap2\n      swap1\n      tag_43\n      jump\t// in\n    tag_42:\n      mload(0x40)\n      dup1\n      swap2\n      sub\n      swap1\n      return\n        /* \"cramer_shoup.sol\":3414:4142  function expmod(uint256 base, uint256 e, uint256 m) public view returns (uint256 o) {... */\n    tag_8:\n      tag_44\n      0x04\n      dup1\n      calldatasize\n      sub\n      dup2\n      add\n      swap1\n      tag_45\n      swap2\n      swap1\n      tag_46\n      jump\t// in\n    tag_45:\n      tag_47\n      jump\t// in\n    tag_44:\n      mload(0x40)\n      tag_48\n      swap2\n      swap1\n      tag_49\n      jump\t// in\n    tag_48:\n      mload(0x40)\n      dup1\n      swap2\n      sub\n      swap1\n      return\n        /* \"cramer_shoup.sol\":4872:5477  function encode_x(bytes32 x, uint256 pad) public view returns (bytes32[2] memory){... */\n    tag_9:\n      tag_50\n      0x04\n      dup1\n      calldatasize\n      sub\n      dup2\n      add\n      swap1\n      tag_51\n      swap2\n      swap1\n      tag_52\n      jump\t// in\n    tag_51:\n      tag_53\n      jump\t// in\n    tag_50:\n      mload(0x40)\n      tag_54\n      swap2\n      swap1\n      tag_43\n      jump\t// in\n    tag_54:\n      mload(0x40)\n      dup1\n      swap2\n      sub\n      swap1\n      return\n        /* \"cramer_shoup.sol\":4408:4630  function legendre_p(uint256 a) public view returns (bool) {... */\n    tag_10:\n      tag_55\n      0x04\n      dup1\n      calldatasize\n      sub\n      dup2\n      add\n      swap1\n      tag_56\n      swap2\n      swap1\n      tag_57\n      jump\t// in\n    tag_56:\n      tag_58\n      jump\t// in\n    tag_55:\n      mload(0x40)\n      tag_59\n      swap2\n      swap1\n      tag_33\n      jump\t// in\n    tag_59:\n      mload(0x40)\n      dup1\n      swap2\n      sub\n      swap1\n      return\n        /* \"cramer_shoup.sol\":2405:2481  function setPublicKey(PublicKey memory _pk) public {... */\n    tag_11:\n      tag_60\n      0x04\n      dup1\n      calldatasize\n      sub\n      dup2\n      add\n      swap1\n      tag_61\n      swap2\n      swap1\n      tag_62\n      jump\t// in\n    tag_61:\n      tag_63\n      jump\t// in\n    tag_60:\n      stop\n        /* \"cramer_shoup.sol\":4636:4866  function sqrt_p(uint256 a) public view returns (uint256) {... */\n    tag_12:\n      tag_64\n      0x04\n      dup1\n      calldatasize\n      sub\n      dup2\n      add\n      swap1\n      tag_65\n      swap2\n      swap1\n      tag_57\n      jump\t// in\n    tag_65:\n      tag_66\n      jump\t// in\n    tag_64:\n      mload(0x40)\n      tag_67\n      swap2\n      swap1\n      tag_49\n      jump\t// in\n    tag_67:\n      mload(0x40)\n      dup1\n      swap2\n      sub\n      swap1\n      return\n        /* \"cramer_shoup.sol\":2567:2998  function ecAdd(bytes32[2] memory a, bytes32[2] memory b) public returns (bytes32[2] memory result) {... */\n    tag_13:\n      tag_68\n      0x04\n      dup1\n      calldatasize\n      sub\n      dup2\n      add\n      swap1\n      tag_69\n      swap2\n      swap1\n      tag_70\n      jump\t// in\n    tag_69:\n      tag_71\n      jump\t// in\n    tag_68:\n      mload(0x40)\n      tag_72\n      swap2\n      swap1\n      tag_43\n      jump\t// in\n    tag_72:\n      mload(0x40)\n      dup1\n      swap2\n      sub\n      swap1\n      return\n        /* \"cramer_shoup.sol\":2487:2561  function commit(Commitment memory _com) public {... */\n    tag_14:\n      tag_73\n      0x04\n      dup1\n      calldatasize\n      sub\n      dup2\n      add\n      swap1\n      tag_74\n      swap2\n      swap1\n      tag_75\n      jump\t// in\n    tag_74:\n      tag_76\n      jump\t// in\n    tag_73:\n      stop\n        /* \"cramer_shoup.sol\":761:1262  function encrypt(... */\n    tag_19:\n        /* \"cramer_shoup.sol\":854:871  ChiperText memory */\n      tag_77\n      tag_78\n      jump\t// in\n    tag_77:\n        /* \"cramer_shoup.sol\":883:907  ChiperText memory ct_mem */\n      tag_80\n      tag_78\n      jump\t// in\n    tag_80:\n        /* \"cramer_shoup.sol\":929:944  ecMul(pk.g1, k) */\n      tag_81\n        /* \"cramer_shoup.sol\":935:937  pk */\n      0x00\n        /* \"cramer_shoup.sol\":935:940  pk.g1 */\n      dup1\n      add\n        /* \"cramer_shoup.sol\":929:944  ecMul(pk.g1, k) */\n      0x02\n      dup1\n      0x20\n      mul\n      mload(0x40)\n      swap1\n      dup2\n      add\n      0x40\n      mstore\n      dup1\n      swap3\n      swap2\n      swap1\n      dup3\n      0x02\n      dup1\n      iszero\n      tag_82\n      jumpi\n      0x20\n      mul\n      dup3\n      add\n      swap2\n    tag_83:\n      dup2\n      sload\n      dup2\n      mstore\n      0x20\n      add\n      swap1\n      0x01\n      add\n      swap1\n      dup1\n      dup4\n      gt\n      tag_83\n      jumpi\n    tag_82:\n      pop\n      pop\n      pop\n      pop\n      pop\n        /* \"cramer_shoup.sol\":942:943  k */\n      dup5\n        /* \"cramer_shoup.sol\":929:934  ecMul */\n      tag_41\n        /* \"cramer_shoup.sol\":929:944  ecMul(pk.g1, k) */\n      jump\t// in\n    tag_81:\n        /* \"cramer_shoup.sol\":917:923  ct_mem */\n      dup2\n        /* \"cramer_shoup.sol\":917:926  ct_mem.u1 */\n      0x00\n      add\n        /* \"cramer_shoup.sol\":917:944  ct_mem.u1 = ecMul(pk.g1, k) */\n      dup2\n      swap1\n      mstore\n      pop\n        /* \"cramer_shoup.sol\":966:981  ecMul(pk.g2, k) */\n      tag_84\n        /* \"cramer_shoup.sol\":972:974  pk */\n      0x00\n        /* \"cramer_shoup.sol\":972:977  pk.g2 */\n      0x02\n      add\n        /* \"cramer_shoup.sol\":966:981  ecMul(pk.g2, k) */\n      0x02\n      dup1\n      0x20\n      mul\n      mload(0x40)\n      swap1\n      dup2\n      add\n      0x40\n      mstore\n      dup1\n      swap3\n      swap2\n      swap1\n      dup3\n      0x02\n      dup1\n      iszero\n      tag_85\n      jumpi\n      0x20\n      mul\n      dup3\n      add\n      swap2\n    tag_86:\n      dup2\n      sload\n      dup2\n      mstore\n      0x20\n      add\n      swap1\n      0x01\n      add\n      swap1\n      dup1\n      dup4\n      gt\n      tag_86\n      jumpi\n    tag_85:\n      pop\n      pop\n      pop\n      pop\n      pop\n        /* \"cramer_shoup.sol\":979:980  k */\n      dup5\n        /* \"cramer_shoup.sol\":966:971  ecMul */\n      tag_41\n        /* \"cramer_shoup.sol\":966:981  ecMul(pk.g2, k) */\n      jump\t// in\n    tag_84:\n        /* \"cramer_shoup.sol\":954:960  ct_mem */\n      dup2\n        /* \"cramer_shoup.sol\":954:963  ct_mem.u2 */\n      0x20\n      add\n        /* \"cramer_shoup.sol\":954:981  ct_mem.u2 = ecMul(pk.g2, k) */\n      dup2\n      swap1\n      mstore\n      pop\n        /* \"cramer_shoup.sol\":1002:1032  ecAdd(message, ecMul(pk.h, k)) */\n      tag_87\n        /* \"cramer_shoup.sol\":1008:1015  message */\n      dup5\n        /* \"cramer_shoup.sol\":1017:1031  ecMul(pk.h, k) */\n      tag_88\n        /* \"cramer_shoup.sol\":1023:1025  pk */\n      0x00\n        /* \"cramer_shoup.sol\":1023:1027  pk.h */\n      0x08\n      add\n        /* \"cramer_shoup.sol\":1017:1031  ecMul(pk.h, k) */\n      0x02\n      dup1\n      0x20\n      mul\n      mload(0x40)\n      swap1\n      dup2\n      add\n      0x40\n      mstore\n      dup1\n      swap3\n      swap2\n      swap1\n      dup3\n      0x02\n      dup1\n      iszero\n      tag_89\n      jumpi\n      0x20\n      mul\n      dup3\n      add\n      swap2\n    tag_90:\n      dup2\n      sload\n      dup2\n      mstore\n      0x20\n      add\n      swap1\n      0x01\n      add\n      swap1\n      dup1\n      dup4\n      gt\n      tag_90\n      jumpi\n    tag_89:\n      pop\n      pop\n      pop\n      pop\n      pop\n        /* \"cramer_shoup.sol\":1029:1030  k */\n      dup7\n        /* \"cramer_shoup.sol\":1017:1022  ecMul */\n      tag_41\n        /* \"cramer_shoup.sol\":1017:1031  ecMul(pk.h, k) */\n      jump\t// in\n    tag_88:\n        /* \"cramer_shoup.sol\":1002:1007  ecAdd */\n      tag_71\n        /* \"cramer_shoup.sol\":1002:1032  ecAdd(message, ecMul(pk.h, k)) */\n      jump\t// in\n    tag_87:\n        /* \"cramer_shoup.sol\":991:997  ct_mem */\n      dup2\n        /* \"cramer_shoup.sol\":991:999  ct_mem.e */\n      0x40\n      add\n        /* \"cramer_shoup.sol\":991:1032  ct_mem.e = ecAdd(message, ecMul(pk.h, k)) */\n      dup2\n      swap1\n      mstore\n      pop\n        /* \"cramer_shoup.sol\":1043:1052  bytes32 a */\n      0x00\n        /* \"cramer_shoup.sol\":1082:1088  ct_mem */\n      dup2\n        /* \"cramer_shoup.sol\":1082:1091  ct_mem.u1 */\n      0x00\n      add\n      mload\n        /* \"cramer_shoup.sol\":1092:1093  0 */\n      0x00\n        /* \"cramer_shoup.sol\":1082:1094  ct_mem.u1[0] */\n      0x02\n      dup2\n      lt\n      tag_91\n      jumpi\n      tag_92\n      tag_93\n      jump\t// in\n    tag_92:\n    tag_91:\n      0x20\n      mul\n      add\n      mload\n        /* \"cramer_shoup.sol\":1096:1102  ct_mem */\n      dup3\n        /* \"cramer_shoup.sol\":1096:1105  ct_mem.u1 */\n      0x00\n      add\n      mload\n        /* \"cramer_shoup.sol\":1106:1107  1 */\n      0x01\n        /* \"cramer_shoup.sol\":1096:1108  ct_mem.u1[1] */\n      0x02\n      dup2\n      lt\n      tag_94\n      jumpi\n      tag_95\n      tag_93\n      jump\t// in\n    tag_95:\n    tag_94:\n      0x20\n      mul\n      add\n      mload\n        /* \"cramer_shoup.sol\":1110:1116  ct_mem */\n      dup4\n        /* \"cramer_shoup.sol\":1110:1119  ct_mem.u2 */\n      0x20\n      add\n      mload\n        /* \"cramer_shoup.sol\":1120:1121  0 */\n      0x00\n        /* \"cramer_shoup.sol\":1110:1122  ct_mem.u2[0] */\n      0x02\n      dup2\n      lt\n      tag_96\n      jumpi\n      tag_97\n      tag_93\n      jump\t// in\n    tag_97:\n    tag_96:\n      0x20\n      mul\n      add\n      mload\n        /* \"cramer_shoup.sol\":1124:1130  ct_mem */\n      dup5\n        /* \"cramer_shoup.sol\":1124:1133  ct_mem.u2 */\n      0x20\n      add\n      mload\n        /* \"cramer_shoup.sol\":1134:1135  1 */\n      0x01\n        /* \"cramer_shoup.sol\":1124:1136  ct_mem.u2[1] */\n      0x02\n      dup2\n      lt\n      tag_98\n      jumpi\n      tag_99\n      tag_93\n      jump\t// in\n    tag_99:\n    tag_98:\n      0x20\n      mul\n      add\n      mload\n        /* \"cramer_shoup.sol\":1138:1144  ct_mem */\n      dup6\n        /* \"cramer_shoup.sol\":1138:1146  ct_mem.e */\n      0x40\n      add\n      mload\n        /* \"cramer_shoup.sol\":1147:1148  0 */\n      0x00\n        /* \"cramer_shoup.sol\":1138:1149  ct_mem.e[0] */\n      0x02\n      dup2\n      lt\n      tag_100\n      jumpi\n      tag_101\n      tag_93\n      jump\t// in\n    tag_101:\n    tag_100:\n      0x20\n      mul\n      add\n      mload\n        /* \"cramer_shoup.sol\":1151:1157  ct_mem */\n      dup7\n        /* \"cramer_shoup.sol\":1151:1159  ct_mem.e */\n      0x40\n      add\n      mload\n        /* \"cramer_shoup.sol\":1160:1161  1 */\n      0x01\n        /* \"cramer_shoup.sol\":1151:1162  ct_mem.e[1] */\n      0x02\n      dup2\n      lt\n      tag_102\n      jumpi\n      tag_103\n      tag_93\n      jump\t// in\n    tag_103:\n    tag_102:\n      0x20\n      mul\n      add\n      mload\n        /* \"cramer_shoup.sol\":1065:1163  abi.encodePacked(ct_mem.u1[0], ct_mem.u1[1], ct_mem.u2[0], ct_mem.u2[1], ct_mem.e[0], ct_mem.e[1]) */\n      add(0x20, mload(0x40))\n      tag_104\n      swap7\n      swap6\n      swap5\n      swap4\n      swap3\n      swap2\n      swap1\n      tag_105\n      jump\t// in\n    tag_104:\n      mload(0x40)\n      0x20\n      dup2\n      dup4\n      sub\n      sub\n      dup2\n      mstore\n      swap1\n      0x40\n      mstore\n        /* \"cramer_shoup.sol\":1055:1164  keccak256(abi.encodePacked(ct_mem.u1[0], ct_mem.u1[1], ct_mem.u2[0], ct_mem.u2[1], ct_mem.e[0], ct_mem.e[1])) */\n      dup1\n      mload\n      swap1\n      0x20\n      add\n      keccak256\n        /* \"cramer_shoup.sol\":1043:1164  bytes32 a = keccak256(abi.encodePacked(ct_mem.u1[0], ct_mem.u1[1], ct_mem.u2[0], ct_mem.u2[1], ct_mem.e[0], ct_mem.e[1])) */\n      swap1\n      pop\n        /* \"cramer_shoup.sol\":1185:1232  ecAdd(ecMul(pk.c, k), ecMul(ecMul(pk.d, k), a)) */\n      tag_106\n        /* \"cramer_shoup.sol\":1191:1205  ecMul(pk.c, k) */\n      tag_107\n        /* \"cramer_shoup.sol\":1197:1199  pk */\n      0x00\n        /* \"cramer_shoup.sol\":1197:1201  pk.c */\n      0x04\n      add\n        /* \"cramer_shoup.sol\":1191:1205  ecMul(pk.c, k) */\n      0x02\n      dup1\n      0x20\n      mul\n      mload(0x40)\n      swap1\n      dup2\n      add\n      0x40\n      mstore\n      dup1\n      swap3\n      swap2\n      swap1\n      dup3\n      0x02\n      dup1\n      iszero\n      tag_108\n      jumpi\n      0x20\n      mul\n      dup3\n      add\n      swap2\n    tag_109:\n      dup2\n      sload\n      dup2\n      mstore\n      0x20\n      add\n      swap1\n      0x01\n      add\n      swap1\n      dup1\n      dup4\n      gt\n      tag_109\n      jumpi\n    tag_108:\n      pop\n      pop\n      pop\n      pop\n      pop\n        /* \"cramer_shoup.sol\":1203:1204  k */\n      dup7\n        /* \"cramer_shoup.sol\":1191:1196  ecMul */\n      tag_41\n        /* \"cramer_shoup.sol\":1191:1205  ecMul(pk.c, k) */\n      jump\t// in\n    tag_107:\n        /* \"cramer_shoup.sol\":1207:1231  ecMul(ecMul(pk.d, k), a) */\n      tag_110\n        /* \"cramer_shoup.sol\":1213:1227  ecMul(pk.d, k) */\n      tag_111\n        /* \"cramer_shoup.sol\":1219:1221  pk */\n      0x00\n        /* \"cramer_shoup.sol\":1219:1223  pk.d */\n      0x06\n      add\n        /* \"cramer_shoup.sol\":1213:1227  ecMul(pk.d, k) */\n      0x02\n      dup1\n      0x20\n      mul\n      mload(0x40)\n      swap1\n      dup2\n      add\n      0x40\n      mstore\n      dup1\n      swap3\n      swap2\n      swap1\n      dup3\n      0x02\n      dup1\n      iszero\n      tag_112\n      jumpi\n      0x20\n      mul\n      dup3\n      add\n      swap2\n    tag_113:\n      dup2\n      sload\n      dup2\n      mstore\n      0x20\n      add\n      swap1\n      0x01\n      add\n      swap1\n      dup1\n      dup4\n      gt\n      tag_113\n      jumpi\n    tag_112:\n      pop\n      pop\n      pop\n      pop\n      pop\n        /* \"cramer_shoup.sol\":1225:1226  k */\n      dup9\n        /* \"cramer_shoup.sol\":1213:1218  ecMul */\n      tag_41\n        /* \"cramer_shoup.sol\":1213:1227  ecMul(pk.d, k) */\n      jump\t// in\n    tag_111:\n        /* \"cramer_shoup.sol\":1229:1230  a */\n      dup5\n        /* \"cramer_shoup.sol\":1207:1212  ecMul */\n      tag_41\n        /* \"cramer_shoup.sol\":1207:1231  ecMul(ecMul(pk.d, k), a) */\n      jump\t// in\n    tag_110:\n        /* \"cramer_shoup.sol\":1185:1190  ecAdd */\n      tag_71\n        /* \"cramer_shoup.sol\":1185:1232  ecAdd(ecMul(pk.c, k), ecMul(ecMul(pk.d, k), a)) */\n      jump\t// in\n    tag_106:\n        /* \"cramer_shoup.sol\":1174:1180  ct_mem */\n      dup3\n        /* \"cramer_shoup.sol\":1174:1182  ct_mem.v */\n      0x60\n      add\n        /* \"cramer_shoup.sol\":1174:1232  ct_mem.v = ecAdd(ecMul(pk.c, k), ecMul(ecMul(pk.d, k), a)) */\n      dup2\n      swap1\n      mstore\n      pop\n        /* \"cramer_shoup.sol\":1249:1255  ct_mem */\n      dup2\n        /* \"cramer_shoup.sol\":1242:1255  return ct_mem */\n      swap3\n      pop\n      pop\n      pop\n        /* \"cramer_shoup.sol\":761:1262  function encrypt(... */\n      swap3\n      swap2\n      pop\n      pop\n      jump\t// out\n        /* \"cramer_shoup.sol\":4148:4398  function f(uint8 b, bytes32 x) public pure returns (bytes32 result) {... */\n    tag_25:\n        /* \"cramer_shoup.sol\":4200:4214  bytes32 result */\n      0x00\n        /* \"cramer_shoup.sol\":4235:4236  0 */\n      dup1\n        /* \"cramer_shoup.sol\":4230:4231  b */\n      dup4\n        /* \"cramer_shoup.sol\":4230:4236  b == 0 */\n      0xff\n      and\n      eq\n        /* \"cramer_shoup.sol\":4226:4369  if (b == 0) {... */\n      iszero\n      tag_115\n      jumpi\n        /* \"cramer_shoup.sol\":4288:4289  x */\n      dup2\n        /* \"cramer_shoup.sol\":4271:4290  abi.encodePacked(x) */\n      add(0x20, mload(0x40))\n      tag_116\n      swap2\n      swap1\n      tag_117\n      jump\t// in\n    tag_116:\n      mload(0x40)\n      0x20\n      dup2\n      dup4\n      sub\n      sub\n      dup2\n      mstore\n      swap1\n      0x40\n      mstore\n        /* \"cramer_shoup.sol\":4261:4291  keccak256(abi.encodePacked(x)) */\n      dup1\n      mload\n      swap1\n      0x20\n      add\n      keccak256\n        /* \"cramer_shoup.sol\":4252:4291  result = keccak256(abi.encodePacked(x)) */\n      swap1\n      pop\n        /* \"cramer_shoup.sol\":4226:4369  if (b == 0) {... */\n      jump(tag_118)\n    tag_115:\n        /* \"cramer_shoup.sol\":4331:4358  sha256(abi.encodePacked(x)) */\n      0x02\n        /* \"cramer_shoup.sol\":4355:4356  x */\n      dup3\n        /* \"cramer_shoup.sol\":4338:4357  abi.encodePacked(x) */\n      add(0x20, mload(0x40))\n      tag_119\n      swap2\n      swap1\n      tag_117\n      jump\t// in\n    tag_119:\n      mload(0x40)\n      0x20\n      dup2\n      dup4\n      sub\n      sub\n      dup2\n      mstore\n      swap1\n      0x40\n      mstore\n        /* \"cramer_shoup.sol\":4331:4358  sha256(abi.encodePacked(x)) */\n      mload(0x40)\n      tag_120\n      swap2\n      swap1\n      tag_121\n      jump\t// in\n    tag_120:\n      0x20\n      mload(0x40)\n      dup1\n      dup4\n      sub\n      dup2\n      dup6\n      gas\n      staticcall\n      iszero\n      dup1\n      iszero\n      tag_123\n      jumpi\n      returndatasize\n      0x00\n      dup1\n      returndatacopy\n      revert(0x00, returndatasize)\n    tag_123:\n      pop\n      pop\n      pop\n      mload(0x40)\n      returndatasize\n      not(0x1f)\n      0x1f\n      dup3\n      add\n      and\n      dup3\n      add\n      dup1\n      0x40\n      mstore\n      pop\n      dup2\n      add\n      swap1\n      tag_124\n      swap2\n      swap1\n      tag_125\n      jump\t// in\n    tag_124:\n        /* \"cramer_shoup.sol\":4322:4358  result = sha256(abi.encodePacked(x)) */\n      swap1\n      pop\n        /* \"cramer_shoup.sol\":4226:4369  if (b == 0) {... */\n    tag_118:\n        /* \"cramer_shoup.sol\":4148:4398  function f(uint8 b, bytes32 x) public pure returns (bytes32 result) {... */\n      swap3\n      swap2\n      pop\n      pop\n      jump\t// out\n        /* \"cramer_shoup.sol\":1906:2399  function reveal(... */\n    tag_31:\n        /* \"cramer_shoup.sol\":2019:2023  bool */\n      0x00\n        /* \"cramer_shoup.sol\":2052:2059  f(b, x) */\n      tag_127\n        /* \"cramer_shoup.sol\":2054:2055  b */\n      dup6\n        /* \"cramer_shoup.sol\":2057:2058  x */\n      dup6\n        /* \"cramer_shoup.sol\":2052:2053  f */\n      tag_25\n        /* \"cramer_shoup.sol\":2052:2059  f(b, x) */\n      jump\t// in\n    tag_127:\n        /* \"cramer_shoup.sol\":2043:2046  com */\n      0x0a\n        /* \"cramer_shoup.sol\":2043:2048  com.y */\n      0x00\n      add\n      sload\n        /* \"cramer_shoup.sol\":2043:2059  com.y == f(b, x) */\n      eq\n        /* \"cramer_shoup.sol\":2035:2077  require(com.y == f(b, x), \"y not matched\") */\n      tag_128\n      jumpi\n      mload(0x40)\n      0x08c379a000000000000000000000000000000000000000000000000000000000\n      dup2\n      mstore\n      0x04\n      add\n      tag_129\n      swap1\n      tag_130\n      jump\t// in\n    tag_129:\n      mload(0x40)\n      dup1\n      swap2\n      sub\n      swap1\n      revert\n    tag_128:\n        /* \"cramer_shoup.sol\":2087:2114  bytes32[2] memory x_encoded */\n      0x00\n        /* \"cramer_shoup.sol\":2117:2133  encode_x(x, pad) */\n      tag_131\n        /* \"cramer_shoup.sol\":2126:2127  x */\n      dup6\n        /* \"cramer_shoup.sol\":2129:2132  pad */\n      dup5\n        /* \"cramer_shoup.sol\":2117:2125  encode_x */\n      tag_53\n        /* \"cramer_shoup.sol\":2117:2133  encode_x(x, pad) */\n      jump\t// in\n    tag_131:\n        /* \"cramer_shoup.sol\":2087:2133  bytes32[2] memory x_encoded = encode_x(x, pad) */\n      swap1\n      pop\n        /* \"cramer_shoup.sol\":2152:2153  0 */\n      0x00\n        /* \"cramer_shoup.sol\":2147:2148  b */\n      dup7\n        /* \"cramer_shoup.sol\":2147:2153  b == 0 */\n      0xff\n      and\n      eq\n        /* \"cramer_shoup.sol\":2143:2335  if (b == 0) {... */\n      iszero\n      tag_132\n      jumpi\n        /* \"cramer_shoup.sol\":2177:2211  encryptAndCompare(x_encoded, k, b) */\n      tag_133\n        /* \"cramer_shoup.sol\":2195:2204  x_encoded */\n      dup2\n        /* \"cramer_shoup.sol\":2206:2207  k */\n      dup6\n        /* \"cramer_shoup.sol\":2209:2210  b */\n      dup9\n        /* \"cramer_shoup.sol\":2177:2194  encryptAndCompare */\n      tag_37\n        /* \"cramer_shoup.sol\":2177:2211  encryptAndCompare(x_encoded, k, b) */\n      jump\t// in\n    tag_133:\n        /* \"cramer_shoup.sol\":2169:2231  require(encryptAndCompare(x_encoded, k, b), \"ct0 not matched\") */\n      tag_134\n      jumpi\n      mload(0x40)\n      0x08c379a000000000000000000000000000000000000000000000000000000000\n      dup2\n      mstore\n      0x04\n      add\n      tag_135\n      swap1\n      tag_136\n      jump\t// in\n    tag_135:\n      mload(0x40)\n      dup1\n      swap2\n      sub\n      swap1\n      revert\n    tag_134:\n        /* \"cramer_shoup.sol\":2143:2335  if (b == 0) {... */\n      jump(tag_137)\n    tag_132:\n        /* \"cramer_shoup.sol\":2270:2304  encryptAndCompare(x_encoded, k, b) */\n      tag_138\n        /* \"cramer_shoup.sol\":2288:2297  x_encoded */\n      dup2\n        /* \"cramer_shoup.sol\":2299:2300  k */\n      dup6\n        /* \"cramer_shoup.sol\":2302:2303  b */\n      dup9\n        /* \"cramer_shoup.sol\":2270:2287  encryptAndCompare */\n      tag_37\n        /* \"cramer_shoup.sol\":2270:2304  encryptAndCompare(x_encoded, k, b) */\n      jump\t// in\n    tag_138:\n        /* \"cramer_shoup.sol\":2262:2324  require(encryptAndCompare(x_encoded, k, b), \"ct1 not matched\") */\n      tag_139\n      jumpi\n      mload(0x40)\n      0x08c379a000000000000000000000000000000000000000000000000000000000\n      dup2\n      mstore\n      0x04\n      add\n      tag_140\n      swap1\n      tag_141\n      jump\t// in\n    tag_140:\n      mload(0x40)\n      dup1\n      swap2\n      sub\n      swap1\n      revert\n    tag_139:\n        /* \"cramer_shoup.sol\":2143:2335  if (b == 0) {... */\n    tag_137:\n        /* \"cramer_shoup.sol\":2350:2371  CommitmentVerified(b) */\n      0x1aa6d33caa56b94b21c25e563ff093a625f303e637e89a21303d14f0d9224fec\n        /* \"cramer_shoup.sol\":2369:2370  b */\n      dup7\n        /* \"cramer_shoup.sol\":2350:2371  CommitmentVerified(b) */\n      mload(0x40)\n      tag_142\n      swap2\n      swap1\n      tag_143\n      jump\t// in\n    tag_142:\n      mload(0x40)\n      dup1\n      swap2\n      sub\n      swap1\n      log1\n        /* \"cramer_shoup.sol\":2388:2392  true */\n      0x01\n        /* \"cramer_shoup.sol\":2381:2392  return true */\n      swap2\n      pop\n      pop\n        /* \"cramer_shoup.sol\":1906:2399  function reveal(... */\n      swap5\n      swap4\n      pop\n      pop\n      pop\n      pop\n      jump\t// out\n        /* \"cramer_shoup.sol\":1268:1900  function encryptAndCompare(... */\n    tag_37:\n        /* \"cramer_shoup.sol\":1388:1392  bool */\n      0x00\n        /* \"cramer_shoup.sol\":1404:1425  ChiperText storage ct */\n      dup1\n        /* \"cramer_shoup.sol\":1433:1434  0 */\n      0x00\n        /* \"cramer_shoup.sol\":1428:1429  b */\n      dup4\n        /* \"cramer_shoup.sol\":1428:1434  b == 0 */\n      0xff\n      and\n      eq\n        /* \"cramer_shoup.sol\":1428:1454  b == 0 ? com.ct0 : com.ct1 */\n      tag_145\n      jumpi\n        /* \"cramer_shoup.sol\":1447:1450  com */\n      0x0a\n        /* \"cramer_shoup.sol\":1447:1454  com.ct1 */\n      0x09\n      add\n        /* \"cramer_shoup.sol\":1428:1454  b == 0 ? com.ct0 : com.ct1 */\n      jump(tag_146)\n    tag_145:\n        /* \"cramer_shoup.sol\":1437:1440  com */\n      0x0a\n        /* \"cramer_shoup.sol\":1437:1444  com.ct0 */\n      0x01\n      add\n        /* \"cramer_shoup.sol\":1428:1454  b == 0 ? com.ct0 : com.ct1 */\n    tag_146:\n        /* \"cramer_shoup.sol\":1404:1454  ChiperText storage ct = b == 0 ? com.ct0 : com.ct1 */\n      swap1\n      pop\n        /* \"cramer_shoup.sol\":1464:1488  ChiperText memory ct_mem */\n      0x00\n        /* \"cramer_shoup.sol\":1491:1510  encrypt(message, k) */\n      tag_147\n        /* \"cramer_shoup.sol\":1499:1506  message */\n      dup7\n        /* \"cramer_shoup.sol\":1508:1509  k */\n      dup7\n        /* \"cramer_shoup.sol\":1491:1498  encrypt */\n      tag_19\n        /* \"cramer_shoup.sol\":1491:1510  encrypt(message, k) */\n      jump\t// in\n    tag_147:\n        /* \"cramer_shoup.sol\":1464:1510  ChiperText memory ct_mem = encrypt(message, k) */\n      swap1\n      pop\n        /* \"cramer_shoup.sol\":1545:1547  ct */\n      dup2\n        /* \"cramer_shoup.sol\":1545:1550  ct.u1 */\n      0x00\n      add\n        /* \"cramer_shoup.sol\":1551:1552  0 */\n      0x00\n        /* \"cramer_shoup.sol\":1545:1553  ct.u1[0] */\n      0x02\n      dup2\n      lt\n      tag_148\n      jumpi\n      tag_149\n      tag_93\n      jump\t// in\n    tag_149:\n    tag_148:\n      add\n      sload\n        /* \"cramer_shoup.sol\":1529:1535  ct_mem */\n      dup2\n        /* \"cramer_shoup.sol\":1529:1538  ct_mem.u1 */\n      0x00\n      add\n      mload\n        /* \"cramer_shoup.sol\":1539:1540  0 */\n      0x00\n        /* \"cramer_shoup.sol\":1529:1541  ct_mem.u1[0] */\n      0x02\n      dup2\n      lt\n      tag_151\n      jumpi\n      tag_152\n      tag_93\n      jump\t// in\n    tag_152:\n    tag_151:\n      0x20\n      mul\n      add\n      mload\n        /* \"cramer_shoup.sol\":1529:1553  ct_mem.u1[0] == ct.u1[0] */\n      eq\n        /* \"cramer_shoup.sol\":1528:1584  (ct_mem.u1[0] == ct.u1[0]) && (ct_mem.u1[1] == ct.u1[1]) */\n      dup1\n      iszero\n      tag_153\n      jumpi\n      pop\n        /* \"cramer_shoup.sol\":1575:1577  ct */\n      dup2\n        /* \"cramer_shoup.sol\":1575:1580  ct.u1 */\n      0x00\n      add\n        /* \"cramer_shoup.sol\":1581:1582  1 */\n      0x01\n        /* \"cramer_shoup.sol\":1575:1583  ct.u1[1] */\n      0x02\n      dup2\n      lt\n      tag_154\n      jumpi\n      tag_155\n      tag_93\n      jump\t// in\n    tag_155:\n    tag_154:\n      add\n      sload\n        /* \"cramer_shoup.sol\":1559:1565  ct_mem */\n      dup2\n        /* \"cramer_shoup.sol\":1559:1568  ct_mem.u1 */\n      0x00\n      add\n      mload\n        /* \"cramer_shoup.sol\":1569:1570  1 */\n      0x01\n        /* \"cramer_shoup.sol\":1559:1571  ct_mem.u1[1] */\n      0x02\n      dup2\n      lt\n      tag_157\n      jumpi\n      tag_158\n      tag_93\n      jump\t// in\n    tag_158:\n    tag_157:\n      0x20\n      mul\n      add\n      mload\n        /* \"cramer_shoup.sol\":1559:1583  ct_mem.u1[1] == ct.u1[1] */\n      eq\n        /* \"cramer_shoup.sol\":1528:1584  (ct_mem.u1[0] == ct.u1[0]) && (ct_mem.u1[1] == ct.u1[1]) */\n    tag_153:\n        /* \"cramer_shoup.sol\":1520:1603  require((ct_mem.u1[0] == ct.u1[0]) && (ct_mem.u1[1] == ct.u1[1]), \"u1 not matched\") */\n      tag_159\n      jumpi\n      mload(0x40)\n      0x08c379a000000000000000000000000000000000000000000000000000000000\n      dup2\n      mstore\n      0x04\n      add\n      tag_160\n      swap1\n      tag_161\n      jump\t// in\n    tag_160:\n      mload(0x40)\n      dup1\n      swap2\n      sub\n      swap1\n      revert\n    tag_159:\n        /* \"cramer_shoup.sol\":1638:1640  ct */\n      dup2\n        /* \"cramer_shoup.sol\":1638:1643  ct.u2 */\n      0x02\n      add\n        /* \"cramer_shoup.sol\":1644:1645  0 */\n      0x00\n        /* \"cramer_shoup.sol\":1638:1646  ct.u2[0] */\n      0x02\n      dup2\n      lt\n      tag_162\n      jumpi\n      tag_163\n      tag_93\n      jump\t// in\n    tag_163:\n    tag_162:\n      add\n      sload\n        /* \"cramer_shoup.sol\":1622:1628  ct_mem */\n      dup2\n        /* \"cramer_shoup.sol\":1622:1631  ct_mem.u2 */\n      0x20\n      add\n      mload\n        /* \"cramer_shoup.sol\":1632:1633  0 */\n      0x00\n        /* \"cramer_shoup.sol\":1622:1634  ct_mem.u2[0] */\n      0x02\n      dup2\n      lt\n      tag_165\n      jumpi\n      tag_166\n      tag_93\n      jump\t// in\n    tag_166:\n    tag_165:\n      0x20\n      mul\n      add\n      mload\n        /* \"cramer_shoup.sol\":1622:1646  ct_mem.u2[0] == ct.u2[0] */\n      eq\n        /* \"cramer_shoup.sol\":1621:1677  (ct_mem.u2[0] == ct.u2[0]) && (ct_mem.u2[1] == ct.u2[1]) */\n      dup1\n      iszero\n      tag_167\n      jumpi\n      pop\n        /* \"cramer_shoup.sol\":1668:1670  ct */\n      dup2\n        /* \"cramer_shoup.sol\":1668:1673  ct.u2 */\n      0x02\n      add\n        /* \"cramer_shoup.sol\":1674:1675  1 */\n      0x01\n        /* \"cramer_shoup.sol\":1668:1676  ct.u2[1] */\n      0x02\n      dup2\n      lt\n      tag_168\n      jumpi\n      tag_169\n      tag_93\n      jump\t// in\n    tag_169:\n    tag_168:\n      add\n      sload\n        /* \"cramer_shoup.sol\":1652:1658  ct_mem */\n      dup2\n        /* \"cramer_shoup.sol\":1652:1661  ct_mem.u2 */\n      0x20\n      add\n      mload\n        /* \"cramer_shoup.sol\":1662:1663  1 */\n      0x01\n        /* \"cramer_shoup.sol\":1652:1664  ct_mem.u2[1] */\n      0x02\n      dup2\n      lt\n      tag_171\n      jumpi\n      tag_172\n      tag_93\n      jump\t// in\n    tag_172:\n    tag_171:\n      0x20\n      mul\n      add\n      mload\n        /* \"cramer_shoup.sol\":1652:1676  ct_mem.u2[1] == ct.u2[1] */\n      eq\n        /* \"cramer_shoup.sol\":1621:1677  (ct_mem.u2[0] == ct.u2[0]) && (ct_mem.u2[1] == ct.u2[1]) */\n    tag_167:\n        /* \"cramer_shoup.sol\":1613:1696  require((ct_mem.u2[0] == ct.u2[0]) && (ct_mem.u2[1] == ct.u2[1]), \"u2 not matched\") */\n      tag_173\n      jumpi\n      mload(0x40)\n      0x08c379a000000000000000000000000000000000000000000000000000000000\n      dup2\n      mstore\n      0x04\n      add\n      tag_174\n      swap1\n      tag_175\n      jump\t// in\n    tag_174:\n      mload(0x40)\n      dup1\n      swap2\n      sub\n      swap1\n      revert\n    tag_173:\n        /* \"cramer_shoup.sol\":1730:1732  ct */\n      dup2\n        /* \"cramer_shoup.sol\":1730:1734  ct.e */\n      0x04\n      add\n        /* \"cramer_shoup.sol\":1735:1736  0 */\n      0x00\n        /* \"cramer_shoup.sol\":1730:1737  ct.e[0] */\n      0x02\n      dup2\n      lt\n      tag_176\n      jumpi\n      tag_177\n      tag_93\n      jump\t// in\n    tag_177:\n    tag_176:\n      add\n      sload\n        /* \"cramer_shoup.sol\":1715:1721  ct_mem */\n      dup2\n        /* \"cramer_shoup.sol\":1715:1723  ct_mem.e */\n      0x40\n      add\n      mload\n        /* \"cramer_shoup.sol\":1724:1725  0 */\n      0x00\n        /* \"cramer_shoup.sol\":1715:1726  ct_mem.e[0] */\n      0x02\n      dup2\n      lt\n      tag_179\n      jumpi\n      tag_180\n      tag_93\n      jump\t// in\n    tag_180:\n    tag_179:\n      0x20\n      mul\n      add\n      mload\n        /* \"cramer_shoup.sol\":1715:1737  ct_mem.e[0] == ct.e[0] */\n      eq\n        /* \"cramer_shoup.sol\":1714:1766  (ct_mem.e[0] == ct.e[0]) && (ct_mem.e[1] == ct.e[1]) */\n      dup1\n      iszero\n      tag_181\n      jumpi\n      pop\n        /* \"cramer_shoup.sol\":1758:1760  ct */\n      dup2\n        /* \"cramer_shoup.sol\":1758:1762  ct.e */\n      0x04\n      add\n        /* \"cramer_shoup.sol\":1763:1764  1 */\n      0x01\n        /* \"cramer_shoup.sol\":1758:1765  ct.e[1] */\n      0x02\n      dup2\n      lt\n      tag_182\n      jumpi\n      tag_183\n      tag_93\n      jump\t// in\n    tag_183:\n    tag_182:\n      add\n      sload\n        /* \"cramer_shoup.sol\":1743:1749  ct_mem */\n      dup2\n        /* \"cramer_shoup.sol\":1743:1751  ct_mem.e */\n      0x40\n      add\n      mload\n        /* \"cramer_shoup.sol\":1752:1753  1 */\n      0x01\n        /* \"cramer_shoup.sol\":1743:1754  ct_mem.e[1] */\n      0x02\n      dup2\n      lt\n      tag_185\n      jumpi\n      tag_186\n      tag_93\n      jump\t// in\n    tag_186:\n    tag_185:\n      0x20\n      mul\n      add\n      mload\n        /* \"cramer_shoup.sol\":1743:1765  ct_mem.e[1] == ct.e[1] */\n      eq\n        /* \"cramer_shoup.sol\":1714:1766  (ct_mem.e[0] == ct.e[0]) && (ct_mem.e[1] == ct.e[1]) */\n    tag_181:\n        /* \"cramer_shoup.sol\":1706:1784  require((ct_mem.e[0] == ct.e[0]) && (ct_mem.e[1] == ct.e[1]), \"e not matched\") */\n      tag_187\n      jumpi\n      mload(0x40)\n      0x08c379a000000000000000000000000000000000000000000000000000000000\n      dup2\n      mstore\n      0x04\n      add\n      tag_188\n      swap1\n      tag_189\n      jump\t// in\n    tag_188:\n      mload(0x40)\n      dup1\n      swap2\n      sub\n      swap1\n      revert\n    tag_187:\n        /* \"cramer_shoup.sol\":1818:1820  ct */\n      dup2\n        /* \"cramer_shoup.sol\":1818:1822  ct.v */\n      0x06\n      add\n        /* \"cramer_shoup.sol\":1823:1824  0 */\n      0x00\n        /* \"cramer_shoup.sol\":1818:1825  ct.v[0] */\n      0x02\n      dup2\n      lt\n      tag_190\n      jumpi\n      tag_191\n      tag_93\n      jump\t// in\n    tag_191:\n    tag_190:\n      add\n      sload\n        /* \"cramer_shoup.sol\":1803:1809  ct_mem */\n      dup2\n        /* \"cramer_shoup.sol\":1803:1811  ct_mem.v */\n      0x60\n      add\n      mload\n        /* \"cramer_shoup.sol\":1812:1813  0 */\n      0x00\n        /* \"cramer_shoup.sol\":1803:1814  ct_mem.v[0] */\n      0x02\n      dup2\n      lt\n      tag_193\n      jumpi\n      tag_194\n      tag_93\n      jump\t// in\n    tag_194:\n    tag_193:\n      0x20\n      mul\n      add\n      mload\n        /* \"cramer_shoup.sol\":1803:1825  ct_mem.v[0] == ct.v[0] */\n      eq\n        /* \"cramer_shoup.sol\":1802:1854  (ct_mem.v[0] == ct.v[0]) && (ct_mem.v[1] == ct.v[1]) */\n      dup1\n      iszero\n      tag_195\n      jumpi\n      pop\n        /* \"cramer_shoup.sol\":1846:1848  ct */\n      dup2\n        /* \"cramer_shoup.sol\":1846:1850  ct.v */\n      0x06\n      add\n        /* \"cramer_shoup.sol\":1851:1852  1 */\n      0x01\n        /* \"cramer_shoup.sol\":1846:1853  ct.v[1] */\n      0x02\n      dup2\n      lt\n      tag_196\n      jumpi\n      tag_197\n      tag_93\n      jump\t// in\n    tag_197:\n    tag_196:\n      add\n      sload\n        /* \"cramer_shoup.sol\":1831:1837  ct_mem */\n      dup2\n        /* \"cramer_shoup.sol\":1831:1839  ct_mem.v */\n      0x60\n      add\n      mload\n        /* \"cramer_shoup.sol\":1840:1841  1 */\n      0x01\n        /* \"cramer_shoup.sol\":1831:1842  ct_mem.v[1] */\n      0x02\n      dup2\n      lt\n      tag_199\n      jumpi\n      tag_200\n      tag_93\n      jump\t// in\n    tag_200:\n    tag_199:\n      0x20\n      mul\n      add\n      mload\n        /* \"cramer_shoup.sol\":1831:1853  ct_mem.v[1] == ct.v[1] */\n      eq\n        /* \"cramer_shoup.sol\":1802:1854  (ct_mem.v[0] == ct.v[0]) && (ct_mem.v[1] == ct.v[1]) */\n    tag_195:\n        /* \"cramer_shoup.sol\":1794:1872  require((ct_mem.v[0] == ct.v[0]) && (ct_mem.v[1] == ct.v[1]), \"v not matched\") */\n      tag_201\n      jumpi\n      mload(0x40)\n      0x08c379a000000000000000000000000000000000000000000000000000000000\n      dup2\n      mstore\n      0x04\n      add\n      tag_202\n      swap1\n      tag_203\n      jump\t// in\n    tag_202:\n      mload(0x40)\n      dup1\n      swap2\n      sub\n      swap1\n      revert\n    tag_201:\n        /* \"cramer_shoup.sol\":1889:1893  true */\n      0x01\n        /* \"cramer_shoup.sol\":1882:1893  return true */\n      swap3\n      pop\n      pop\n      pop\n        /* \"cramer_shoup.sol\":1268:1900  function encryptAndCompare(... */\n      swap4\n      swap3\n      pop\n      pop\n      pop\n      jump\t// out\n        /* \"cramer_shoup.sol\":3004:3408  function ecMul(bytes32[2] memory g, bytes32 scalar) public returns (bytes32[2] memory result) {... */\n    tag_41:\n        /* \"cramer_shoup.sol\":3072:3096  bytes32[2] memory result */\n      tag_204\n      tag_205\n      jump\t// in\n    tag_204:\n        /* \"cramer_shoup.sol\":3108:3131  bytes32[3] memory input */\n      tag_207\n      tag_208\n      jump\t// in\n    tag_207:\n        /* \"cramer_shoup.sol\":3152:3153  g */\n      dup4\n        /* \"cramer_shoup.sol\":3154:3155  0 */\n      0x00\n        /* \"cramer_shoup.sol\":3152:3156  g[0] */\n      0x02\n      dup2\n      lt\n      tag_209\n      jumpi\n      tag_210\n      tag_93\n      jump\t// in\n    tag_210:\n    tag_209:\n      0x20\n      mul\n      add\n      mload\n        /* \"cramer_shoup.sol\":3141:3146  input */\n      dup2\n        /* \"cramer_shoup.sol\":3147:3148  0 */\n      0x00\n        /* \"cramer_shoup.sol\":3141:3149  input[0] */\n      0x03\n      dup2\n      lt\n      tag_211\n      jumpi\n      tag_212\n      tag_93\n      jump\t// in\n    tag_212:\n    tag_211:\n      0x20\n      mul\n      add\n        /* \"cramer_shoup.sol\":3141:3156  input[0] = g[0] */\n      dup2\n      dup2\n      mstore\n      pop\n      pop\n        /* \"cramer_shoup.sol\":3177:3178  g */\n      dup4\n        /* \"cramer_shoup.sol\":3179:3180  1 */\n      0x01\n        /* \"cramer_shoup.sol\":3177:3181  g[1] */\n      0x02\n      dup2\n      lt\n      tag_213\n      jumpi\n      tag_214\n      tag_93\n      jump\t// in\n    tag_214:\n    tag_213:\n      0x20\n      mul\n      add\n      mload\n        /* \"cramer_shoup.sol\":3166:3171  input */\n      dup2\n        /* \"cramer_shoup.sol\":3172:3173  1 */\n      0x01\n        /* \"cramer_shoup.sol\":3166:3174  input[1] */\n      0x03\n      dup2\n      lt\n      tag_215\n      jumpi\n      tag_216\n      tag_93\n      jump\t// in\n    tag_216:\n    tag_215:\n      0x20\n      mul\n      add\n        /* \"cramer_shoup.sol\":3166:3181  input[1] = g[1] */\n      dup2\n      dup2\n      mstore\n      pop\n      pop\n        /* \"cramer_shoup.sol\":3202:3208  scalar */\n      dup3\n        /* \"cramer_shoup.sol\":3191:3196  input */\n      dup2\n        /* \"cramer_shoup.sol\":3197:3198  2 */\n      0x02\n        /* \"cramer_shoup.sol\":3191:3199  input[2] */\n      0x03\n      dup2\n      lt\n      tag_217\n      jumpi\n      tag_218\n      tag_93\n      jump\t// in\n    tag_218:\n    tag_217:\n      0x20\n      mul\n      add\n        /* \"cramer_shoup.sol\":3191:3208  input[2] = scalar */\n      dup2\n      dup2\n      mstore\n      pop\n      pop\n        /* \"cramer_shoup.sol\":3297:3301  0x40 */\n      0x40\n        /* \"cramer_shoup.sol\":3289:3295  result */\n      dup3\n        /* \"cramer_shoup.sol\":3283:3287  0x60 */\n      0x60\n        /* \"cramer_shoup.sol\":3276:3281  input */\n      dup4\n        /* \"cramer_shoup.sol\":3273:3274  0 */\n      0x00\n        /* \"cramer_shoup.sol\":3267:3271  0x07 */\n      0x07\n        /* \"cramer_shoup.sol\":3261:3265  6000 */\n      0x1770\n        /* \"cramer_shoup.sol\":3256:3302  call(6000, 0x07, 0, input, 0x60, result, 0x40) */\n      call\n        /* \"cramer_shoup.sol\":3322:3329  success */\n      dup1\n        /* \"cramer_shoup.sol\":3347:3348  0 */\n      0x00\n        /* \"cramer_shoup.sol\":3342:3392  case 0 {... */\n      dup2\n      eq\n      tag_220\n      jumpi\n        /* \"cramer_shoup.sol\":3315:3392  switch success... */\n      jump(tag_219)\n        /* \"cramer_shoup.sol\":3342:3392  case 0 {... */\n    tag_220:\n        /* \"cramer_shoup.sol\":3376:3377  0 */\n      0x00\n        /* \"cramer_shoup.sol\":3374:3375  0 */\n      dup1\n        /* \"cramer_shoup.sol\":3367:3378  revert(0,0) */\n      revert\n        /* \"cramer_shoup.sol\":3315:3392  switch success... */\n    tag_219:\n      pop\n        /* \"cramer_shoup.sol\":3227:3402  {... */\n      pop\n      pop\n        /* \"cramer_shoup.sol\":3004:3408  function ecMul(bytes32[2] memory g, bytes32 scalar) public returns (bytes32[2] memory result) {... */\n      swap3\n      swap2\n      pop\n      pop\n      jump\t// out\n        /* \"cramer_shoup.sol\":3414:4142  function expmod(uint256 base, uint256 e, uint256 m) public view returns (uint256 o) {... */\n    tag_47:\n        /* \"cramer_shoup.sol\":3487:3496  uint256 o */\n      0x00\n        /* \"cramer_shoup.sol\":3578:3582  0x40 */\n      0x40\n        /* \"cramer_shoup.sol\":3572:3583  mload(0x40) */\n      mload\n        /* \"cramer_shoup.sol\":3657:3661  0x20 */\n      0x20\n        /* \"cramer_shoup.sol\":3653:3655  po */\n      dup2\n        /* \"cramer_shoup.sol\":3646:3662  mstore(po, 0x20) */\n      mstore\n        /* \"cramer_shoup.sol\":3727:3731  0x20 */\n      0x20\n        /* \"cramer_shoup.sol\":3720:3724  0x20 */\n      dup1\n        /* \"cramer_shoup.sol\":3716:3718  po */\n      dup3\n        /* \"cramer_shoup.sol\":3712:3725  add(po, 0x20) */\n      add\n        /* \"cramer_shoup.sol\":3705:3732  mstore(add(po, 0x20), 0x20) */\n      mstore\n        /* \"cramer_shoup.sol\":3790:3794  0x20 */\n      0x20\n        /* \"cramer_shoup.sol\":3783:3787  0x40 */\n      0x40\n        /* \"cramer_shoup.sol\":3779:3781  po */\n      dup3\n        /* \"cramer_shoup.sol\":3775:3788  add(po, 0x40) */\n      add\n        /* \"cramer_shoup.sol\":3768:3795  mstore(add(po, 0x40), 0x20) */\n      mstore\n        /* \"cramer_shoup.sol\":3852:3856  base */\n      dup5\n        /* \"cramer_shoup.sol\":3845:3849  0x60 */\n      0x60\n        /* \"cramer_shoup.sol\":3841:3843  po */\n      dup3\n        /* \"cramer_shoup.sol\":3837:3850  add(po, 0x60) */\n      add\n        /* \"cramer_shoup.sol\":3830:3857  mstore(add(po, 0x60), base) */\n      mstore\n        /* \"cramer_shoup.sol\":3901:3902  e */\n      dup4\n        /* \"cramer_shoup.sol\":3894:3898  0x80 */\n      0x80\n        /* \"cramer_shoup.sol\":3890:3892  po */\n      dup3\n        /* \"cramer_shoup.sol\":3886:3899  add(po, 0x80) */\n      add\n        /* \"cramer_shoup.sol\":3879:3903  mstore(add(po, 0x80), e) */\n      mstore\n        /* \"cramer_shoup.sol\":3954:3955  m */\n      dup3\n        /* \"cramer_shoup.sol\":3947:3951  0xa0 */\n      0xa0\n        /* \"cramer_shoup.sol\":3943:3945  po */\n      dup3\n        /* \"cramer_shoup.sol\":3939:3952  add(po, 0xa0) */\n      add\n        /* \"cramer_shoup.sol\":3932:3956  mstore(add(po, 0xa0), m) */\n      mstore\n        /* \"cramer_shoup.sol\":4033:4037  0x20 */\n      0x20\n        /* \"cramer_shoup.sol\":4029:4031  po */\n      dup2\n        /* \"cramer_shoup.sol\":4023:4027  0xc0 */\n      0xc0\n        /* \"cramer_shoup.sol\":4019:4021  po */\n      dup4\n        /* \"cramer_shoup.sol\":4013:4017  0x05 */\n      0x05\n        /* \"cramer_shoup.sol\":4009:4010  0 */\n      0x00\n        /* \"cramer_shoup.sol\":4005:4011  not(0) */\n      not\n        /* \"cramer_shoup.sol\":3994:4038  staticcall(not(0), 0x05, po, 0xc0, po, 0x20) */\n      staticcall\n        /* \"cramer_shoup.sol\":3984:4084  if iszero(staticcall(not(0), 0x05, po, 0xc0, po, 0x20)) {... */\n      tag_222\n      jumpi\n        /* \"cramer_shoup.sol\":4068:4069  0 */\n      0x00\n        /* \"cramer_shoup.sol\":4065:4066  0 */\n      dup1\n        /* \"cramer_shoup.sol\":4058:4070  revert(0, 0) */\n      revert\n        /* \"cramer_shoup.sol\":3984:4084  if iszero(staticcall(not(0), 0x05, po, 0xc0, po, 0x20)) {... */\n    tag_222:\n        /* \"cramer_shoup.sol\":4128:4130  po */\n      dup1\n        /* \"cramer_shoup.sol\":4122:4131  mload(po) */\n      mload\n        /* \"cramer_shoup.sol\":4117:4131  o := mload(po) */\n      swap2\n      pop\n        /* \"cramer_shoup.sol\":3518:4141  {... */\n      pop\n        /* \"cramer_shoup.sol\":3414:4142  function expmod(uint256 base, uint256 e, uint256 m) public view returns (uint256 o) {... */\n      swap4\n      swap3\n      pop\n      pop\n      pop\n      jump\t// out\n        /* \"cramer_shoup.sol\":4872:5477  function encode_x(bytes32 x, uint256 pad) public view returns (bytes32[2] memory){... */\n    tag_53:\n        /* \"cramer_shoup.sol\":4935:4952  bytes32[2] memory */\n      tag_223\n      tag_205\n      jump\t// in\n    tag_223:\n        /* \"cramer_shoup.sol\":4963:4980  uint256 increment */\n      0x00\n        /* \"cramer_shoup.sol\":4993:4996  pad */\n      dup3\n        /* \"cramer_shoup.sol\":4990:4992  32 */\n      0x20\n        /* \"cramer_shoup.sol\":4990:4996  32-pad */\n      tag_225\n      swap2\n      swap1\n      tag_226\n      jump\t// in\n    tag_225:\n        /* \"cramer_shoup.sol\":4987:4988  8 */\n      0x08\n        /* \"cramer_shoup.sol\":4987:4997  8*(32-pad) */\n      tag_227\n      swap2\n      swap1\n      tag_228\n      jump\t// in\n    tag_227:\n        /* \"cramer_shoup.sol\":4983:4984  2 */\n      0x02\n        /* \"cramer_shoup.sol\":4983:4998  2**(8*(32-pad)) */\n      tag_229\n      swap2\n      swap1\n      tag_230\n      jump\t// in\n    tag_229:\n        /* \"cramer_shoup.sol\":4963:4998  uint256 increment = 2**(8*(32-pad)) */\n      swap1\n      pop\n        /* \"cramer_shoup.sol\":5008:5021  uint256 x_int */\n      0x00\n        /* \"cramer_shoup.sol\":5032:5033  x */\n      dup5\n        /* \"cramer_shoup.sol\":5024:5034  uint256(x) */\n      0x00\n      shr\n        /* \"cramer_shoup.sol\":5008:5034  uint256 x_int = uint256(x) */\n      swap1\n      pop\n        /* \"cramer_shoup.sol\":5050:5059  uint256 i */\n      0x00\n        /* \"cramer_shoup.sol\":5045:5430  for (uint256 i = 0; i < 2**pad; i++) {... */\n    tag_231:\n        /* \"cramer_shoup.sol\":5072:5075  pad */\n      dup5\n        /* \"cramer_shoup.sol\":5069:5070  2 */\n      0x02\n        /* \"cramer_shoup.sol\":5069:5075  2**pad */\n      tag_234\n      swap2\n      swap1\n      tag_230\n      jump\t// in\n    tag_234:\n        /* \"cramer_shoup.sol\":5065:5066  i */\n      dup2\n        /* \"cramer_shoup.sol\":5065:5075  i < 2**pad */\n      lt\n        /* \"cramer_shoup.sol\":5045:5430  for (uint256 i = 0; i < 2**pad; i++) {... */\n      iszero\n      tag_232\n      jumpi\n        /* \"cramer_shoup.sol\":5096:5111  uint256 x_int_i */\n      0x00\n        /* \"cramer_shoup.sol\":5124:5133  increment */\n      dup4\n        /* \"cramer_shoup.sol\":5122:5123  i */\n      dup3\n        /* \"cramer_shoup.sol\":5122:5133  i*increment */\n      tag_235\n      swap2\n      swap1\n      tag_228\n      jump\t// in\n    tag_235:\n        /* \"cramer_shoup.sol\":5114:5119  x_int */\n      dup4\n        /* \"cramer_shoup.sol\":5114:5133  x_int + i*increment */\n      tag_236\n      swap2\n      swap1\n      tag_237\n      jump\t// in\n    tag_236:\n        /* \"cramer_shoup.sol\":5096:5133  uint256 x_int_i = x_int + i*increment */\n      swap1\n      pop\n        /* \"cramer_shoup.sol\":5147:5162  uint256 y_int_i */\n      0x00\n        /* \"cramer_shoup.sol\":5165:5208  sqrt_p(addmod(expmod(x_int_i, 3, p), 3, p)) */\n      tag_238\n        /* \"cramer_shoup.sol\":402:479  21888242871839275222246405745257275088696311157297823662689037894645226208583 */\n      0x30644e72e131a029b85045b68181585d97816a916871ca8d3c208c16d87cfd47\n        /* \"cramer_shoup.sol\":5172:5207  addmod(expmod(x_int_i, 3, p), 3, p) */\n      dup1\n      tag_239\n      jumpi\n      tag_240\n      tag_241\n      jump\t// in\n    tag_240:\n    tag_239:\n        /* \"cramer_shoup.sol\":5202:5203  3 */\n      0x03\n        /* \"cramer_shoup.sol\":5179:5200  expmod(x_int_i, 3, p) */\n      tag_242\n        /* \"cramer_shoup.sol\":5186:5193  x_int_i */\n      dup6\n        /* \"cramer_shoup.sol\":5195:5196  3 */\n      0x03\n        /* \"cramer_shoup.sol\":402:479  21888242871839275222246405745257275088696311157297823662689037894645226208583 */\n      0x30644e72e131a029b85045b68181585d97816a916871ca8d3c208c16d87cfd47\n        /* \"cramer_shoup.sol\":5179:5185  expmod */\n      tag_47\n        /* \"cramer_shoup.sol\":5179:5200  expmod(x_int_i, 3, p) */\n      jump\t// in\n    tag_242:\n        /* \"cramer_shoup.sol\":5172:5207  addmod(expmod(x_int_i, 3, p), 3, p) */\n      addmod\n        /* \"cramer_shoup.sol\":5165:5171  sqrt_p */\n      tag_66\n        /* \"cramer_shoup.sol\":5165:5208  sqrt_p(addmod(expmod(x_int_i, 3, p), 3, p)) */\n      jump\t// in\n    tag_238:\n        /* \"cramer_shoup.sol\":5147:5208  uint256 y_int_i = sqrt_p(addmod(expmod(x_int_i, 3, p), 3, p)) */\n      swap1\n      pop\n        /* \"cramer_shoup.sol\":5237:5238  0 */\n      0x00\n        /* \"cramer_shoup.sol\":5226:5233  y_int_i */\n      dup2\n        /* \"cramer_shoup.sol\":5226:5238  y_int_i != 0 */\n      eq\n        /* \"cramer_shoup.sol\":5222:5420  if (y_int_i != 0) {... */\n      tag_243\n      jumpi\n        /* \"cramer_shoup.sol\":5258:5282  bytes32[2] memory result */\n      tag_244\n      tag_205\n      jump\t// in\n    tag_244:\n        /* \"cramer_shoup.sol\":5320:5327  x_int_i */\n      dup3\n        /* \"cramer_shoup.sol\":5312:5328  bytes32(x_int_i) */\n      0x00\n      shl\n        /* \"cramer_shoup.sol\":5300:5306  result */\n      dup2\n        /* \"cramer_shoup.sol\":5307:5308  0 */\n      0x00\n        /* \"cramer_shoup.sol\":5300:5309  result[0] */\n      0x02\n      dup2\n      lt\n      tag_245\n      jumpi\n      tag_246\n      tag_93\n      jump\t// in\n    tag_246:\n    tag_245:\n      0x20\n      mul\n      add\n        /* \"cramer_shoup.sol\":5300:5328  result[0] = bytes32(x_int_i) */\n      dup2\n      dup2\n      mstore\n      pop\n      pop\n        /* \"cramer_shoup.sol\":5366:5373  y_int_i */\n      dup2\n        /* \"cramer_shoup.sol\":5358:5374  bytes32(y_int_i) */\n      0x00\n      shl\n        /* \"cramer_shoup.sol\":5346:5352  result */\n      dup2\n        /* \"cramer_shoup.sol\":5353:5354  1 */\n      0x01\n        /* \"cramer_shoup.sol\":5346:5355  result[1] */\n      0x02\n      dup2\n      lt\n      tag_247\n      jumpi\n      tag_248\n      tag_93\n      jump\t// in\n    tag_248:\n    tag_247:\n      0x20\n      mul\n      add\n        /* \"cramer_shoup.sol\":5346:5374  result[1] = bytes32(y_int_i) */\n      dup2\n      dup2\n      mstore\n      pop\n      pop\n        /* \"cramer_shoup.sol\":5399:5405  result */\n      dup1\n        /* \"cramer_shoup.sol\":5392:5405  return result */\n      swap7\n      pop\n      pop\n      pop\n      pop\n      pop\n      pop\n      pop\n      jump(tag_224)\n        /* \"cramer_shoup.sol\":5222:5420  if (y_int_i != 0) {... */\n    tag_243:\n        /* \"cramer_shoup.sol\":5082:5430  {... */\n      pop\n      pop\n        /* \"cramer_shoup.sol\":5077:5080  i++ */\n      dup1\n      dup1\n      tag_249\n      swap1\n      tag_250\n      jump\t// in\n    tag_249:\n      swap2\n      pop\n      pop\n        /* \"cramer_shoup.sol\":5045:5430  for (uint256 i = 0; i < 2**pad; i++) {... */\n      jump(tag_231)\n    tag_232:\n      pop\n        /* \"cramer_shoup.sol\":5439:5470  return [bytes32(0), bytes32(0)] */\n      mload(0x40)\n      dup1\n      0x40\n      add\n      0x40\n      mstore\n      dup1\n        /* \"cramer_shoup.sol\":5455:5456  0 */\n      0x00\n        /* \"cramer_shoup.sol\":5447:5457  bytes32(0) */\n      dup1\n      shl\n        /* \"cramer_shoup.sol\":5439:5470  return [bytes32(0), bytes32(0)] */\n      dup2\n      mstore\n      0x20\n      add\n        /* \"cramer_shoup.sol\":5467:5468  0 */\n      0x00\n        /* \"cramer_shoup.sol\":5459:5469  bytes32(0) */\n      dup1\n      shl\n        /* \"cramer_shoup.sol\":5439:5470  return [bytes32(0), bytes32(0)] */\n      dup2\n      mstore\n      pop\n      swap3\n      pop\n      pop\n      pop\n        /* \"cramer_shoup.sol\":4872:5477  function encode_x(bytes32 x, uint256 pad) public view returns (bytes32[2] memory){... */\n    tag_224:\n      swap3\n      swap2\n      pop\n      pop\n      jump\t// out\n        /* \"cramer_shoup.sol\":4408:4630  function legendre_p(uint256 a) public view returns (bool) {... */\n    tag_58:\n        /* \"cramer_shoup.sol\":4460:4464  bool */\n      0x00\n        /* \"cramer_shoup.sol\":4476:4486  uint256 lm */\n      dup1\n        /* \"cramer_shoup.sol\":4489:4518  expmod(a, p_minus_1_div_2, p) */\n      tag_252\n        /* \"cramer_shoup.sol\":4496:4497  a */\n      dup4\n        /* \"cramer_shoup.sol\":520:597  10944121435919637611123202872628637544348155578648911831344518947322613104291 */\n      0x183227397098d014dc2822db40c0ac2ecbc0b548b438e5469e10460b6c3e7ea3\n        /* \"cramer_shoup.sol\":402:479  21888242871839275222246405745257275088696311157297823662689037894645226208583 */\n      0x30644e72e131a029b85045b68181585d97816a916871ca8d3c208c16d87cfd47\n        /* \"cramer_shoup.sol\":4489:4495  expmod */\n      tag_47\n        /* \"cramer_shoup.sol\":4489:4518  expmod(a, p_minus_1_div_2, p) */\n      jump\t// in\n    tag_252:\n        /* \"cramer_shoup.sol\":4476:4518  uint256 lm = expmod(a, p_minus_1_div_2, p) */\n      swap1\n      pop\n        /* \"cramer_shoup.sol\":4542:4543  1 */\n      0x01\n        /* \"cramer_shoup.sol\":402:479  21888242871839275222246405745257275088696311157297823662689037894645226208583 */\n      0x30644e72e131a029b85045b68181585d97816a916871ca8d3c208c16d87cfd47\n        /* \"cramer_shoup.sol\":4538:4543  p - 1 */\n      tag_253\n      swap2\n      swap1\n      tag_226\n      jump\t// in\n    tag_253:\n        /* \"cramer_shoup.sol\":4532:4534  lm */\n      dup2\n        /* \"cramer_shoup.sol\":4532:4543  lm == p - 1 */\n      eq\n        /* \"cramer_shoup.sol\":4528:4624  if (lm == p - 1) {... */\n      iszero\n      tag_254\n      jumpi\n        /* \"cramer_shoup.sol\":4566:4571  false */\n      0x00\n        /* \"cramer_shoup.sol\":4559:4571  return false */\n      swap2\n      pop\n      pop\n      jump(tag_251)\n        /* \"cramer_shoup.sol\":4528:4624  if (lm == p - 1) {... */\n    tag_254:\n        /* \"cramer_shoup.sol\":4609:4613  true */\n      0x01\n        /* \"cramer_shoup.sol\":4602:4613  return true */\n      swap2\n      pop\n      pop\n        /* \"cramer_shoup.sol\":4408:4630  function legendre_p(uint256 a) public view returns (bool) {... */\n    tag_251:\n      swap2\n      swap1\n      pop\n      jump\t// out\n        /* \"cramer_shoup.sol\":2405:2481  function setPublicKey(PublicKey memory _pk) public {... */\n    tag_63:\n        /* \"cramer_shoup.sol\":2471:2474  _pk */\n      dup1\n        /* \"cramer_shoup.sol\":2466:2468  pk */\n      0x00\n        /* \"cramer_shoup.sol\":2466:2474  pk = _pk */\n      dup1\n      dup3\n      add\n      mload\n      dup2\n      0x00\n      add\n      swap1\n      0x02\n      tag_257\n      swap3\n      swap2\n      swap1\n      tag_258\n      jump\t// in\n    tag_257:\n      pop\n      0x20\n      dup3\n      add\n      mload\n      dup2\n      0x02\n      add\n      swap1\n      0x02\n      tag_259\n      swap3\n      swap2\n      swap1\n      tag_258\n      jump\t// in\n    tag_259:\n      pop\n      0x40\n      dup3\n      add\n      mload\n      dup2\n      0x04\n      add\n      swap1\n      0x02\n      tag_260\n      swap3\n      swap2\n      swap1\n      tag_258\n      jump\t// in\n    tag_260:\n      pop\n      0x60\n      dup3\n      add\n      mload\n      dup2\n      0x06\n      add\n      swap1\n      0x02\n      tag_261\n      swap3\n      swap2\n      swap1\n      tag_258\n      jump\t// in\n    tag_261:\n      pop\n      0x80\n      dup3\n      add\n      mload\n      dup2\n      0x08\n      add\n      swap1\n      0x02\n      tag_262\n      swap3\n      swap2\n      swap1\n      tag_258\n      jump\t// in\n    tag_262:\n      pop\n      swap1\n      pop\n      pop\n        /* \"cramer_shoup.sol\":2405:2481  function setPublicKey(PublicKey memory _pk) public {... */\n      pop\n      jump\t// out\n        /* \"cramer_shoup.sol\":4636:4866  function sqrt_p(uint256 a) public view returns (uint256) {... */\n    tag_66:\n        /* \"cramer_shoup.sol\":4684:4691  uint256 */\n      0x00\n        /* \"cramer_shoup.sol\":4707:4720  legendre_p(a) */\n      tag_264\n        /* \"cramer_shoup.sol\":4718:4719  a */\n      dup3\n        /* \"cramer_shoup.sol\":4707:4717  legendre_p */\n      tag_58\n        /* \"cramer_shoup.sol\":4707:4720  legendre_p(a) */\n      jump\t// in\n    tag_264:\n        /* \"cramer_shoup.sol\":4707:4730  legendre_p(a) && a != 0 */\n      dup1\n      iszero\n      tag_265\n      jumpi\n      pop\n        /* \"cramer_shoup.sol\":4729:4730  0 */\n      0x00\n        /* \"cramer_shoup.sol\":4724:4725  a */\n      dup3\n        /* \"cramer_shoup.sol\":4724:4730  a != 0 */\n      eq\n      iszero\n        /* \"cramer_shoup.sol\":4707:4730  legendre_p(a) && a != 0 */\n    tag_265:\n        /* \"cramer_shoup.sol\":4703:4860  if (legendre_p(a) && a != 0) {... */\n      iszero\n      tag_266\n      jumpi\n        /* \"cramer_shoup.sol\":4746:4756  uint256 lm */\n      0x00\n        /* \"cramer_shoup.sol\":4759:4787  expmod(a, p_plus_1_div_4, p) */\n      tag_267\n        /* \"cramer_shoup.sol\":4766:4767  a */\n      dup4\n        /* \"cramer_shoup.sol\":637:713  5472060717959818805561601436314318772174077789324455915672259473661306552146 */\n      0x0c19139cb84c680a6e14116da060561765e05aa45a1c72a34f082305b61f3f52\n        /* \"cramer_shoup.sol\":402:479  21888242871839275222246405745257275088696311157297823662689037894645226208583 */\n      0x30644e72e131a029b85045b68181585d97816a916871ca8d3c208c16d87cfd47\n        /* \"cramer_shoup.sol\":4759:4765  expmod */\n      tag_47\n        /* \"cramer_shoup.sol\":4759:4787  expmod(a, p_plus_1_div_4, p) */\n      jump\t// in\n    tag_267:\n        /* \"cramer_shoup.sol\":4746:4787  uint256 lm = expmod(a, p_plus_1_div_4, p) */\n      swap1\n      pop\n        /* \"cramer_shoup.sol\":4808:4810  lm */\n      dup1\n        /* \"cramer_shoup.sol\":4801:4810  return lm */\n      swap2\n      pop\n      pop\n      jump(tag_263)\n        /* \"cramer_shoup.sol\":4703:4860  if (legendre_p(a) && a != 0) {... */\n    tag_266:\n        /* \"cramer_shoup.sol\":4848:4849  0 */\n      0x00\n        /* \"cramer_shoup.sol\":4841:4849  return 0 */\n      swap1\n      pop\n        /* \"cramer_shoup.sol\":4636:4866  function sqrt_p(uint256 a) public view returns (uint256) {... */\n    tag_263:\n      swap2\n      swap1\n      pop\n      jump\t// out\n        /* \"cramer_shoup.sol\":2567:2998  function ecAdd(bytes32[2] memory a, bytes32[2] memory b) public returns (bytes32[2] memory result) {... */\n    tag_71:\n        /* \"cramer_shoup.sol\":2640:2664  bytes32[2] memory result */\n      tag_269\n      tag_205\n      jump\t// in\n    tag_269:\n        /* \"cramer_shoup.sol\":2676:2699  bytes32[4] memory input */\n      tag_271\n      tag_272\n      jump\t// in\n    tag_271:\n        /* \"cramer_shoup.sol\":2720:2721  a */\n      dup4\n        /* \"cramer_shoup.sol\":2722:2723  0 */\n      0x00\n        /* \"cramer_shoup.sol\":2720:2724  a[0] */\n      0x02\n      dup2\n      lt\n      tag_273\n      jumpi\n      tag_274\n      tag_93\n      jump\t// in\n    tag_274:\n    tag_273:\n      0x20\n      mul\n      add\n      mload\n        /* \"cramer_shoup.sol\":2709:2714  input */\n      dup2\n        /* \"cramer_shoup.sol\":2715:2716  0 */\n      0x00\n        /* \"cramer_shoup.sol\":2709:2717  input[0] */\n      0x04\n      dup2\n      lt\n      tag_275\n      jumpi\n      tag_276\n      tag_93\n      jump\t// in\n    tag_276:\n    tag_275:\n      0x20\n      mul\n      add\n        /* \"cramer_shoup.sol\":2709:2724  input[0] = a[0] */\n      dup2\n      dup2\n      mstore\n      pop\n      pop\n        /* \"cramer_shoup.sol\":2745:2746  a */\n      dup4\n        /* \"cramer_shoup.sol\":2747:2748  1 */\n      0x01\n        /* \"cramer_shoup.sol\":2745:2749  a[1] */\n      0x02\n      dup2\n      lt\n      tag_277\n      jumpi\n      tag_278\n      tag_93\n      jump\t// in\n    tag_278:\n    tag_277:\n      0x20\n      mul\n      add\n      mload\n        /* \"cramer_shoup.sol\":2734:2739  input */\n      dup2\n        /* \"cramer_shoup.sol\":2740:2741  1 */\n      0x01\n        /* \"cramer_shoup.sol\":2734:2742  input[1] */\n      0x04\n      dup2\n      lt\n      tag_279\n      jumpi\n      tag_280\n      tag_93\n      jump\t// in\n    tag_280:\n    tag_279:\n      0x20\n      mul\n      add\n        /* \"cramer_shoup.sol\":2734:2749  input[1] = a[1] */\n      dup2\n      dup2\n      mstore\n      pop\n      pop\n        /* \"cramer_shoup.sol\":2770:2771  b */\n      dup3\n        /* \"cramer_shoup.sol\":2772:2773  0 */\n      0x00\n        /* \"cramer_shoup.sol\":2770:2774  b[0] */\n      0x02\n      dup2\n      lt\n      tag_281\n      jumpi\n      tag_282\n      tag_93\n      jump\t// in\n    tag_282:\n    tag_281:\n      0x20\n      mul\n      add\n      mload\n        /* \"cramer_shoup.sol\":2759:2764  input */\n      dup2\n        /* \"cramer_shoup.sol\":2765:2766  2 */\n      0x02\n        /* \"cramer_shoup.sol\":2759:2767  input[2] */\n      0x04\n      dup2\n      lt\n      tag_283\n      jumpi\n      tag_284\n      tag_93\n      jump\t// in\n    tag_284:\n    tag_283:\n      0x20\n      mul\n      add\n        /* \"cramer_shoup.sol\":2759:2774  input[2] = b[0] */\n      dup2\n      dup2\n      mstore\n      pop\n      pop\n        /* \"cramer_shoup.sol\":2795:2796  b */\n      dup3\n        /* \"cramer_shoup.sol\":2797:2798  1 */\n      0x01\n        /* \"cramer_shoup.sol\":2795:2799  b[1] */\n      0x02\n      dup2\n      lt\n      tag_285\n      jumpi\n      tag_286\n      tag_93\n      jump\t// in\n    tag_286:\n    tag_285:\n      0x20\n      mul\n      add\n      mload\n        /* \"cramer_shoup.sol\":2784:2789  input */\n      dup2\n        /* \"cramer_shoup.sol\":2790:2791  3 */\n      0x03\n        /* \"cramer_shoup.sol\":2784:2792  input[3] */\n      0x04\n      dup2\n      lt\n      tag_287\n      jumpi\n      tag_288\n      tag_93\n      jump\t// in\n    tag_288:\n    tag_287:\n      0x20\n      mul\n      add\n        /* \"cramer_shoup.sol\":2784:2799  input[3] = b[1] */\n      dup2\n      dup2\n      mstore\n      pop\n      pop\n        /* \"cramer_shoup.sol\":2887:2891  0x40 */\n      0x40\n        /* \"cramer_shoup.sol\":2879:2885  result */\n      dup3\n        /* \"cramer_shoup.sol\":2873:2877  0x80 */\n      0x80\n        /* \"cramer_shoup.sol\":2866:2871  input */\n      dup4\n        /* \"cramer_shoup.sol\":2863:2864  0 */\n      0x00\n        /* \"cramer_shoup.sol\":2857:2861  0x06 */\n      0x06\n        /* \"cramer_shoup.sol\":2852:2855  150 */\n      0x96\n        /* \"cramer_shoup.sol\":2847:2892  call(150, 0x06, 0, input, 0x80, result, 0x40) */\n      call\n        /* \"cramer_shoup.sol\":2912:2919  success */\n      dup1\n        /* \"cramer_shoup.sol\":2937:2938  0 */\n      0x00\n        /* \"cramer_shoup.sol\":2932:2982  case 0 {... */\n      dup2\n      eq\n      tag_290\n      jumpi\n        /* \"cramer_shoup.sol\":2905:2982  switch success... */\n      jump(tag_289)\n        /* \"cramer_shoup.sol\":2932:2982  case 0 {... */\n    tag_290:\n        /* \"cramer_shoup.sol\":2966:2967  0 */\n      0x00\n        /* \"cramer_shoup.sol\":2964:2965  0 */\n      dup1\n        /* \"cramer_shoup.sol\":2957:2968  revert(0,0) */\n      revert\n        /* \"cramer_shoup.sol\":2905:2982  switch success... */\n    tag_289:\n      pop\n        /* \"cramer_shoup.sol\":2818:2992  {... */\n      pop\n      pop\n        /* \"cramer_shoup.sol\":2567:2998  function ecAdd(bytes32[2] memory a, bytes32[2] memory b) public returns (bytes32[2] memory result) {... */\n      swap3\n      swap2\n      pop\n      pop\n      jump\t// out\n        /* \"cramer_shoup.sol\":2487:2561  function commit(Commitment memory _com) public {... */\n    tag_76:\n        /* \"cramer_shoup.sol\":2550:2554  _com */\n      dup1\n        /* \"cramer_shoup.sol\":2544:2547  com */\n      0x0a\n        /* \"cramer_shoup.sol\":2544:2554  com = _com */\n      0x00\n      dup3\n      add\n      mload\n      dup2\n      0x00\n      add\n      sstore\n      0x20\n      dup3\n      add\n      mload\n      dup2\n      0x01\n      add\n      0x00\n      dup3\n      add\n      mload\n      dup2\n      0x00\n      add\n      swap1\n      0x02\n      tag_292\n      swap3\n      swap2\n      swap1\n      tag_258\n      jump\t// in\n    tag_292:\n      pop\n      0x20\n      dup3\n      add\n      mload\n      dup2\n      0x02\n      add\n      swap1\n      0x02\n      tag_293\n      swap3\n      swap2\n      swap1\n      tag_258\n      jump\t// in\n    tag_293:\n      pop\n      0x40\n      dup3\n      add\n      mload\n      dup2\n      0x04\n      add\n      swap1\n      0x02\n      tag_294\n      swap3\n      swap2\n      swap1\n      tag_258\n      jump\t// in\n    tag_294:\n      pop\n      0x60\n      dup3\n      add\n      mload\n      dup2\n      0x06\n      add\n      swap1\n      0x02\n      tag_295\n      swap3\n      swap2\n      swap1\n      tag_258\n      jump\t// in\n    tag_295:\n      pop\n      pop\n      pop\n      0x40\n      dup3\n      add\n      mload\n      dup2\n      0x09\n      add\n      0x00\n      dup3\n      add\n      mload\n      dup2\n      0x00\n      add\n      swap1\n      0x02\n      tag_296\n      swap3\n      swap2\n      swap1\n      tag_258\n      jump\t// in\n    tag_296:\n      pop\n      0x20\n      dup3\n      add\n      mload\n      dup2\n      0x02\n      add\n      swap1\n      0x02\n      tag_297\n      swap3\n      swap2\n      swap1\n      tag_258\n      jump\t// in\n    tag_297:\n      pop\n      0x40\n      dup3\n      add\n      mload\n      dup2\n      0x04\n      add\n      swap1\n      0x02\n      tag_298\n      swap3\n      swap2\n      swap1\n      tag_258\n      jump\t// in\n    tag_298:\n      pop\n      0x60\n      dup3\n      add\n      mload\n      dup2\n      0x06\n      add\n      swap1\n      0x02\n      tag_299\n      swap3\n      swap2\n      swap1\n      tag_258\n      jump\t// in\n    tag_299:\n      pop\n      pop\n      pop\n      swap1\n      pop\n      pop\n        /* \"cramer_shoup.sol\":2487:2561  function commit(Commitment memory _com) public {... */\n      pop\n      jump\t// out\n    tag_78:\n      mload(0x40)\n      dup1\n      0x80\n      add\n      0x40\n      mstore\n      dup1\n      tag_300\n      tag_205\n      jump\t// in\n    tag_300:\n      dup2\n      mstore\n      0x20\n      add\n      tag_301\n      tag_205\n      jump\t// in\n    tag_301:\n      dup2\n      mstore\n      0x20\n      add\n      tag_302\n      tag_205\n      jump\t// in\n    tag_302:\n      dup2\n      mstore\n      0x20\n      add\n      tag_303\n      tag_205\n      jump\t// in\n    tag_303:\n      dup2\n      mstore\n      pop\n      swap1\n      jump\t// out\n    tag_205:\n      mload(0x40)\n      dup1\n      0x40\n      add\n      0x40\n      mstore\n      dup1\n      0x02\n      swap1\n      0x20\n      dup3\n      mul\n      dup1\n      calldatasize\n      dup4\n      calldatacopy\n      dup1\n      dup3\n      add\n      swap2\n      pop\n      pop\n      swap1\n      pop\n      pop\n      swap1\n      jump\t// out\n    tag_208:\n      mload(0x40)\n      dup1\n      0x60\n      add\n      0x40\n      mstore\n      dup1\n      0x03\n      swap1\n      0x20\n      dup3\n      mul\n      dup1\n      calldatasize\n      dup4\n      calldatacopy\n      dup1\n      dup3\n      add\n      swap2\n      pop\n      pop\n      swap1\n      pop\n      pop\n      swap1\n      jump\t// out\n    tag_258:\n      dup3\n      0x02\n      dup2\n      add\n      swap3\n      dup3\n      iszero\n      tag_304\n      jumpi\n      swap2\n      0x20\n      mul\n      dup3\n      add\n    tag_305:\n      dup3\n      dup2\n      gt\n      iszero\n      tag_306\n      jumpi\n      dup3\n      mload\n      dup3\n      sstore\n      swap2\n      0x20\n      add\n      swap2\n      swap1\n      0x01\n      add\n      swap1\n      jump(tag_305)\n    tag_306:\n    tag_304:\n      pop\n      swap1\n      pop\n      tag_307\n      swap2\n      swap1\n      tag_308\n      jump\t// in\n    tag_307:\n      pop\n      swap1\n      jump\t// out\n    tag_272:\n      mload(0x40)\n      dup1\n      0x80\n      add\n      0x40\n      mstore\n      dup1\n      0x04\n      swap1\n      0x20\n      dup3\n      mul\n      dup1\n      calldatasize\n      dup4\n      calldatacopy\n      dup1\n      dup3\n      add\n      swap2\n      pop\n      pop\n      swap1\n      pop\n      pop\n      swap1\n      jump\t// out\n    tag_308:\n    tag_309:\n      dup1\n      dup3\n      gt\n      iszero\n      tag_310\n      jumpi\n      0x00\n      dup2\n      0x00\n      swap1\n      sstore\n      pop\n      0x01\n      add\n      jump(tag_309)\n    tag_310:\n      pop\n      swap1\n      jump\t// out\n        /* \"#utility.yul\":25:680   */\n    tag_312:\n        /* \"#utility.yul\":119:124   */\n      0x00\n        /* \"#utility.yul\":144:223   */\n      tag_314\n        /* \"#utility.yul\":160:222   */\n      tag_315\n        /* \"#utility.yul\":215:221   */\n      dup5\n        /* \"#utility.yul\":160:222   */\n      tag_316\n      jump\t// in\n    tag_315:\n        /* \"#utility.yul\":144:223   */\n      tag_317\n      jump\t// in\n    tag_314:\n        /* \"#utility.yul\":135:223   */\n      swap1\n      pop\n        /* \"#utility.yul\":243:248   */\n      dup1\n        /* \"#utility.yul\":269:275   */\n      dup3\n        /* \"#utility.yul\":319:322   */\n      dup6\n        /* \"#utility.yul\":311:315   */\n      0x20\n        /* \"#utility.yul\":303:309   */\n      dup7\n        /* \"#utility.yul\":299:316   */\n      mul\n        /* \"#utility.yul\":294:297   */\n      dup3\n        /* \"#utility.yul\":290:317   */\n      add\n        /* \"#utility.yul\":287:323   */\n      gt\n        /* \"#utility.yul\":284:427   */\n      iszero\n      tag_318\n      jumpi\n        /* \"#utility.yul\":338:417   */\n      tag_319\n      tag_320\n      jump\t// in\n    tag_319:\n        /* \"#utility.yul\":284:427   */\n    tag_318:\n        /* \"#utility.yul\":451:452   */\n      0x00\n        /* \"#utility.yul\":436:674   */\n    tag_321:\n        /* \"#utility.yul\":461:467   */\n      dup6\n        /* \"#utility.yul\":458:459   */\n      dup2\n        /* \"#utility.yul\":455:468   */\n      lt\n        /* \"#utility.yul\":436:674   */\n      iszero\n      tag_323\n      jumpi\n        /* \"#utility.yul\":529:532   */\n      dup2\n        /* \"#utility.yul\":558:595   */\n      tag_324\n        /* \"#utility.yul\":591:594   */\n      dup9\n        /* \"#utility.yul\":579:589   */\n      dup3\n        /* \"#utility.yul\":558:595   */\n      tag_325\n      jump\t// in\n    tag_324:\n        /* \"#utility.yul\":553:556   */\n      dup5\n        /* \"#utility.yul\":546:596   */\n      mstore\n        /* \"#utility.yul\":625:629   */\n      0x20\n        /* \"#utility.yul\":620:623   */\n      dup5\n        /* \"#utility.yul\":616:630   */\n      add\n        /* \"#utility.yul\":609:630   */\n      swap4\n      pop\n        /* \"#utility.yul\":659:663   */\n      0x20\n        /* \"#utility.yul\":654:657   */\n      dup4\n        /* \"#utility.yul\":650:664   */\n      add\n        /* \"#utility.yul\":643:664   */\n      swap3\n      pop\n        /* \"#utility.yul\":496:674   */\n      pop\n        /* \"#utility.yul\":483:484   */\n      0x01\n        /* \"#utility.yul\":480:481   */\n      dup2\n        /* \"#utility.yul\":476:485   */\n      add\n        /* \"#utility.yul\":471:485   */\n      swap1\n      pop\n        /* \"#utility.yul\":436:674   */\n      jump(tag_321)\n    tag_323:\n        /* \"#utility.yul\":440:454   */\n      pop\n        /* \"#utility.yul\":125:680   */\n      pop\n      pop\n        /* \"#utility.yul\":25:680   */\n      swap4\n      swap3\n      pop\n      pop\n      pop\n      jump\t// out\n        /* \"#utility.yul\":704:1043   */\n    tag_326:\n        /* \"#utility.yul\":773:778   */\n      0x00\n        /* \"#utility.yul\":822:825   */\n      dup3\n        /* \"#utility.yul\":815:819   */\n      0x1f\n        /* \"#utility.yul\":807:813   */\n      dup4\n        /* \"#utility.yul\":803:820   */\n      add\n        /* \"#utility.yul\":799:826   */\n      slt\n        /* \"#utility.yul\":789:911   */\n      tag_328\n      jumpi\n        /* \"#utility.yul\":830:909   */\n      tag_329\n      tag_330\n      jump\t// in\n    tag_329:\n        /* \"#utility.yul\":789:911   */\n    tag_328:\n        /* \"#utility.yul\":934:938   */\n      0x02\n        /* \"#utility.yul\":956:1037   */\n      tag_331\n        /* \"#utility.yul\":1033:1036   */\n      dup5\n        /* \"#utility.yul\":1025:1031   */\n      dup3\n        /* \"#utility.yul\":1017:1023   */\n      dup6\n        /* \"#utility.yul\":956:1037   */\n      tag_312\n      jump\t// in\n    tag_331:\n        /* \"#utility.yul\":947:1037   */\n      swap2\n      pop\n        /* \"#utility.yul\":779:1043   */\n      pop\n        /* \"#utility.yul\":704:1043   */\n      swap3\n      swap2\n      pop\n      pop\n      jump\t// out\n        /* \"#utility.yul\":1049:1188   */\n    tag_325:\n        /* \"#utility.yul\":1095:1100   */\n      0x00\n        /* \"#utility.yul\":1133:1139   */\n      dup2\n        /* \"#utility.yul\":1120:1140   */\n      calldataload\n        /* \"#utility.yul\":1111:1140   */\n      swap1\n      pop\n        /* \"#utility.yul\":1149:1182   */\n      tag_333\n        /* \"#utility.yul\":1176:1181   */\n      dup2\n        /* \"#utility.yul\":1149:1182   */\n      tag_334\n      jump\t// in\n    tag_333:\n        /* \"#utility.yul\":1049:1188   */\n      swap3\n      swap2\n      pop\n      pop\n      jump\t// out\n        /* \"#utility.yul\":1194:1337   */\n    tag_335:\n        /* \"#utility.yul\":1251:1256   */\n      0x00\n        /* \"#utility.yul\":1282:1288   */\n      dup2\n        /* \"#utility.yul\":1276:1289   */\n      mload\n        /* \"#utility.yul\":1267:1289   */\n      swap1\n      pop\n        /* \"#utility.yul\":1298:1331   */\n      tag_337\n        /* \"#utility.yul\":1325:1330   */\n      dup2\n        /* \"#utility.yul\":1298:1331   */\n      tag_334\n      jump\t// in\n    tag_337:\n        /* \"#utility.yul\":1194:1337   */\n      swap3\n      swap2\n      pop\n      pop\n      jump\t// out\n        /* \"#utility.yul\":1368:2351   */\n    tag_338:\n        /* \"#utility.yul\":1443:1448   */\n      0x00\n        /* \"#utility.yul\":1487:1493   */\n      0x0100\n        /* \"#utility.yul\":1475:1484   */\n      dup3\n        /* \"#utility.yul\":1470:1473   */\n      dup5\n        /* \"#utility.yul\":1466:1485   */\n      sub\n        /* \"#utility.yul\":1462:1494   */\n      slt\n        /* \"#utility.yul\":1459:1578   */\n      iszero\n      tag_340\n      jumpi\n        /* \"#utility.yul\":1497:1576   */\n      tag_341\n      tag_342\n      jump\t// in\n    tag_341:\n        /* \"#utility.yul\":1459:1578   */\n    tag_340:\n        /* \"#utility.yul\":1596:1617   */\n      tag_343\n        /* \"#utility.yul\":1612:1616   */\n      0x80\n        /* \"#utility.yul\":1596:1617   */\n      tag_317\n      jump\t// in\n    tag_343:\n        /* \"#utility.yul\":1587:1617   */\n      swap1\n      pop\n        /* \"#utility.yul\":1674:1675   */\n      0x00\n        /* \"#utility.yul\":1714:1786   */\n      tag_344\n        /* \"#utility.yul\":1782:1785   */\n      dup5\n        /* \"#utility.yul\":1773:1779   */\n      dup3\n        /* \"#utility.yul\":1762:1771   */\n      dup6\n        /* \"#utility.yul\":1758:1780   */\n      add\n        /* \"#utility.yul\":1714:1786   */\n      tag_326\n      jump\t// in\n    tag_344:\n        /* \"#utility.yul\":1707:1711   */\n      0x00\n        /* \"#utility.yul\":1700:1705   */\n      dup4\n        /* \"#utility.yul\":1696:1712   */\n      add\n        /* \"#utility.yul\":1689:1787   */\n      mstore\n        /* \"#utility.yul\":1627:1798   */\n      pop\n        /* \"#utility.yul\":1855:1857   */\n      0x40\n        /* \"#utility.yul\":1896:1968   */\n      tag_345\n        /* \"#utility.yul\":1964:1967   */\n      dup5\n        /* \"#utility.yul\":1955:1961   */\n      dup3\n        /* \"#utility.yul\":1944:1953   */\n      dup6\n        /* \"#utility.yul\":1940:1962   */\n      add\n        /* \"#utility.yul\":1896:1968   */\n      tag_326\n      jump\t// in\n    tag_345:\n        /* \"#utility.yul\":1889:1893   */\n      0x20\n        /* \"#utility.yul\":1882:1887   */\n      dup4\n        /* \"#utility.yul\":1878:1894   */\n      add\n        /* \"#utility.yul\":1871:1969   */\n      mstore\n        /* \"#utility.yul\":1808:1980   */\n      pop\n        /* \"#utility.yul\":2036:2039   */\n      0x80\n        /* \"#utility.yul\":2078:2150   */\n      tag_346\n        /* \"#utility.yul\":2146:2149   */\n      dup5\n        /* \"#utility.yul\":2137:2143   */\n      dup3\n        /* \"#utility.yul\":2126:2135   */\n      dup6\n        /* \"#utility.yul\":2122:2144   */\n      add\n        /* \"#utility.yul\":2078:2150   */\n      tag_326\n      jump\t// in\n    tag_346:\n        /* \"#utility.yul\":2071:2075   */\n      0x40\n        /* \"#utility.yul\":2064:2069   */\n      dup4\n        /* \"#utility.yul\":2060:2076   */\n      add\n        /* \"#utility.yul\":2053:2151   */\n      mstore\n        /* \"#utility.yul\":1990:2162   */\n      pop\n        /* \"#utility.yul\":2218:2221   */\n      0xc0\n        /* \"#utility.yul\":2260:2332   */\n      tag_347\n        /* \"#utility.yul\":2328:2331   */\n      dup5\n        /* \"#utility.yul\":2319:2325   */\n      dup3\n        /* \"#utility.yul\":2308:2317   */\n      dup6\n        /* \"#utility.yul\":2304:2326   */\n      add\n        /* \"#utility.yul\":2260:2332   */\n      tag_326\n      jump\t// in\n    tag_347:\n        /* \"#utility.yul\":2253:2257   */\n      0x60\n        /* \"#utility.yul\":2246:2251   */\n      dup4\n        /* \"#utility.yul\":2242:2258   */\n      add\n        /* \"#utility.yul\":2235:2333   */\n      mstore\n        /* \"#utility.yul\":2172:2344   */\n      pop\n        /* \"#utility.yul\":1368:2351   */\n      swap3\n      swap2\n      pop\n      pop\n      jump\t// out\n        /* \"#utility.yul\":2382:3168   */\n    tag_348:\n        /* \"#utility.yul\":2457:2462   */\n      0x00\n        /* \"#utility.yul\":2501:2507   */\n      0x0220\n        /* \"#utility.yul\":2489:2498   */\n      dup3\n        /* \"#utility.yul\":2484:2487   */\n      dup5\n        /* \"#utility.yul\":2480:2499   */\n      sub\n        /* \"#utility.yul\":2476:2508   */\n      slt\n        /* \"#utility.yul\":2473:2592   */\n      iszero\n      tag_350\n      jumpi\n        /* \"#utility.yul\":2511:2590   */\n      tag_351\n      tag_342\n      jump\t// in\n    tag_351:\n        /* \"#utility.yul\":2473:2592   */\n    tag_350:\n        /* \"#utility.yul\":2610:2631   */\n      tag_352\n        /* \"#utility.yul\":2626:2630   */\n      0x60\n        /* \"#utility.yul\":2610:2631   */\n      tag_317\n      jump\t// in\n    tag_352:\n        /* \"#utility.yul\":2601:2631   */\n      swap1\n      pop\n        /* \"#utility.yul\":2687:2688   */\n      0x00\n        /* \"#utility.yul\":2727:2776   */\n      tag_353\n        /* \"#utility.yul\":2772:2775   */\n      dup5\n        /* \"#utility.yul\":2763:2769   */\n      dup3\n        /* \"#utility.yul\":2752:2761   */\n      dup6\n        /* \"#utility.yul\":2748:2770   */\n      add\n        /* \"#utility.yul\":2727:2776   */\n      tag_325\n      jump\t// in\n    tag_353:\n        /* \"#utility.yul\":2720:2724   */\n      0x00\n        /* \"#utility.yul\":2713:2718   */\n      dup4\n        /* \"#utility.yul\":2709:2725   */\n      add\n        /* \"#utility.yul\":2702:2777   */\n      mstore\n        /* \"#utility.yul\":2641:2788   */\n      pop\n        /* \"#utility.yul\":2846:2848   */\n      0x20\n        /* \"#utility.yul\":2887:2962   */\n      tag_354\n        /* \"#utility.yul\":2958:2961   */\n      dup5\n        /* \"#utility.yul\":2949:2955   */\n      dup3\n        /* \"#utility.yul\":2938:2947   */\n      dup6\n        /* \"#utility.yul\":2934:2956   */\n      add\n        /* \"#utility.yul\":2887:2962   */\n      tag_338\n      jump\t// in\n    tag_354:\n        /* \"#utility.yul\":2880:2884   */\n      0x20\n        /* \"#utility.yul\":2873:2878   */\n      dup4\n        /* \"#utility.yul\":2869:2885   */\n      add\n        /* \"#utility.yul\":2862:2963   */\n      mstore\n        /* \"#utility.yul\":2798:2974   */\n      pop\n        /* \"#utility.yul\":3032:3035   */\n      0x0120\n        /* \"#utility.yul\":3074:3149   */\n      tag_355\n        /* \"#utility.yul\":3145:3148   */\n      dup5\n        /* \"#utility.yul\":3136:3142   */\n      dup3\n        /* \"#utility.yul\":3125:3134   */\n      dup6\n        /* \"#utility.yul\":3121:3143   */\n      add\n        /* \"#utility.yul\":3074:3149   */\n      tag_338\n      jump\t// in\n    tag_355:\n        /* \"#utility.yul\":3067:3071   */\n      0x40\n        /* \"#utility.yul\":3060:3065   */\n      dup4\n        /* \"#utility.yul\":3056:3072   */\n      add\n        /* \"#utility.yul\":3049:3150   */\n      mstore\n        /* \"#utility.yul\":2984:3161   */\n      pop\n        /* \"#utility.yul\":2382:3168   */\n      swap3\n      swap2\n      pop\n      pop\n      jump\t// out\n        /* \"#utility.yul\":3198:4362   */\n    tag_356:\n        /* \"#utility.yul\":3272:3277   */\n      0x00\n        /* \"#utility.yul\":3316:3322   */\n      0x0140\n        /* \"#utility.yul\":3304:3313   */\n      dup3\n        /* \"#utility.yul\":3299:3302   */\n      dup5\n        /* \"#utility.yul\":3295:3314   */\n      sub\n        /* \"#utility.yul\":3291:3323   */\n      slt\n        /* \"#utility.yul\":3288:3407   */\n      iszero\n      tag_358\n      jumpi\n        /* \"#utility.yul\":3326:3405   */\n      tag_359\n      tag_342\n      jump\t// in\n    tag_359:\n        /* \"#utility.yul\":3288:3407   */\n    tag_358:\n        /* \"#utility.yul\":3425:3446   */\n      tag_360\n        /* \"#utility.yul\":3441:3445   */\n      0xa0\n        /* \"#utility.yul\":3425:3446   */\n      tag_317\n      jump\t// in\n    tag_360:\n        /* \"#utility.yul\":3416:3446   */\n      swap1\n      pop\n        /* \"#utility.yul\":3503:3504   */\n      0x00\n        /* \"#utility.yul\":3543:3615   */\n      tag_361\n        /* \"#utility.yul\":3611:3614   */\n      dup5\n        /* \"#utility.yul\":3602:3608   */\n      dup3\n        /* \"#utility.yul\":3591:3600   */\n      dup6\n        /* \"#utility.yul\":3587:3609   */\n      add\n        /* \"#utility.yul\":3543:3615   */\n      tag_326\n      jump\t// in\n    tag_361:\n        /* \"#utility.yul\":3536:3540   */\n      0x00\n        /* \"#utility.yul\":3529:3534   */\n      dup4\n        /* \"#utility.yul\":3525:3541   */\n      add\n        /* \"#utility.yul\":3518:3616   */\n      mstore\n        /* \"#utility.yul\":3456:3627   */\n      pop\n        /* \"#utility.yul\":3684:3686   */\n      0x40\n        /* \"#utility.yul\":3725:3797   */\n      tag_362\n        /* \"#utility.yul\":3793:3796   */\n      dup5\n        /* \"#utility.yul\":3784:3790   */\n      dup3\n        /* \"#utility.yul\":3773:3782   */\n      dup6\n        /* \"#utility.yul\":3769:3791   */\n      add\n        /* \"#utility.yul\":3725:3797   */\n      tag_326\n      jump\t// in\n    tag_362:\n        /* \"#utility.yul\":3718:3722   */\n      0x20\n        /* \"#utility.yul\":3711:3716   */\n      dup4\n        /* \"#utility.yul\":3707:3723   */\n      add\n        /* \"#utility.yul\":3700:3798   */\n      mstore\n        /* \"#utility.yul\":3637:3809   */\n      pop\n        /* \"#utility.yul\":3865:3868   */\n      0x80\n        /* \"#utility.yul\":3907:3979   */\n      tag_363\n        /* \"#utility.yul\":3975:3978   */\n      dup5\n        /* \"#utility.yul\":3966:3972   */\n      dup3\n        /* \"#utility.yul\":3955:3964   */\n      dup6\n        /* \"#utility.yul\":3951:3973   */\n      add\n        /* \"#utility.yul\":3907:3979   */\n      tag_326\n      jump\t// in\n    tag_363:\n        /* \"#utility.yul\":3900:3904   */\n      0x40\n        /* \"#utility.yul\":3893:3898   */\n      dup4\n        /* \"#utility.yul\":3889:3905   */\n      add\n        /* \"#utility.yul\":3882:3980   */\n      mstore\n        /* \"#utility.yul\":3819:3991   */\n      pop\n        /* \"#utility.yul\":4047:4050   */\n      0xc0\n        /* \"#utility.yul\":4089:4161   */\n      tag_364\n        /* \"#utility.yul\":4157:4160   */\n      dup5\n        /* \"#utility.yul\":4148:4154   */\n      dup3\n        /* \"#utility.yul\":4137:4146   */\n      dup6\n        /* \"#utility.yul\":4133:4155   */\n      add\n        /* \"#utility.yul\":4089:4161   */\n      tag_326\n      jump\t// in\n    tag_364:\n        /* \"#utility.yul\":4082:4086   */\n      0x60\n        /* \"#utility.yul\":4075:4080   */\n      dup4\n        /* \"#utility.yul\":4071:4087   */\n      add\n        /* \"#utility.yul\":4064:4162   */\n      mstore\n        /* \"#utility.yul\":4001:4173   */\n      pop\n        /* \"#utility.yul\":4229:4232   */\n      0x0100\n        /* \"#utility.yul\":4271:4343   */\n      tag_365\n        /* \"#utility.yul\":4339:4342   */\n      dup5\n        /* \"#utility.yul\":4330:4336   */\n      dup3\n        /* \"#utility.yul\":4319:4328   */\n      dup6\n        /* \"#utility.yul\":4315:4337   */\n      add\n        /* \"#utility.yul\":4271:4343   */\n      tag_326\n      jump\t// in\n    tag_365:\n        /* \"#utility.yul\":4264:4268   */\n      0x80\n        /* \"#utility.yul\":4257:4262   */\n      dup4\n        /* \"#utility.yul\":4253:4269   */\n      add\n        /* \"#utility.yul\":4246:4344   */\n      mstore\n        /* \"#utility.yul\":4183:4355   */\n      pop\n        /* \"#utility.yul\":3198:4362   */\n      swap3\n      swap2\n      pop\n      pop\n      jump\t// out\n        /* \"#utility.yul\":4368:4507   */\n    tag_366:\n        /* \"#utility.yul\":4414:4419   */\n      0x00\n        /* \"#utility.yul\":4452:4458   */\n      dup2\n        /* \"#utility.yul\":4439:4459   */\n      calldataload\n        /* \"#utility.yul\":4430:4459   */\n      swap1\n      pop\n        /* \"#utility.yul\":4468:4501   */\n      tag_368\n        /* \"#utility.yul\":4495:4500   */\n      dup2\n        /* \"#utility.yul\":4468:4501   */\n      tag_369\n      jump\t// in\n    tag_368:\n        /* \"#utility.yul\":4368:4507   */\n      swap3\n      swap2\n      pop\n      pop\n      jump\t// out\n        /* \"#utility.yul\":4513:4648   */\n    tag_370:\n        /* \"#utility.yul\":4557:4562   */\n      0x00\n        /* \"#utility.yul\":4595:4601   */\n      dup2\n        /* \"#utility.yul\":4582:4602   */\n      calldataload\n        /* \"#utility.yul\":4573:4602   */\n      swap1\n      pop\n        /* \"#utility.yul\":4611:4642   */\n      tag_372\n        /* \"#utility.yul\":4636:4641   */\n      dup2\n        /* \"#utility.yul\":4611:4642   */\n      tag_373\n      jump\t// in\n    tag_372:\n        /* \"#utility.yul\":4513:4648   */\n      swap3\n      swap2\n      pop\n      pop\n      jump\t// out\n        /* \"#utility.yul\":4654:5221   */\n    tag_70:\n        /* \"#utility.yul\":4768:4774   */\n      0x00\n        /* \"#utility.yul\":4776:4782   */\n      dup1\n        /* \"#utility.yul\":4825:4828   */\n      0x80\n        /* \"#utility.yul\":4813:4822   */\n      dup4\n        /* \"#utility.yul\":4804:4811   */\n      dup6\n        /* \"#utility.yul\":4800:4823   */\n      sub\n        /* \"#utility.yul\":4796:4829   */\n      slt\n        /* \"#utility.yul\":4793:4913   */\n      iszero\n      tag_375\n      jumpi\n        /* \"#utility.yul\":4832:4911   */\n      tag_376\n      tag_377\n      jump\t// in\n    tag_376:\n        /* \"#utility.yul\":4793:4913   */\n    tag_375:\n        /* \"#utility.yul\":4952:4953   */\n      0x00\n        /* \"#utility.yul\":4977:5053   */\n      tag_378\n        /* \"#utility.yul\":5045:5052   */\n      dup6\n        /* \"#utility.yul\":5036:5042   */\n      dup3\n        /* \"#utility.yul\":5025:5034   */\n      dup7\n        /* \"#utility.yul\":5021:5043   */\n      add\n        /* \"#utility.yul\":4977:5053   */\n      tag_326\n      jump\t// in\n    tag_378:\n        /* \"#utility.yul\":4967:5053   */\n      swap3\n      pop\n        /* \"#utility.yul\":4923:5063   */\n      pop\n        /* \"#utility.yul\":5102:5104   */\n      0x40\n        /* \"#utility.yul\":5128:5204   */\n      tag_379\n        /* \"#utility.yul\":5196:5203   */\n      dup6\n        /* \"#utility.yul\":5187:5193   */\n      dup3\n        /* \"#utility.yul\":5176:5185   */\n      dup7\n        /* \"#utility.yul\":5172:5194   */\n      add\n        /* \"#utility.yul\":5128:5204   */\n      tag_326\n      jump\t// in\n    tag_379:\n        /* \"#utility.yul\":5118:5204   */\n      swap2\n      pop\n        /* \"#utility.yul\":5073:5214   */\n      pop\n        /* \"#utility.yul\":4654:5221   */\n      swap3\n      pop\n      swap3\n      swap1\n      pop\n      jump\t// out\n        /* \"#utility.yul\":5227:5747   */\n    tag_18:\n        /* \"#utility.yul\":5318:5324   */\n      0x00\n        /* \"#utility.yul\":5326:5332   */\n      dup1\n        /* \"#utility.yul\":5375:5377   */\n      0x60\n        /* \"#utility.yul\":5363:5372   */\n      dup4\n        /* \"#utility.yul\":5354:5361   */\n      dup6\n        /* \"#utility.yul\":5350:5373   */\n      sub\n        /* \"#utility.yul\":5346:5378   */\n      slt\n        /* \"#utility.yul\":5343:5462   */\n      iszero\n      tag_381\n      jumpi\n        /* \"#utility.yul\":5381:5460   */\n      tag_382\n      tag_377\n      jump\t// in\n    tag_382:\n        /* \"#utility.yul\":5343:5462   */\n    tag_381:\n        /* \"#utility.yul\":5501:5502   */\n      0x00\n        /* \"#utility.yul\":5526:5602   */\n      tag_383\n        /* \"#utility.yul\":5594:5601   */\n      dup6\n        /* \"#utility.yul\":5585:5591   */\n      dup3\n        /* \"#utility.yul\":5574:5583   */\n      dup7\n        /* \"#utility.yul\":5570:5592   */\n      add\n        /* \"#utility.yul\":5526:5602   */\n      tag_326\n      jump\t// in\n    tag_383:\n        /* \"#utility.yul\":5516:5602   */\n      swap3\n      pop\n        /* \"#utility.yul\":5472:5612   */\n      pop\n        /* \"#utility.yul\":5651:5653   */\n      0x40\n        /* \"#utility.yul\":5677:5730   */\n      tag_384\n        /* \"#utility.yul\":5722:5729   */\n      dup6\n        /* \"#utility.yul\":5713:5719   */\n      dup3\n        /* \"#utility.yul\":5702:5711   */\n      dup7\n        /* \"#utility.yul\":5698:5720   */\n      add\n        /* \"#utility.yul\":5677:5730   */\n      tag_325\n      jump\t// in\n    tag_384:\n        /* \"#utility.yul\":5667:5730   */\n      swap2\n      pop\n        /* \"#utility.yul\":5622:5740   */\n      pop\n        /* \"#utility.yul\":5227:5747   */\n      swap3\n      pop\n      swap3\n      swap1\n      pop\n      jump\t// out\n        /* \"#utility.yul\":5753:6415   */\n    tag_36:\n        /* \"#utility.yul\":5851:5857   */\n      0x00\n        /* \"#utility.yul\":5859:5865   */\n      dup1\n        /* \"#utility.yul\":5867:5873   */\n      0x00\n        /* \"#utility.yul\":5916:5919   */\n      0x80\n        /* \"#utility.yul\":5904:5913   */\n      dup5\n        /* \"#utility.yul\":5895:5902   */\n      dup7\n        /* \"#utility.yul\":5891:5914   */\n      sub\n        /* \"#utility.yul\":5887:5920   */\n      slt\n        /* \"#utility.yul\":5884:6004   */\n      iszero\n      tag_386\n      jumpi\n        /* \"#utility.yul\":5923:6002   */\n      tag_387\n      tag_377\n      jump\t// in\n    tag_387:\n        /* \"#utility.yul\":5884:6004   */\n    tag_386:\n        /* \"#utility.yul\":6043:6044   */\n      0x00\n        /* \"#utility.yul\":6068:6144   */\n      tag_388\n        /* \"#utility.yul\":6136:6143   */\n      dup7\n        /* \"#utility.yul\":6127:6133   */\n      dup3\n        /* \"#utility.yul\":6116:6125   */\n      dup8\n        /* \"#utility.yul\":6112:6134   */\n      add\n        /* \"#utility.yul\":6068:6144   */\n      tag_326\n      jump\t// in\n    tag_388:\n        /* \"#utility.yul\":6058:6144   */\n      swap4\n      pop\n        /* \"#utility.yul\":6014:6154   */\n      pop\n        /* \"#utility.yul\":6193:6195   */\n      0x40\n        /* \"#utility.yul\":6219:6272   */\n      tag_389\n        /* \"#utility.yul\":6264:6271   */\n      dup7\n        /* \"#utility.yul\":6255:6261   */\n      dup3\n        /* \"#utility.yul\":6244:6253   */\n      dup8\n        /* \"#utility.yul\":6240:6262   */\n      add\n        /* \"#utility.yul\":6219:6272   */\n      tag_325\n      jump\t// in\n    tag_389:\n        /* \"#utility.yul\":6209:6272   */\n      swap3\n      pop\n        /* \"#utility.yul\":6164:6282   */\n      pop\n        /* \"#utility.yul\":6321:6323   */\n      0x60\n        /* \"#utility.yul\":6347:6398   */\n      tag_390\n        /* \"#utility.yul\":6390:6397   */\n      dup7\n        /* \"#utility.yul\":6381:6387   */\n      dup3\n        /* \"#utility.yul\":6370:6379   */\n      dup8\n        /* \"#utility.yul\":6366:6388   */\n      add\n        /* \"#utility.yul\":6347:6398   */\n      tag_370\n      jump\t// in\n    tag_390:\n        /* \"#utility.yul\":6337:6398   */\n      swap2\n      pop\n        /* \"#utility.yul\":6292:6408   */\n      pop\n        /* \"#utility.yul\":5753:6415   */\n      swap3\n      pop\n      swap3\n      pop\n      swap3\n      jump\t// out\n        /* \"#utility.yul\":6421:6772   */\n    tag_125:\n        /* \"#utility.yul\":6491:6497   */\n      0x00\n        /* \"#utility.yul\":6540:6542   */\n      0x20\n        /* \"#utility.yul\":6528:6537   */\n      dup3\n        /* \"#utility.yul\":6519:6526   */\n      dup5\n        /* \"#utility.yul\":6515:6538   */\n      sub\n        /* \"#utility.yul\":6511:6543   */\n      slt\n        /* \"#utility.yul\":6508:6627   */\n      iszero\n      tag_392\n      jumpi\n        /* \"#utility.yul\":6546:6625   */\n      tag_393\n      tag_377\n      jump\t// in\n    tag_393:\n        /* \"#utility.yul\":6508:6627   */\n    tag_392:\n        /* \"#utility.yul\":6666:6667   */\n      0x00\n        /* \"#utility.yul\":6691:6755   */\n      tag_394\n        /* \"#utility.yul\":6747:6754   */\n      dup5\n        /* \"#utility.yul\":6738:6744   */\n      dup3\n        /* \"#utility.yul\":6727:6736   */\n      dup6\n        /* \"#utility.yul\":6723:6745   */\n      add\n        /* \"#utility.yul\":6691:6755   */\n      tag_335\n      jump\t// in\n    tag_394:\n        /* \"#utility.yul\":6681:6755   */\n      swap2\n      pop\n        /* \"#utility.yul\":6637:6765   */\n      pop\n        /* \"#utility.yul\":6421:6772   */\n      swap3\n      swap2\n      pop\n      pop\n      jump\t// out\n        /* \"#utility.yul\":6778:7252   */\n    tag_52:\n        /* \"#utility.yul\":6846:6852   */\n      0x00\n        /* \"#utility.yul\":6854:6860   */\n      dup1\n        /* \"#utility.yul\":6903:6905   */\n      0x40\n        /* \"#utility.yul\":6891:6900   */\n      dup4\n        /* \"#utility.yul\":6882:6889   */\n      dup6\n        /* \"#utility.yul\":6878:6901   */\n      sub\n        /* \"#utility.yul\":6874:6906   */\n      slt\n        /* \"#utility.yul\":6871:6990   */\n      iszero\n      tag_396\n      jumpi\n        /* \"#utility.yul\":6909:6988   */\n      tag_397\n      tag_377\n      jump\t// in\n    tag_397:\n        /* \"#utility.yul\":6871:6990   */\n    tag_396:\n        /* \"#utility.yul\":7029:7030   */\n      0x00\n        /* \"#utility.yul\":7054:7107   */\n      tag_398\n        /* \"#utility.yul\":7099:7106   */\n      dup6\n        /* \"#utility.yul\":7090:7096   */\n      dup3\n        /* \"#utility.yul\":7079:7088   */\n      dup7\n        /* \"#utility.yul\":7075:7097   */\n      add\n        /* \"#utility.yul\":7054:7107   */\n      tag_325\n      jump\t// in\n    tag_398:\n        /* \"#utility.yul\":7044:7107   */\n      swap3\n      pop\n        /* \"#utility.yul\":7000:7117   */\n      pop\n        /* \"#utility.yul\":7156:7158   */\n      0x20\n        /* \"#utility.yul\":7182:7235   */\n      tag_399\n        /* \"#utility.yul\":7227:7234   */\n      dup6\n        /* \"#utility.yul\":7218:7224   */\n      dup3\n        /* \"#utility.yul\":7207:7216   */\n      dup7\n        /* \"#utility.yul\":7203:7225   */\n      add\n        /* \"#utility.yul\":7182:7235   */\n      tag_366\n      jump\t// in\n    tag_399:\n        /* \"#utility.yul\":7172:7235   */\n      swap2\n      pop\n        /* \"#utility.yul\":7127:7245   */\n      pop\n        /* \"#utility.yul\":6778:7252   */\n      swap3\n      pop\n      swap3\n      swap1\n      pop\n      jump\t// out\n        /* \"#utility.yul\":7258:7640   */\n    tag_75:\n        /* \"#utility.yul\":7343:7349   */\n      0x00\n        /* \"#utility.yul\":7392:7395   */\n      0x0220\n        /* \"#utility.yul\":7380:7389   */\n      dup3\n        /* \"#utility.yul\":7371:7378   */\n      dup5\n        /* \"#utility.yul\":7367:7390   */\n      sub\n        /* \"#utility.yul\":7363:7396   */\n      slt\n        /* \"#utility.yul\":7360:7480   */\n      iszero\n      tag_401\n      jumpi\n        /* \"#utility.yul\":7399:7478   */\n      tag_402\n      tag_377\n      jump\t// in\n    tag_402:\n        /* \"#utility.yul\":7360:7480   */\n    tag_401:\n        /* \"#utility.yul\":7519:7520   */\n      0x00\n        /* \"#utility.yul\":7544:7623   */\n      tag_403\n        /* \"#utility.yul\":7615:7622   */\n      dup5\n        /* \"#utility.yul\":7606:7612   */\n      dup3\n        /* \"#utility.yul\":7595:7604   */\n      dup6\n        /* \"#utility.yul\":7591:7613   */\n      add\n        /* \"#utility.yul\":7544:7623   */\n      tag_348\n      jump\t// in\n    tag_403:\n        /* \"#utility.yul\":7534:7623   */\n      swap2\n      pop\n        /* \"#utility.yul\":7490:7633   */\n      pop\n        /* \"#utility.yul\":7258:7640   */\n      swap3\n      swap2\n      pop\n      pop\n      jump\t// out\n        /* \"#utility.yul\":7646:8026   */\n    tag_62:\n        /* \"#utility.yul\":7730:7736   */\n      0x00\n        /* \"#utility.yul\":7779:7782   */\n      0x0140\n        /* \"#utility.yul\":7767:7776   */\n      dup3\n        /* \"#utility.yul\":7758:7765   */\n      dup5\n        /* \"#utility.yul\":7754:7777   */\n      sub\n        /* \"#utility.yul\":7750:7783   */\n      slt\n        /* \"#utility.yul\":7747:7867   */\n      iszero\n      tag_405\n      jumpi\n        /* \"#utility.yul\":7786:7865   */\n      tag_406\n      tag_377\n      jump\t// in\n    tag_406:\n        /* \"#utility.yul\":7747:7867   */\n    tag_405:\n        /* \"#utility.yul\":7906:7907   */\n      0x00\n        /* \"#utility.yul\":7931:8009   */\n      tag_407\n        /* \"#utility.yul\":8001:8008   */\n      dup5\n        /* \"#utility.yul\":7992:7998   */\n      dup3\n        /* \"#utility.yul\":7981:7990   */\n      dup6\n        /* \"#utility.yul\":7977:7999   */\n      add\n        /* \"#utility.yul\":7931:8009   */\n      tag_356\n      jump\t// in\n    tag_407:\n        /* \"#utility.yul\":7921:8009   */\n      swap2\n      pop\n        /* \"#utility.yul\":7877:8019   */\n      pop\n        /* \"#utility.yul\":7646:8026   */\n      swap3\n      swap2\n      pop\n      pop\n      jump\t// out\n        /* \"#utility.yul\":8032:8361   */\n    tag_57:\n        /* \"#utility.yul\":8091:8097   */\n      0x00\n        /* \"#utility.yul\":8140:8142   */\n      0x20\n        /* \"#utility.yul\":8128:8137   */\n      dup3\n        /* \"#utility.yul\":8119:8126   */\n      dup5\n        /* \"#utility.yul\":8115:8138   */\n      sub\n        /* \"#utility.yul\":8111:8143   */\n      slt\n        /* \"#utility.yul\":8108:8227   */\n      iszero\n      tag_409\n      jumpi\n        /* \"#utility.yul\":8146:8225   */\n      tag_410\n      tag_377\n      jump\t// in\n    tag_410:\n        /* \"#utility.yul\":8108:8227   */\n    tag_409:\n        /* \"#utility.yul\":8266:8267   */\n      0x00\n        /* \"#utility.yul\":8291:8344   */\n      tag_411\n        /* \"#utility.yul\":8336:8343   */\n      dup5\n        /* \"#utility.yul\":8327:8333   */\n      dup3\n        /* \"#utility.yul\":8316:8325   */\n      dup6\n        /* \"#utility.yul\":8312:8334   */\n      add\n        /* \"#utility.yul\":8291:8344   */\n      tag_366\n      jump\t// in\n    tag_411:\n        /* \"#utility.yul\":8281:8344   */\n      swap2\n      pop\n        /* \"#utility.yul\":8237:8354   */\n      pop\n        /* \"#utility.yul\":8032:8361   */\n      swap3\n      swap2\n      pop\n      pop\n      jump\t// out\n        /* \"#utility.yul\":8367:8986   */\n    tag_46:\n        /* \"#utility.yul\":8444:8450   */\n      0x00\n        /* \"#utility.yul\":8452:8458   */\n      dup1\n        /* \"#utility.yul\":8460:8466   */\n      0x00\n        /* \"#utility.yul\":8509:8511   */\n      0x60\n        /* \"#utility.yul\":8497:8506   */\n      dup5\n        /* \"#utility.yul\":8488:8495   */\n      dup7\n        /* \"#utility.yul\":8484:8507   */\n      sub\n        /* \"#utility.yul\":8480:8512   */\n      slt\n        /* \"#utility.yul\":8477:8596   */\n      iszero\n      tag_413\n      jumpi\n        /* \"#utility.yul\":8515:8594   */\n      tag_414\n      tag_377\n      jump\t// in\n    tag_414:\n        /* \"#utility.yul\":8477:8596   */\n    tag_413:\n        /* \"#utility.yul\":8635:8636   */\n      0x00\n        /* \"#utility.yul\":8660:8713   */\n      tag_415\n        /* \"#utility.yul\":8705:8712   */\n      dup7\n        /* \"#utility.yul\":8696:8702   */\n      dup3\n        /* \"#utility.yul\":8685:8694   */\n      dup8\n        /* \"#utility.yul\":8681:8703   */\n      add\n        /* \"#utility.yul\":8660:8713   */\n      tag_366\n      jump\t// in\n    tag_415:\n        /* \"#utility.yul\":8650:8713   */\n      swap4\n      pop\n        /* \"#utility.yul\":8606:8723   */\n      pop\n        /* \"#utility.yul\":8762:8764   */\n      0x20\n        /* \"#utility.yul\":8788:8841   */\n      tag_416\n        /* \"#utility.yul\":8833:8840   */\n      dup7\n        /* \"#utility.yul\":8824:8830   */\n      dup3\n        /* \"#utility.yul\":8813:8822   */\n      dup8\n        /* \"#utility.yul\":8809:8831   */\n      add\n        /* \"#utility.yul\":8788:8841   */\n      tag_366\n      jump\t// in\n    tag_416:\n        /* \"#utility.yul\":8778:8841   */\n      swap3\n      pop\n        /* \"#utility.yul\":8733:8851   */\n      pop\n        /* \"#utility.yul\":8890:8892   */\n      0x40\n        /* \"#utility.yul\":8916:8969   */\n      tag_417\n        /* \"#utility.yul\":8961:8968   */\n      dup7\n        /* \"#utility.yul\":8952:8958   */\n      dup3\n        /* \"#utility.yul\":8941:8950   */\n      dup8\n        /* \"#utility.yul\":8937:8959   */\n      add\n        /* \"#utility.yul\":8916:8969   */\n      tag_366\n      jump\t// in\n    tag_417:\n        /* \"#utility.yul\":8906:8969   */\n      swap2\n      pop\n        /* \"#utility.yul\":8861:8979   */\n      pop\n        /* \"#utility.yul\":8367:8986   */\n      swap3\n      pop\n      swap3\n      pop\n      swap3\n      jump\t// out\n        /* \"#utility.yul\":8992:9462   */\n    tag_24:\n        /* \"#utility.yul\":9058:9064   */\n      0x00\n        /* \"#utility.yul\":9066:9072   */\n      dup1\n        /* \"#utility.yul\":9115:9117   */\n      0x40\n        /* \"#utility.yul\":9103:9112   */\n      dup4\n        /* \"#utility.yul\":9094:9101   */\n      dup6\n        /* \"#utility.yul\":9090:9113   */\n      sub\n        /* \"#utility.yul\":9086:9118   */\n      slt\n        /* \"#utility.yul\":9083:9202   */\n      iszero\n      tag_419\n      jumpi\n        /* \"#utility.yul\":9121:9200   */\n      tag_420\n      tag_377\n      jump\t// in\n    tag_420:\n        /* \"#utility.yul\":9083:9202   */\n    tag_419:\n        /* \"#utility.yul\":9241:9242   */\n      0x00\n        /* \"#utility.yul\":9266:9317   */\n      tag_421\n        /* \"#utility.yul\":9309:9316   */\n      dup6\n        /* \"#utility.yul\":9300:9306   */\n      dup3\n        /* \"#utility.yul\":9289:9298   */\n      dup7\n        /* \"#utility.yul\":9285:9307   */\n      add\n        /* \"#utility.yul\":9266:9317   */\n      tag_370\n      jump\t// in\n    tag_421:\n        /* \"#utility.yul\":9256:9317   */\n      swap3\n      pop\n        /* \"#utility.yul\":9212:9327   */\n      pop\n        /* \"#utility.yul\":9366:9368   */\n      0x20\n        /* \"#utility.yul\":9392:9445   */\n      tag_422\n        /* \"#utility.yul\":9437:9444   */\n      dup6\n        /* \"#utility.yul\":9428:9434   */\n      dup3\n        /* \"#utility.yul\":9417:9426   */\n      dup7\n        /* \"#utility.yul\":9413:9435   */\n      add\n        /* \"#utility.yul\":9392:9445   */\n      tag_325\n      jump\t// in\n    tag_422:\n        /* \"#utility.yul\":9382:9445   */\n      swap2\n      pop\n        /* \"#utility.yul\":9337:9455   */\n      pop\n        /* \"#utility.yul\":8992:9462   */\n      swap3\n      pop\n      swap3\n      swap1\n      pop\n      jump\t// out\n        /* \"#utility.yul\":9468:10229   */\n    tag_30:\n        /* \"#utility.yul\":9552:9558   */\n      0x00\n        /* \"#utility.yul\":9560:9566   */\n      dup1\n        /* \"#utility.yul\":9568:9574   */\n      0x00\n        /* \"#utility.yul\":9576:9582   */\n      dup1\n        /* \"#utility.yul\":9625:9628   */\n      0x80\n        /* \"#utility.yul\":9613:9622   */\n      dup6\n        /* \"#utility.yul\":9604:9611   */\n      dup8\n        /* \"#utility.yul\":9600:9623   */\n      sub\n        /* \"#utility.yul\":9596:9629   */\n      slt\n        /* \"#utility.yul\":9593:9713   */\n      iszero\n      tag_424\n      jumpi\n        /* \"#utility.yul\":9632:9711   */\n      tag_425\n      tag_377\n      jump\t// in\n    tag_425:\n        /* \"#utility.yul\":9593:9713   */\n    tag_424:\n        /* \"#utility.yul\":9752:9753   */\n      0x00\n        /* \"#utility.yul\":9777:9828   */\n      tag_426\n        /* \"#utility.yul\":9820:9827   */\n      dup8\n        /* \"#utility.yul\":9811:9817   */\n      dup3\n        /* \"#utility.yul\":9800:9809   */\n      dup9\n        /* \"#utility.yul\":9796:9818   */\n      add\n        /* \"#utility.yul\":9777:9828   */\n      tag_370\n      jump\t// in\n    tag_426:\n        /* \"#utility.yul\":9767:9828   */\n      swap5\n      pop\n        /* \"#utility.yul\":9723:9838   */\n      pop\n        /* \"#utility.yul\":9877:9879   */\n      0x20\n        /* \"#utility.yul\":9903:9956   */\n      tag_427\n        /* \"#utility.yul\":9948:9955   */\n      dup8\n        /* \"#utility.yul\":9939:9945   */\n      dup3\n        /* \"#utility.yul\":9928:9937   */\n      dup9\n        /* \"#utility.yul\":9924:9946   */\n      add\n        /* \"#utility.yul\":9903:9956   */\n      tag_325\n      jump\t// in\n    tag_427:\n        /* \"#utility.yul\":9893:9956   */\n      swap4\n      pop\n        /* \"#utility.yul\":9848:9966   */\n      pop\n        /* \"#utility.yul\":10005:10007   */\n      0x40\n        /* \"#utility.yul\":10031:10084   */\n      tag_428\n        /* \"#utility.yul\":10076:10083   */\n      dup8\n        /* \"#utility.yul\":10067:10073   */\n      dup3\n        /* \"#utility.yul\":10056:10065   */\n      dup9\n        /* \"#utility.yul\":10052:10074   */\n      add\n        /* \"#utility.yul\":10031:10084   */\n      tag_325\n      jump\t// in\n    tag_428:\n        /* \"#utility.yul\":10021:10084   */\n      swap3\n      pop\n        /* \"#utility.yul\":9976:10094   */\n      pop\n        /* \"#utility.yul\":10133:10135   */\n      0x60\n        /* \"#utility.yul\":10159:10212   */\n      tag_429\n        /* \"#utility.yul\":10204:10211   */\n      dup8\n        /* \"#utility.yul\":10195:10201   */\n      dup3\n        /* \"#utility.yul\":10184:10193   */\n      dup9\n        /* \"#utility.yul\":10180:10202   */\n      add\n        /* \"#utility.yul\":10159:10212   */\n      tag_366\n      jump\t// in\n    tag_429:\n        /* \"#utility.yul\":10149:10212   */\n      swap2\n      pop\n        /* \"#utility.yul\":10104:10222   */\n      pop\n        /* \"#utility.yul\":9468:10229   */\n      swap3\n      swap6\n      swap2\n      swap5\n      pop\n      swap3\n      pop\n      jump\t// out\n        /* \"#utility.yul\":10235:10414   */\n    tag_430:\n        /* \"#utility.yul\":10304:10314   */\n      0x00\n        /* \"#utility.yul\":10325:10371   */\n      tag_432\n        /* \"#utility.yul\":10367:10370   */\n      dup4\n        /* \"#utility.yul\":10359:10365   */\n      dup4\n        /* \"#utility.yul\":10325:10371   */\n      tag_433\n      jump\t// in\n    tag_432:\n        /* \"#utility.yul\":10403:10407   */\n      0x20\n        /* \"#utility.yul\":10398:10401   */\n      dup4\n        /* \"#utility.yul\":10394:10408   */\n      add\n        /* \"#utility.yul\":10380:10408   */\n      swap1\n      pop\n        /* \"#utility.yul\":10235:10414   */\n      swap3\n      swap2\n      pop\n      pop\n      jump\t// out\n        /* \"#utility.yul\":10452:11126   */\n    tag_434:\n        /* \"#utility.yul\":10578:10630   */\n      tag_436\n        /* \"#utility.yul\":10624:10629   */\n      dup2\n        /* \"#utility.yul\":10578:10630   */\n      tag_437\n      jump\t// in\n    tag_436:\n        /* \"#utility.yul\":10646:10720   */\n      tag_438\n        /* \"#utility.yul\":10713:10719   */\n      dup2\n        /* \"#utility.yul\":10708:10711   */\n      dup5\n        /* \"#utility.yul\":10646:10720   */\n      tag_439\n      jump\t// in\n    tag_438:\n        /* \"#utility.yul\":10639:10720   */\n      swap3\n      pop\n        /* \"#utility.yul\":10744:10798   */\n      tag_440\n        /* \"#utility.yul\":10792:10797   */\n      dup3\n        /* \"#utility.yul\":10744:10798   */\n      tag_441\n      jump\t// in\n    tag_440:\n        /* \"#utility.yul\":10821:10828   */\n      dup1\n        /* \"#utility.yul\":10852:10853   */\n      0x00\n        /* \"#utility.yul\":10837:11119   */\n    tag_442:\n        /* \"#utility.yul\":10862:10868   */\n      dup4\n        /* \"#utility.yul\":10859:10860   */\n      dup2\n        /* \"#utility.yul\":10856:10869   */\n      lt\n        /* \"#utility.yul\":10837:11119   */\n      iszero\n      tag_444\n      jumpi\n        /* \"#utility.yul\":10938:10944   */\n      dup2\n        /* \"#utility.yul\":10932:10945   */\n      mload\n        /* \"#utility.yul\":10965:11028   */\n      tag_445\n        /* \"#utility.yul\":11024:11027   */\n      dup8\n        /* \"#utility.yul\":11009:11022   */\n      dup3\n        /* \"#utility.yul\":10965:11028   */\n      tag_430\n      jump\t// in\n    tag_445:\n        /* \"#utility.yul\":10958:11028   */\n      swap7\n      pop\n        /* \"#utility.yul\":11051:11109   */\n      tag_446\n        /* \"#utility.yul\":11102:11108   */\n      dup4\n        /* \"#utility.yul\":11051:11109   */\n      tag_447\n      jump\t// in\n    tag_446:\n        /* \"#utility.yul\":11041:11109   */\n      swap3\n      pop\n        /* \"#utility.yul\":10897:11119   */\n      pop\n        /* \"#utility.yul\":10884:10885   */\n      0x01\n        /* \"#utility.yul\":10881:10882   */\n      dup2\n        /* \"#utility.yul\":10877:10886   */\n      add\n        /* \"#utility.yul\":10872:10886   */\n      swap1\n      pop\n        /* \"#utility.yul\":10837:11119   */\n      jump(tag_442)\n    tag_444:\n        /* \"#utility.yul\":10841:10855   */\n      pop\n        /* \"#utility.yul\":10554:11126   */\n      pop\n      pop\n      pop\n        /* \"#utility.yul\":10452:11126   */\n      pop\n      pop\n      jump\t// out\n        /* \"#utility.yul\":11164:11858   */\n    tag_448:\n        /* \"#utility.yul\":11300:11352   */\n      tag_450\n        /* \"#utility.yul\":11346:11351   */\n      dup2\n        /* \"#utility.yul\":11300:11352   */\n      tag_437\n      jump\t// in\n    tag_450:\n        /* \"#utility.yul\":11368:11452   */\n      tag_451\n        /* \"#utility.yul\":11445:11451   */\n      dup2\n        /* \"#utility.yul\":11440:11443   */\n      dup5\n        /* \"#utility.yul\":11368:11452   */\n      tag_452\n      jump\t// in\n    tag_451:\n        /* \"#utility.yul\":11361:11452   */\n      swap3\n      pop\n        /* \"#utility.yul\":11476:11530   */\n      tag_453\n        /* \"#utility.yul\":11524:11529   */\n      dup3\n        /* \"#utility.yul\":11476:11530   */\n      tag_441\n      jump\t// in\n    tag_453:\n        /* \"#utility.yul\":11553:11560   */\n      dup1\n        /* \"#utility.yul\":11584:11585   */\n      0x00\n        /* \"#utility.yul\":11569:11851   */\n    tag_454:\n        /* \"#utility.yul\":11594:11600   */\n      dup4\n        /* \"#utility.yul\":11591:11592   */\n      dup2\n        /* \"#utility.yul\":11588:11601   */\n      lt\n        /* \"#utility.yul\":11569:11851   */\n      iszero\n      tag_456\n      jumpi\n        /* \"#utility.yul\":11670:11676   */\n      dup2\n        /* \"#utility.yul\":11664:11677   */\n      mload\n        /* \"#utility.yul\":11697:11760   */\n      tag_457\n        /* \"#utility.yul\":11756:11759   */\n      dup8\n        /* \"#utility.yul\":11741:11754   */\n      dup3\n        /* \"#utility.yul\":11697:11760   */\n      tag_430\n      jump\t// in\n    tag_457:\n        /* \"#utility.yul\":11690:11760   */\n      swap7\n      pop\n        /* \"#utility.yul\":11783:11841   */\n      tag_458\n        /* \"#utility.yul\":11834:11840   */\n      dup4\n        /* \"#utility.yul\":11783:11841   */\n      tag_447\n      jump\t// in\n    tag_458:\n        /* \"#utility.yul\":11773:11841   */\n      swap3\n      pop\n        /* \"#utility.yul\":11629:11851   */\n      pop\n        /* \"#utility.yul\":11616:11617   */\n      0x01\n        /* \"#utility.yul\":11613:11614   */\n      dup2\n        /* \"#utility.yul\":11609:11618   */\n      add\n        /* \"#utility.yul\":11604:11618   */\n      swap1\n      pop\n        /* \"#utility.yul\":11569:11851   */\n      jump(tag_454)\n    tag_456:\n        /* \"#utility.yul\":11573:11587   */\n      pop\n        /* \"#utility.yul\":11276:11858   */\n      pop\n      pop\n      pop\n        /* \"#utility.yul\":11164:11858   */\n      pop\n      pop\n      jump\t// out\n        /* \"#utility.yul\":11864:11973   */\n    tag_459:\n        /* \"#utility.yul\":11945:11966   */\n      tag_461\n        /* \"#utility.yul\":11960:11965   */\n      dup2\n        /* \"#utility.yul\":11945:11966   */\n      tag_462\n      jump\t// in\n    tag_461:\n        /* \"#utility.yul\":11940:11943   */\n      dup3\n        /* \"#utility.yul\":11933:11967   */\n      mstore\n        /* \"#utility.yul\":11864:11973   */\n      pop\n      pop\n      jump\t// out\n        /* \"#utility.yul\":11979:12087   */\n    tag_433:\n        /* \"#utility.yul\":12056:12080   */\n      tag_464\n        /* \"#utility.yul\":12074:12079   */\n      dup2\n        /* \"#utility.yul\":12056:12080   */\n      tag_465\n      jump\t// in\n    tag_464:\n        /* \"#utility.yul\":12051:12054   */\n      dup3\n        /* \"#utility.yul\":12044:12081   */\n      mstore\n        /* \"#utility.yul\":11979:12087   */\n      pop\n      pop\n      jump\t// out\n        /* \"#utility.yul\":12093:12211   */\n    tag_466:\n        /* \"#utility.yul\":12180:12204   */\n      tag_468\n        /* \"#utility.yul\":12198:12203   */\n      dup2\n        /* \"#utility.yul\":12180:12204   */\n      tag_465\n      jump\t// in\n    tag_468:\n        /* \"#utility.yul\":12175:12178   */\n      dup3\n        /* \"#utility.yul\":12168:12205   */\n      mstore\n        /* \"#utility.yul\":12093:12211   */\n      pop\n      pop\n      jump\t// out\n        /* \"#utility.yul\":12217:12374   */\n    tag_469:\n        /* \"#utility.yul\":12322:12367   */\n      tag_471\n        /* \"#utility.yul\":12342:12366   */\n      tag_472\n        /* \"#utility.yul\":12360:12365   */\n      dup3\n        /* \"#utility.yul\":12342:12366   */\n      tag_465\n      jump\t// in\n    tag_472:\n        /* \"#utility.yul\":12322:12367   */\n      tag_473\n      jump\t// in\n    tag_471:\n        /* \"#utility.yul\":12317:12320   */\n      dup3\n        /* \"#utility.yul\":12310:12368   */\n      mstore\n        /* \"#utility.yul\":12217:12374   */\n      pop\n      pop\n      jump\t// out\n        /* \"#utility.yul\":12380:12753   */\n    tag_474:\n        /* \"#utility.yul\":12484:12487   */\n      0x00\n        /* \"#utility.yul\":12512:12550   */\n      tag_476\n        /* \"#utility.yul\":12544:12549   */\n      dup3\n        /* \"#utility.yul\":12512:12550   */\n      tag_477\n      jump\t// in\n    tag_476:\n        /* \"#utility.yul\":12566:12654   */\n      tag_478\n        /* \"#utility.yul\":12647:12653   */\n      dup2\n        /* \"#utility.yul\":12642:12645   */\n      dup6\n        /* \"#utility.yul\":12566:12654   */\n      tag_479\n      jump\t// in\n    tag_478:\n        /* \"#utility.yul\":12559:12654   */\n      swap4\n      pop\n        /* \"#utility.yul\":12663:12715   */\n      tag_480\n        /* \"#utility.yul\":12708:12714   */\n      dup2\n        /* \"#utility.yul\":12703:12706   */\n      dup6\n        /* \"#utility.yul\":12696:12700   */\n      0x20\n        /* \"#utility.yul\":12689:12694   */\n      dup7\n        /* \"#utility.yul\":12685:12701   */\n      add\n        /* \"#utility.yul\":12663:12715   */\n      tag_481\n      jump\t// in\n    tag_480:\n        /* \"#utility.yul\":12740:12746   */\n      dup1\n        /* \"#utility.yul\":12735:12738   */\n      dup5\n        /* \"#utility.yul\":12731:12747   */\n      add\n        /* \"#utility.yul\":12724:12747   */\n      swap2\n      pop\n        /* \"#utility.yul\":12488:12753   */\n      pop\n        /* \"#utility.yul\":12380:12753   */\n      swap3\n      swap2\n      pop\n      pop\n      jump\t// out\n        /* \"#utility.yul\":12759:13125   */\n    tag_482:\n        /* \"#utility.yul\":12901:12904   */\n      0x00\n        /* \"#utility.yul\":12922:12989   */\n      tag_484\n        /* \"#utility.yul\":12986:12988   */\n      0x0e\n        /* \"#utility.yul\":12981:12984   */\n      dup4\n        /* \"#utility.yul\":12922:12989   */\n      tag_485\n      jump\t// in\n    tag_484:\n        /* \"#utility.yul\":12915:12989   */\n      swap2\n      pop\n        /* \"#utility.yul\":12998:13091   */\n      tag_486\n        /* \"#utility.yul\":13087:13090   */\n      dup3\n        /* \"#utility.yul\":12998:13091   */\n      tag_487\n      jump\t// in\n    tag_486:\n        /* \"#utility.yul\":13116:13118   */\n      0x20\n        /* \"#utility.yul\":13111:13114   */\n      dup3\n        /* \"#utility.yul\":13107:13119   */\n      add\n        /* \"#utility.yul\":13100:13119   */\n      swap1\n      pop\n        /* \"#utility.yul\":12759:13125   */\n      swap2\n      swap1\n      pop\n      jump\t// out\n        /* \"#utility.yul\":13131:13497   */\n    tag_488:\n        /* \"#utility.yul\":13273:13276   */\n      0x00\n        /* \"#utility.yul\":13294:13361   */\n      tag_490\n        /* \"#utility.yul\":13358:13360   */\n      0x0f\n        /* \"#utility.yul\":13353:13356   */\n      dup4\n        /* \"#utility.yul\":13294:13361   */\n      tag_485\n      jump\t// in\n    tag_490:\n        /* \"#utility.yul\":13287:13361   */\n      swap2\n      pop\n        /* \"#utility.yul\":13370:13463   */\n      tag_491\n        /* \"#utility.yul\":13459:13462   */\n      dup3\n        /* \"#utility.yul\":13370:13463   */\n      tag_492\n      jump\t// in\n    tag_491:\n        /* \"#utility.yul\":13488:13490   */\n      0x20\n        /* \"#utility.yul\":13483:13486   */\n      dup3\n        /* \"#utility.yul\":13479:13491   */\n      add\n        /* \"#utility.yul\":13472:13491   */\n      swap1\n      pop\n        /* \"#utility.yul\":13131:13497   */\n      swap2\n      swap1\n      pop\n      jump\t// out\n        /* \"#utility.yul\":13503:13869   */\n    tag_493:\n        /* \"#utility.yul\":13645:13648   */\n      0x00\n        /* \"#utility.yul\":13666:13733   */\n      tag_495\n        /* \"#utility.yul\":13730:13732   */\n      0x0d\n        /* \"#utility.yul\":13725:13728   */\n      dup4\n        /* \"#utility.yul\":13666:13733   */\n      tag_485\n      jump\t// in\n    tag_495:\n        /* \"#utility.yul\":13659:13733   */\n      swap2\n      pop\n        /* \"#utility.yul\":13742:13835   */\n      tag_496\n        /* \"#utility.yul\":13831:13834   */\n      dup3\n        /* \"#utility.yul\":13742:13835   */\n      tag_497\n      jump\t// in\n    tag_496:\n        /* \"#utility.yul\":13860:13862   */\n      0x20\n        /* \"#utility.yul\":13855:13858   */\n      dup3\n        /* \"#utility.yul\":13851:13863   */\n      add\n        /* \"#utility.yul\":13844:13863   */\n      swap1\n      pop\n        /* \"#utility.yul\":13503:13869   */\n      swap2\n      swap1\n      pop\n      jump\t// out\n        /* \"#utility.yul\":13875:14241   */\n    tag_498:\n        /* \"#utility.yul\":14017:14020   */\n      0x00\n        /* \"#utility.yul\":14038:14105   */\n      tag_500\n        /* \"#utility.yul\":14102:14104   */\n      0x0d\n        /* \"#utility.yul\":14097:14100   */\n      dup4\n        /* \"#utility.yul\":14038:14105   */\n      tag_485\n      jump\t// in\n    tag_500:\n        /* \"#utility.yul\":14031:14105   */\n      swap2\n      pop\n        /* \"#utility.yul\":14114:14207   */\n      tag_501\n        /* \"#utility.yul\":14203:14206   */\n      dup3\n        /* \"#utility.yul\":14114:14207   */\n      tag_502\n      jump\t// in\n    tag_501:\n        /* \"#utility.yul\":14232:14234   */\n      0x20\n        /* \"#utility.yul\":14227:14230   */\n      dup3\n        /* \"#utility.yul\":14223:14235   */\n      add\n        /* \"#utility.yul\":14216:14235   */\n      swap1\n      pop\n        /* \"#utility.yul\":13875:14241   */\n      swap2\n      swap1\n      pop\n      jump\t// out\n        /* \"#utility.yul\":14247:14613   */\n    tag_503:\n        /* \"#utility.yul\":14389:14392   */\n      0x00\n        /* \"#utility.yul\":14410:14477   */\n      tag_505\n        /* \"#utility.yul\":14474:14476   */\n      0x0e\n        /* \"#utility.yul\":14469:14472   */\n      dup4\n        /* \"#utility.yul\":14410:14477   */\n      tag_485\n      jump\t// in\n    tag_505:\n        /* \"#utility.yul\":14403:14477   */\n      swap2\n      pop\n        /* \"#utility.yul\":14486:14579   */\n      tag_506\n        /* \"#utility.yul\":14575:14578   */\n      dup3\n        /* \"#utility.yul\":14486:14579   */\n      tag_507\n      jump\t// in\n    tag_506:\n        /* \"#utility.yul\":14604:14606   */\n      0x20\n        /* \"#utility.yul\":14599:14602   */\n      dup3\n        /* \"#utility.yul\":14595:14607   */\n      add\n        /* \"#utility.yul\":14588:14607   */\n      swap1\n      pop\n        /* \"#utility.yul\":14247:14613   */\n      swap2\n      swap1\n      pop\n      jump\t// out\n        /* \"#utility.yul\":14619:14985   */\n    tag_508:\n        /* \"#utility.yul\":14761:14764   */\n      0x00\n        /* \"#utility.yul\":14782:14849   */\n      tag_510\n        /* \"#utility.yul\":14846:14848   */\n      0x0d\n        /* \"#utility.yul\":14841:14844   */\n      dup4\n        /* \"#utility.yul\":14782:14849   */\n      tag_485\n      jump\t// in\n    tag_510:\n        /* \"#utility.yul\":14775:14849   */\n      swap2\n      pop\n        /* \"#utility.yul\":14858:14951   */\n      tag_511\n        /* \"#utility.yul\":14947:14950   */\n      dup3\n        /* \"#utility.yul\":14858:14951   */\n      tag_512\n      jump\t// in\n    tag_511:\n        /* \"#utility.yul\":14976:14978   */\n      0x20\n        /* \"#utility.yul\":14971:14974   */\n      dup3\n        /* \"#utility.yul\":14967:14979   */\n      add\n        /* \"#utility.yul\":14960:14979   */\n      swap1\n      pop\n        /* \"#utility.yul\":14619:14985   */\n      swap2\n      swap1\n      pop\n      jump\t// out\n        /* \"#utility.yul\":14991:15357   */\n    tag_513:\n        /* \"#utility.yul\":15133:15136   */\n      0x00\n        /* \"#utility.yul\":15154:15221   */\n      tag_515\n        /* \"#utility.yul\":15218:15220   */\n      0x0f\n        /* \"#utility.yul\":15213:15216   */\n      dup4\n        /* \"#utility.yul\":15154:15221   */\n      tag_485\n      jump\t// in\n    tag_515:\n        /* \"#utility.yul\":15147:15221   */\n      swap2\n      pop\n        /* \"#utility.yul\":15230:15323   */\n      tag_516\n        /* \"#utility.yul\":15319:15322   */\n      dup3\n        /* \"#utility.yul\":15230:15323   */\n      tag_517\n      jump\t// in\n    tag_516:\n        /* \"#utility.yul\":15348:15350   */\n      0x20\n        /* \"#utility.yul\":15343:15346   */\n      dup3\n        /* \"#utility.yul\":15339:15351   */\n      add\n        /* \"#utility.yul\":15332:15351   */\n      swap1\n      pop\n        /* \"#utility.yul\":14991:15357   */\n      swap2\n      swap1\n      pop\n      jump\t// out\n        /* \"#utility.yul\":15409:16442   */\n    tag_518:\n        /* \"#utility.yul\":15558:15564   */\n      0x0100\n        /* \"#utility.yul\":15553:15556   */\n      dup3\n        /* \"#utility.yul\":15549:15565   */\n      add\n        /* \"#utility.yul\":15645:15649   */\n      0x00\n        /* \"#utility.yul\":15638:15643   */\n      dup3\n        /* \"#utility.yul\":15634:15650   */\n      add\n        /* \"#utility.yul\":15628:15651   */\n      mload\n        /* \"#utility.yul\":15664:15773   */\n      tag_520\n        /* \"#utility.yul\":15767:15771   */\n      0x00\n        /* \"#utility.yul\":15762:15765   */\n      dup6\n        /* \"#utility.yul\":15758:15772   */\n      add\n        /* \"#utility.yul\":15744:15756   */\n      dup3\n        /* \"#utility.yul\":15664:15773   */\n      tag_434\n      jump\t// in\n    tag_520:\n        /* \"#utility.yul\":15575:15783   */\n      pop\n        /* \"#utility.yul\":15863:15867   */\n      0x20\n        /* \"#utility.yul\":15856:15861   */\n      dup3\n        /* \"#utility.yul\":15852:15868   */\n      add\n        /* \"#utility.yul\":15846:15869   */\n      mload\n        /* \"#utility.yul\":15882:15991   */\n      tag_521\n        /* \"#utility.yul\":15985:15989   */\n      0x40\n        /* \"#utility.yul\":15980:15983   */\n      dup6\n        /* \"#utility.yul\":15976:15990   */\n      add\n        /* \"#utility.yul\":15962:15974   */\n      dup3\n        /* \"#utility.yul\":15882:15991   */\n      tag_434\n      jump\t// in\n    tag_521:\n        /* \"#utility.yul\":15793:16001   */\n      pop\n        /* \"#utility.yul\":16080:16084   */\n      0x40\n        /* \"#utility.yul\":16073:16078   */\n      dup3\n        /* \"#utility.yul\":16069:16085   */\n      add\n        /* \"#utility.yul\":16063:16086   */\n      mload\n        /* \"#utility.yul\":16099:16208   */\n      tag_522\n        /* \"#utility.yul\":16202:16206   */\n      0x80\n        /* \"#utility.yul\":16197:16200   */\n      dup6\n        /* \"#utility.yul\":16193:16207   */\n      add\n        /* \"#utility.yul\":16179:16191   */\n      dup3\n        /* \"#utility.yul\":16099:16208   */\n      tag_434\n      jump\t// in\n    tag_522:\n        /* \"#utility.yul\":16011:16218   */\n      pop\n        /* \"#utility.yul\":16297:16301   */\n      0x60\n        /* \"#utility.yul\":16290:16295   */\n      dup3\n        /* \"#utility.yul\":16286:16302   */\n      add\n        /* \"#utility.yul\":16280:16303   */\n      mload\n        /* \"#utility.yul\":16316:16425   */\n      tag_523\n        /* \"#utility.yul\":16419:16423   */\n      0xc0\n        /* \"#utility.yul\":16414:16417   */\n      dup6\n        /* \"#utility.yul\":16410:16424   */\n      add\n        /* \"#utility.yul\":16396:16408   */\n      dup3\n        /* \"#utility.yul\":16316:16425   */\n      tag_434\n      jump\t// in\n    tag_523:\n        /* \"#utility.yul\":16228:16435   */\n      pop\n        /* \"#utility.yul\":15527:16442   */\n      pop\n        /* \"#utility.yul\":15409:16442   */\n      pop\n      pop\n      jump\t// out\n        /* \"#utility.yul\":16448:16566   */\n    tag_524:\n        /* \"#utility.yul\":16535:16559   */\n      tag_526\n        /* \"#utility.yul\":16553:16558   */\n      dup2\n        /* \"#utility.yul\":16535:16559   */\n      tag_527\n      jump\t// in\n    tag_526:\n        /* \"#utility.yul\":16530:16533   */\n      dup3\n        /* \"#utility.yul\":16523:16560   */\n      mstore\n        /* \"#utility.yul\":16448:16566   */\n      pop\n      pop\n      jump\t// out\n        /* \"#utility.yul\":16572:16684   */\n    tag_528:\n        /* \"#utility.yul\":16655:16677   */\n      tag_530\n        /* \"#utility.yul\":16671:16676   */\n      dup2\n        /* \"#utility.yul\":16655:16677   */\n      tag_531\n      jump\t// in\n    tag_530:\n        /* \"#utility.yul\":16650:16653   */\n      dup3\n        /* \"#utility.yul\":16643:16678   */\n      mstore\n        /* \"#utility.yul\":16572:16684   */\n      pop\n      pop\n      jump\t// out\n        /* \"#utility.yul\":16690:16946   */\n    tag_117:\n        /* \"#utility.yul\":16802:16805   */\n      0x00\n        /* \"#utility.yul\":16817:16892   */\n      tag_533\n        /* \"#utility.yul\":16888:16891   */\n      dup3\n        /* \"#utility.yul\":16879:16885   */\n      dup5\n        /* \"#utility.yul\":16817:16892   */\n      tag_469\n      jump\t// in\n    tag_533:\n        /* \"#utility.yul\":16917:16919   */\n      0x20\n        /* \"#utility.yul\":16912:16915   */\n      dup3\n        /* \"#utility.yul\":16908:16920   */\n      add\n        /* \"#utility.yul\":16901:16920   */\n      swap2\n      pop\n        /* \"#utility.yul\":16937:16940   */\n      dup2\n        /* \"#utility.yul\":16930:16940   */\n      swap1\n      pop\n        /* \"#utility.yul\":16690:16946   */\n      swap3\n      swap2\n      pop\n      pop\n      jump\t// out\n        /* \"#utility.yul\":16952:17913   */\n    tag_105:\n        /* \"#utility.yul\":17204:17207   */\n      0x00\n        /* \"#utility.yul\":17219:17294   */\n      tag_535\n        /* \"#utility.yul\":17290:17293   */\n      dup3\n        /* \"#utility.yul\":17281:17287   */\n      dup10\n        /* \"#utility.yul\":17219:17294   */\n      tag_469\n      jump\t// in\n    tag_535:\n        /* \"#utility.yul\":17319:17321   */\n      0x20\n        /* \"#utility.yul\":17314:17317   */\n      dup3\n        /* \"#utility.yul\":17310:17322   */\n      add\n        /* \"#utility.yul\":17303:17322   */\n      swap2\n      pop\n        /* \"#utility.yul\":17332:17407   */\n      tag_536\n        /* \"#utility.yul\":17403:17406   */\n      dup3\n        /* \"#utility.yul\":17394:17400   */\n      dup9\n        /* \"#utility.yul\":17332:17407   */\n      tag_469\n      jump\t// in\n    tag_536:\n        /* \"#utility.yul\":17432:17434   */\n      0x20\n        /* \"#utility.yul\":17427:17430   */\n      dup3\n        /* \"#utility.yul\":17423:17435   */\n      add\n        /* \"#utility.yul\":17416:17435   */\n      swap2\n      pop\n        /* \"#utility.yul\":17445:17520   */\n      tag_537\n        /* \"#utility.yul\":17516:17519   */\n      dup3\n        /* \"#utility.yul\":17507:17513   */\n      dup8\n        /* \"#utility.yul\":17445:17520   */\n      tag_469\n      jump\t// in\n    tag_537:\n        /* \"#utility.yul\":17545:17547   */\n      0x20\n        /* \"#utility.yul\":17540:17543   */\n      dup3\n        /* \"#utility.yul\":17536:17548   */\n      add\n        /* \"#utility.yul\":17529:17548   */\n      swap2\n      pop\n        /* \"#utility.yul\":17558:17633   */\n      tag_538\n        /* \"#utility.yul\":17629:17632   */\n      dup3\n        /* \"#utility.yul\":17620:17626   */\n      dup7\n        /* \"#utility.yul\":17558:17633   */\n      tag_469\n      jump\t// in\n    tag_538:\n        /* \"#utility.yul\":17658:17660   */\n      0x20\n        /* \"#utility.yul\":17653:17656   */\n      dup3\n        /* \"#utility.yul\":17649:17661   */\n      add\n        /* \"#utility.yul\":17642:17661   */\n      swap2\n      pop\n        /* \"#utility.yul\":17671:17746   */\n      tag_539\n        /* \"#utility.yul\":17742:17745   */\n      dup3\n        /* \"#utility.yul\":17733:17739   */\n      dup6\n        /* \"#utility.yul\":17671:17746   */\n      tag_469\n      jump\t// in\n    tag_539:\n        /* \"#utility.yul\":17771:17773   */\n      0x20\n        /* \"#utility.yul\":17766:17769   */\n      dup3\n        /* \"#utility.yul\":17762:17774   */\n      add\n        /* \"#utility.yul\":17755:17774   */\n      swap2\n      pop\n        /* \"#utility.yul\":17784:17859   */\n      tag_540\n        /* \"#utility.yul\":17855:17858   */\n      dup3\n        /* \"#utility.yul\":17846:17852   */\n      dup5\n        /* \"#utility.yul\":17784:17859   */\n      tag_469\n      jump\t// in\n    tag_540:\n        /* \"#utility.yul\":17884:17886   */\n      0x20\n        /* \"#utility.yul\":17879:17882   */\n      dup3\n        /* \"#utility.yul\":17875:17887   */\n      add\n        /* \"#utility.yul\":17868:17887   */\n      swap2\n      pop\n        /* \"#utility.yul\":17904:17907   */\n      dup2\n        /* \"#utility.yul\":17897:17907   */\n      swap1\n      pop\n        /* \"#utility.yul\":16952:17913   */\n      swap8\n      swap7\n      pop\n      pop\n      pop\n      pop\n      pop\n      pop\n      pop\n      jump\t// out\n        /* \"#utility.yul\":17919:18190   */\n    tag_121:\n        /* \"#utility.yul\":18049:18052   */\n      0x00\n        /* \"#utility.yul\":18071:18164   */\n      tag_542\n        /* \"#utility.yul\":18160:18163   */\n      dup3\n        /* \"#utility.yul\":18151:18157   */\n      dup5\n        /* \"#utility.yul\":18071:18164   */\n      tag_474\n      jump\t// in\n    tag_542:\n        /* \"#utility.yul\":18064:18164   */\n      swap2\n      pop\n        /* \"#utility.yul\":18181:18184   */\n      dup2\n        /* \"#utility.yul\":18174:18184   */\n      swap1\n      pop\n        /* \"#utility.yul\":17919:18190   */\n      swap3\n      swap2\n      pop\n      pop\n      jump\t// out\n        /* \"#utility.yul\":18196:18510   */\n    tag_43:\n        /* \"#utility.yul\":18335:18339   */\n      0x00\n        /* \"#utility.yul\":18373:18375   */\n      0x40\n        /* \"#utility.yul\":18362:18371   */\n      dup3\n        /* \"#utility.yul\":18358:18376   */\n      add\n        /* \"#utility.yul\":18350:18376   */\n      swap1\n      pop\n        /* \"#utility.yul\":18386:18503   */\n      tag_544\n        /* \"#utility.yul\":18500:18501   */\n      0x00\n        /* \"#utility.yul\":18489:18498   */\n      dup4\n        /* \"#utility.yul\":18485:18502   */\n      add\n        /* \"#utility.yul\":18476:18482   */\n      dup5\n        /* \"#utility.yul\":18386:18503   */\n      tag_448\n      jump\t// in\n    tag_544:\n        /* \"#utility.yul\":18196:18510   */\n      swap3\n      swap2\n      pop\n      pop\n      jump\t// out\n        /* \"#utility.yul\":18516:18726   */\n    tag_33:\n        /* \"#utility.yul\":18603:18607   */\n      0x00\n        /* \"#utility.yul\":18641:18643   */\n      0x20\n        /* \"#utility.yul\":18630:18639   */\n      dup3\n        /* \"#utility.yul\":18626:18644   */\n      add\n        /* \"#utility.yul\":18618:18644   */\n      swap1\n      pop\n        /* \"#utility.yul\":18654:18719   */\n      tag_546\n        /* \"#utility.yul\":18716:18717   */\n      0x00\n        /* \"#utility.yul\":18705:18714   */\n      dup4\n        /* \"#utility.yul\":18701:18718   */\n      add\n        /* \"#utility.yul\":18692:18698   */\n      dup5\n        /* \"#utility.yul\":18654:18719   */\n      tag_459\n      jump\t// in\n    tag_546:\n        /* \"#utility.yul\":18516:18726   */\n      swap3\n      swap2\n      pop\n      pop\n      jump\t// out\n        /* \"#utility.yul\":18732:18954   */\n    tag_27:\n        /* \"#utility.yul\":18825:18829   */\n      0x00\n        /* \"#utility.yul\":18863:18865   */\n      0x20\n        /* \"#utility.yul\":18852:18861   */\n      dup3\n        /* \"#utility.yul\":18848:18866   */\n      add\n        /* \"#utility.yul\":18840:18866   */\n      swap1\n      pop\n        /* \"#utility.yul\":18876:18947   */\n      tag_548\n        /* \"#utility.yul\":18944:18945   */\n      0x00\n        /* \"#utility.yul\":18933:18942   */\n      dup4\n        /* \"#utility.yul\":18929:18946   */\n      add\n        /* \"#utility.yul\":18920:18926   */\n      dup5\n        /* \"#utility.yul\":18876:18947   */\n      tag_466\n      jump\t// in\n    tag_548:\n        /* \"#utility.yul\":18732:18954   */\n      swap3\n      swap2\n      pop\n      pop\n      jump\t// out\n        /* \"#utility.yul\":18960:19379   */\n    tag_175:\n        /* \"#utility.yul\":19126:19130   */\n      0x00\n        /* \"#utility.yul\":19164:19166   */\n      0x20\n        /* \"#utility.yul\":19153:19162   */\n      dup3\n        /* \"#utility.yul\":19149:19167   */\n      add\n        /* \"#utility.yul\":19141:19167   */\n      swap1\n      pop\n        /* \"#utility.yul\":19213:19222   */\n      dup2\n        /* \"#utility.yul\":19207:19211   */\n      dup2\n        /* \"#utility.yul\":19203:19223   */\n      sub\n        /* \"#utility.yul\":19199:19200   */\n      0x00\n        /* \"#utility.yul\":19188:19197   */\n      dup4\n        /* \"#utility.yul\":19184:19201   */\n      add\n        /* \"#utility.yul\":19177:19224   */\n      mstore\n        /* \"#utility.yul\":19241:19372   */\n      tag_550\n        /* \"#utility.yul\":19367:19371   */\n      dup2\n        /* \"#utility.yul\":19241:19372   */\n      tag_482\n      jump\t// in\n    tag_550:\n        /* \"#utility.yul\":19233:19372   */\n      swap1\n      pop\n        /* \"#utility.yul\":18960:19379   */\n      swap2\n      swap1\n      pop\n      jump\t// out\n        /* \"#utility.yul\":19385:19804   */\n    tag_141:\n        /* \"#utility.yul\":19551:19555   */\n      0x00\n        /* \"#utility.yul\":19589:19591   */\n      0x20\n        /* \"#utility.yul\":19578:19587   */\n      dup3\n        /* \"#utility.yul\":19574:19592   */\n      add\n        /* \"#utility.yul\":19566:19592   */\n      swap1\n      pop\n        /* \"#utility.yul\":19638:19647   */\n      dup2\n        /* \"#utility.yul\":19632:19636   */\n      dup2\n        /* \"#utility.yul\":19628:19648   */\n      sub\n        /* \"#utility.yul\":19624:19625   */\n      0x00\n        /* \"#utility.yul\":19613:19622   */\n      dup4\n        /* \"#utility.yul\":19609:19626   */\n      add\n        /* \"#utility.yul\":19602:19649   */\n      mstore\n        /* \"#utility.yul\":19666:19797   */\n      tag_552\n        /* \"#utility.yul\":19792:19796   */\n      dup2\n        /* \"#utility.yul\":19666:19797   */\n      tag_488\n      jump\t// in\n    tag_552:\n        /* \"#utility.yul\":19658:19797   */\n      swap1\n      pop\n        /* \"#utility.yul\":19385:19804   */\n      swap2\n      swap1\n      pop\n      jump\t// out\n        /* \"#utility.yul\":19810:20229   */\n    tag_189:\n        /* \"#utility.yul\":19976:19980   */\n      0x00\n        /* \"#utility.yul\":20014:20016   */\n      0x20\n        /* \"#utility.yul\":20003:20012   */\n      dup3\n        /* \"#utility.yul\":19999:20017   */\n      add\n        /* \"#utility.yul\":19991:20017   */\n      swap1\n      pop\n        /* \"#utility.yul\":20063:20072   */\n      dup2\n        /* \"#utility.yul\":20057:20061   */\n      dup2\n        /* \"#utility.yul\":20053:20073   */\n      sub\n        /* \"#utility.yul\":20049:20050   */\n      0x00\n        /* \"#utility.yul\":20038:20047   */\n      dup4\n        /* \"#utility.yul\":20034:20051   */\n      add\n        /* \"#utility.yul\":20027:20074   */\n      mstore\n        /* \"#utility.yul\":20091:20222   */\n      tag_554\n        /* \"#utility.yul\":20217:20221   */\n      dup2\n        /* \"#utility.yul\":20091:20222   */\n      tag_493\n      jump\t// in\n    tag_554:\n        /* \"#utility.yul\":20083:20222   */\n      swap1\n      pop\n        /* \"#utility.yul\":19810:20229   */\n      swap2\n      swap1\n      pop\n      jump\t// out\n        /* \"#utility.yul\":20235:20654   */\n    tag_130:\n        /* \"#utility.yul\":20401:20405   */\n      0x00\n        /* \"#utility.yul\":20439:20441   */\n      0x20\n        /* \"#utility.yul\":20428:20437   */\n      dup3\n        /* \"#utility.yul\":20424:20442   */\n      add\n        /* \"#utility.yul\":20416:20442   */\n      swap1\n      pop\n        /* \"#utility.yul\":20488:20497   */\n      dup2\n        /* \"#utility.yul\":20482:20486   */\n      dup2\n        /* \"#utility.yul\":20478:20498   */\n      sub\n        /* \"#utility.yul\":20474:20475   */\n      0x00\n        /* \"#utility.yul\":20463:20472   */\n      dup4\n        /* \"#utility.yul\":20459:20476   */\n      add\n        /* \"#utility.yul\":20452:20499   */\n      mstore\n        /* \"#utility.yul\":20516:20647   */\n      tag_556\n        /* \"#utility.yul\":20642:20646   */\n      dup2\n        /* \"#utility.yul\":20516:20647   */\n      tag_498\n      jump\t// in\n    tag_556:\n        /* \"#utility.yul\":20508:20647   */\n      swap1\n      pop\n        /* \"#utility.yul\":20235:20654   */\n      swap2\n      swap1\n      pop\n      jump\t// out\n        /* \"#utility.yul\":20660:21079   */\n    tag_161:\n        /* \"#utility.yul\":20826:20830   */\n      0x00\n        /* \"#utility.yul\":20864:20866   */\n      0x20\n        /* \"#utility.yul\":20853:20862   */\n      dup3\n        /* \"#utility.yul\":20849:20867   */\n      add\n        /* \"#utility.yul\":20841:20867   */\n      swap1\n      pop\n        /* \"#utility.yul\":20913:20922   */\n      dup2\n        /* \"#utility.yul\":20907:20911   */\n      dup2\n        /* \"#utility.yul\":20903:20923   */\n      sub\n        /* \"#utility.yul\":20899:20900   */\n      0x00\n        /* \"#utility.yul\":20888:20897   */\n      dup4\n        /* \"#utility.yul\":20884:20901   */\n      add\n        /* \"#utility.yul\":20877:20924   */\n      mstore\n        /* \"#utility.yul\":20941:21072   */\n      tag_558\n        /* \"#utility.yul\":21067:21071   */\n      dup2\n        /* \"#utility.yul\":20941:21072   */\n      tag_503\n      jump\t// in\n    tag_558:\n        /* \"#utility.yul\":20933:21072   */\n      swap1\n      pop\n        /* \"#utility.yul\":20660:21079   */\n      swap2\n      swap1\n      pop\n      jump\t// out\n        /* \"#utility.yul\":21085:21504   */\n    tag_203:\n        /* \"#utility.yul\":21251:21255   */\n      0x00\n        /* \"#utility.yul\":21289:21291   */\n      0x20\n        /* \"#utility.yul\":21278:21287   */\n      dup3\n        /* \"#utility.yul\":21274:21292   */\n      add\n        /* \"#utility.yul\":21266:21292   */\n      swap1\n      pop\n        /* \"#utility.yul\":21338:21347   */\n      dup2\n        /* \"#utility.yul\":21332:21336   */\n      dup2\n        /* \"#utility.yul\":21328:21348   */\n      sub\n        /* \"#utility.yul\":21324:21325   */\n      0x00\n        /* \"#utility.yul\":21313:21322   */\n      dup4\n        /* \"#utility.yul\":21309:21326   */\n      add\n        /* \"#utility.yul\":21302:21349   */\n      mstore\n        /* \"#utility.yul\":21366:21497   */\n      tag_560\n        /* \"#utility.yul\":21492:21496   */\n      dup2\n        /* \"#utility.yul\":21366:21497   */\n      tag_508\n      jump\t// in\n    tag_560:\n        /* \"#utility.yul\":21358:21497   */\n      swap1\n      pop\n        /* \"#utility.yul\":21085:21504   */\n      swap2\n      swap1\n      pop\n      jump\t// out\n        /* \"#utility.yul\":21510:21929   */\n    tag_136:\n        /* \"#utility.yul\":21676:21680   */\n      0x00\n        /* \"#utility.yul\":21714:21716   */\n      0x20\n        /* \"#utility.yul\":21703:21712   */\n      dup3\n        /* \"#utility.yul\":21699:21717   */\n      add\n        /* \"#utility.yul\":21691:21717   */\n      swap1\n      pop\n        /* \"#utility.yul\":21763:21772   */\n      dup2\n        /* \"#utility.yul\":21757:21761   */\n      dup2\n        /* \"#utility.yul\":21753:21773   */\n      sub\n        /* \"#utility.yul\":21749:21750   */\n      0x00\n        /* \"#utility.yul\":21738:21747   */\n      dup4\n        /* \"#utility.yul\":21734:21751   */\n      add\n        /* \"#utility.yul\":21727:21774   */\n      mstore\n        /* \"#utility.yul\":21791:21922   */\n      tag_562\n        /* \"#utility.yul\":21917:21921   */\n      dup2\n        /* \"#utility.yul\":21791:21922   */\n      tag_513\n      jump\t// in\n    tag_562:\n        /* \"#utility.yul\":21783:21922   */\n      swap1\n      pop\n        /* \"#utility.yul\":21510:21929   */\n      swap2\n      swap1\n      pop\n      jump\t// out\n        /* \"#utility.yul\":21935:22262   */\n    tag_21:\n        /* \"#utility.yul\":22080:22084   */\n      0x00\n        /* \"#utility.yul\":22118:22121   */\n      0x0100\n        /* \"#utility.yul\":22107:22116   */\n      dup3\n        /* \"#utility.yul\":22103:22122   */\n      add\n        /* \"#utility.yul\":22095:22122   */\n      swap1\n      pop\n        /* \"#utility.yul\":22132:22255   */\n      tag_564\n        /* \"#utility.yul\":22252:22253   */\n      0x00\n        /* \"#utility.yul\":22241:22250   */\n      dup4\n        /* \"#utility.yul\":22237:22254   */\n      add\n        /* \"#utility.yul\":22228:22234   */\n      dup5\n        /* \"#utility.yul\":22132:22255   */\n      tag_518\n      jump\t// in\n    tag_564:\n        /* \"#utility.yul\":21935:22262   */\n      swap3\n      swap2\n      pop\n      pop\n      jump\t// out\n        /* \"#utility.yul\":22268:22490   */\n    tag_49:\n        /* \"#utility.yul\":22361:22365   */\n      0x00\n        /* \"#utility.yul\":22399:22401   */\n      0x20\n        /* \"#utility.yul\":22388:22397   */\n      dup3\n        /* \"#utility.yul\":22384:22402   */\n      add\n        /* \"#utility.yul\":22376:22402   */\n      swap1\n      pop\n        /* \"#utility.yul\":22412:22483   */\n      tag_566\n        /* \"#utility.yul\":22480:22481   */\n      0x00\n        /* \"#utility.yul\":22469:22478   */\n      dup4\n        /* \"#utility.yul\":22465:22482   */\n      add\n        /* \"#utility.yul\":22456:22462   */\n      dup5\n        /* \"#utility.yul\":22412:22483   */\n      tag_524\n      jump\t// in\n    tag_566:\n        /* \"#utility.yul\":22268:22490   */\n      swap3\n      swap2\n      pop\n      pop\n      jump\t// out\n        /* \"#utility.yul\":22496:22710   */\n    tag_143:\n        /* \"#utility.yul\":22585:22589   */\n      0x00\n        /* \"#utility.yul\":22623:22625   */\n      0x20\n        /* \"#utility.yul\":22612:22621   */\n      dup3\n        /* \"#utility.yul\":22608:22626   */\n      add\n        /* \"#utility.yul\":22600:22626   */\n      swap1\n      pop\n        /* \"#utility.yul\":22636:22703   */\n      tag_568\n        /* \"#utility.yul\":22700:22701   */\n      0x00\n        /* \"#utility.yul\":22689:22698   */\n      dup4\n        /* \"#utility.yul\":22685:22702   */\n      add\n        /* \"#utility.yul\":22676:22682   */\n      dup5\n        /* \"#utility.yul\":22636:22703   */\n      tag_528\n      jump\t// in\n    tag_568:\n        /* \"#utility.yul\":22496:22710   */\n      swap3\n      swap2\n      pop\n      pop\n      jump\t// out\n        /* \"#utility.yul\":22716:22845   */\n    tag_317:\n        /* \"#utility.yul\":22750:22756   */\n      0x00\n        /* \"#utility.yul\":22777:22797   */\n      tag_570\n      tag_571\n      jump\t// in\n    tag_570:\n        /* \"#utility.yul\":22767:22797   */\n      swap1\n      pop\n        /* \"#utility.yul\":22806:22839   */\n      tag_572\n        /* \"#utility.yul\":22834:22838   */\n      dup3\n        /* \"#utility.yul\":22826:22832   */\n      dup3\n        /* \"#utility.yul\":22806:22839   */\n      tag_573\n      jump\t// in\n    tag_572:\n        /* \"#utility.yul\":22716:22845   */\n      swap2\n      swap1\n      pop\n      jump\t// out\n        /* \"#utility.yul\":22851:22926   */\n    tag_571:\n        /* \"#utility.yul\":22884:22890   */\n      0x00\n        /* \"#utility.yul\":22917:22919   */\n      0x40\n        /* \"#utility.yul\":22911:22920   */\n      mload\n        /* \"#utility.yul\":22901:22920   */\n      swap1\n      pop\n        /* \"#utility.yul\":22851:22926   */\n      swap1\n      jump\t// out\n        /* \"#utility.yul\":22932:23181   */\n    tag_316:\n        /* \"#utility.yul\":23007:23011   */\n      0x00\n        /* \"#utility.yul\":23097:23115   */\n      0xffffffffffffffff\n        /* \"#utility.yul\":23089:23095   */\n      dup3\n        /* \"#utility.yul\":23086:23116   */\n      gt\n        /* \"#utility.yul\":23083:23139   */\n      iszero\n      tag_576\n      jumpi\n        /* \"#utility.yul\":23119:23137   */\n      tag_577\n      tag_578\n      jump\t// in\n    tag_577:\n        /* \"#utility.yul\":23083:23139   */\n    tag_576:\n        /* \"#utility.yul\":23169:23173   */\n      0x20\n        /* \"#utility.yul\":23161:23167   */\n      dup3\n        /* \"#utility.yul\":23157:23174   */\n      mul\n        /* \"#utility.yul\":23149:23174   */\n      swap1\n      pop\n        /* \"#utility.yul\":22932:23181   */\n      swap2\n      swap1\n      pop\n      jump\t// out\n        /* \"#utility.yul\":23187:23285   */\n    tag_441:\n        /* \"#utility.yul\":23252:23256   */\n      0x00\n        /* \"#utility.yul\":23275:23278   */\n      dup2\n        /* \"#utility.yul\":23267:23278   */\n      swap1\n      pop\n        /* \"#utility.yul\":23187:23285   */\n      swap2\n      swap1\n      pop\n      jump\t// out\n        /* \"#utility.yul\":23291:23395   */\n    tag_437:\n        /* \"#utility.yul\":23356:23362   */\n      0x00\n        /* \"#utility.yul\":23384:23388   */\n      0x02\n        /* \"#utility.yul\":23374:23388   */\n      swap1\n      pop\n        /* \"#utility.yul\":23291:23395   */\n      swap2\n      swap1\n      pop\n      jump\t// out\n        /* \"#utility.yul\":23401:23499   */\n    tag_477:\n        /* \"#utility.yul\":23452:23458   */\n      0x00\n        /* \"#utility.yul\":23486:23491   */\n      dup2\n        /* \"#utility.yul\":23480:23492   */\n      mload\n        /* \"#utility.yul\":23470:23492   */\n      swap1\n      pop\n        /* \"#utility.yul\":23401:23499   */\n      swap2\n      swap1\n      pop\n      jump\t// out\n        /* \"#utility.yul\":23505:23616   */\n    tag_447:\n        /* \"#utility.yul\":23573:23577   */\n      0x00\n        /* \"#utility.yul\":23605:23609   */\n      0x20\n        /* \"#utility.yul\":23600:23603   */\n      dup3\n        /* \"#utility.yul\":23596:23610   */\n      add\n        /* \"#utility.yul\":23588:23610   */\n      swap1\n      pop\n        /* \"#utility.yul\":23505:23616   */\n      swap2\n      swap1\n      pop\n      jump\t// out\n        /* \"#utility.yul\":23622:23755   */\n    tag_439:\n        /* \"#utility.yul\":23709:23720   */\n      0x00\n        /* \"#utility.yul\":23746:23749   */\n      dup2\n        /* \"#utility.yul\":23731:23749   */\n      swap1\n      pop\n        /* \"#utility.yul\":23622:23755   */\n      swap3\n      swap2\n      pop\n      pop\n      jump\t// out\n        /* \"#utility.yul\":23761:23904   */\n    tag_452:\n        /* \"#utility.yul\":23858:23869   */\n      0x00\n        /* \"#utility.yul\":23895:23898   */\n      dup2\n        /* \"#utility.yul\":23880:23898   */\n      swap1\n      pop\n        /* \"#utility.yul\":23761:23904   */\n      swap3\n      swap2\n      pop\n      pop\n      jump\t// out\n        /* \"#utility.yul\":23910:24057   */\n    tag_479:\n        /* \"#utility.yul\":24011:24022   */\n      0x00\n        /* \"#utility.yul\":24048:24051   */\n      dup2\n        /* \"#utility.yul\":24033:24051   */\n      swap1\n      pop\n        /* \"#utility.yul\":23910:24057   */\n      swap3\n      swap2\n      pop\n      pop\n      jump\t// out\n        /* \"#utility.yul\":24063:24232   */\n    tag_485:\n        /* \"#utility.yul\":24147:24158   */\n      0x00\n        /* \"#utility.yul\":24181:24187   */\n      dup3\n        /* \"#utility.yul\":24176:24179   */\n      dup3\n        /* \"#utility.yul\":24169:24188   */\n      mstore\n        /* \"#utility.yul\":24221:24225   */\n      0x20\n        /* \"#utility.yul\":24216:24219   */\n      dup3\n        /* \"#utility.yul\":24212:24226   */\n      add\n        /* \"#utility.yul\":24197:24226   */\n      swap1\n      pop\n        /* \"#utility.yul\":24063:24232   */\n      swap3\n      swap2\n      pop\n      pop\n      jump\t// out\n        /* \"#utility.yul\":24238:24543   */\n    tag_237:\n        /* \"#utility.yul\":24278:24281   */\n      0x00\n        /* \"#utility.yul\":24297:24317   */\n      tag_588\n        /* \"#utility.yul\":24315:24316   */\n      dup3\n        /* \"#utility.yul\":24297:24317   */\n      tag_527\n      jump\t// in\n    tag_588:\n        /* \"#utility.yul\":24292:24317   */\n      swap2\n      pop\n        /* \"#utility.yul\":24331:24351   */\n      tag_589\n        /* \"#utility.yul\":24349:24350   */\n      dup4\n        /* \"#utility.yul\":24331:24351   */\n      tag_527\n      jump\t// in\n    tag_589:\n        /* \"#utility.yul\":24326:24351   */\n      swap3\n      pop\n        /* \"#utility.yul\":24485:24486   */\n      dup3\n        /* \"#utility.yul\":24417:24483   */\n      0xffffffffffffffffffffffffffffffffffffffffffffffffffffffffffffffff\n        /* \"#utility.yul\":24413:24487   */\n      sub\n        /* \"#utility.yul\":24410:24411   */\n      dup3\n        /* \"#utility.yul\":24407:24488   */\n      gt\n        /* \"#utility.yul\":24404:24511   */\n      iszero\n      tag_590\n      jumpi\n        /* \"#utility.yul\":24491:24509   */\n      tag_591\n      tag_592\n      jump\t// in\n    tag_591:\n        /* \"#utility.yul\":24404:24511   */\n    tag_590:\n        /* \"#utility.yul\":24535:24536   */\n      dup3\n        /* \"#utility.yul\":24532:24533   */\n      dup3\n        /* \"#utility.yul\":24528:24537   */\n      add\n        /* \"#utility.yul\":24521:24537   */\n      swap1\n      pop\n        /* \"#utility.yul\":24238:24543   */\n      swap3\n      swap2\n      pop\n      pop\n      jump\t// out\n        /* \"#utility.yul\":24549:25397   */\n    tag_593:\n        /* \"#utility.yul\":24610:24615   */\n      0x00\n        /* \"#utility.yul\":24617:24621   */\n      dup1\n        /* \"#utility.yul\":24641:24647   */\n      dup3\n        /* \"#utility.yul\":24632:24647   */\n      swap2\n      pop\n        /* \"#utility.yul\":24665:24670   */\n      dup4\n        /* \"#utility.yul\":24656:24670   */\n      swap1\n      pop\n        /* \"#utility.yul\":24679:25391   */\n    tag_595:\n        /* \"#utility.yul\":24700:24701   */\n      0x01\n        /* \"#utility.yul\":24690:24698   */\n      dup6\n        /* \"#utility.yul\":24687:24702   */\n      gt\n        /* \"#utility.yul\":24679:25391   */\n      iszero\n      tag_597\n      jumpi\n        /* \"#utility.yul\":24795:24799   */\n      dup1\n        /* \"#utility.yul\":24790:24793   */\n      dup7\n        /* \"#utility.yul\":24786:24800   */\n      div\n        /* \"#utility.yul\":24780:24784   */\n      dup2\n        /* \"#utility.yul\":24777:24801   */\n      gt\n        /* \"#utility.yul\":24774:24824   */\n      iszero\n      tag_598\n      jumpi\n        /* \"#utility.yul\":24804:24822   */\n      tag_599\n      tag_592\n      jump\t// in\n    tag_599:\n        /* \"#utility.yul\":24774:24824   */\n    tag_598:\n        /* \"#utility.yul\":24854:24855   */\n      0x01\n        /* \"#utility.yul\":24844:24852   */\n      dup6\n        /* \"#utility.yul\":24840:24856   */\n      and\n        /* \"#utility.yul\":24837:25288   */\n      iszero\n      tag_600\n      jumpi\n        /* \"#utility.yul\":25269:25273   */\n      dup1\n        /* \"#utility.yul\":25262:25267   */\n      dup3\n        /* \"#utility.yul\":25258:25274   */\n      mul\n        /* \"#utility.yul\":25249:25274   */\n      swap2\n      pop\n        /* \"#utility.yul\":24837:25288   */\n    tag_600:\n        /* \"#utility.yul\":25319:25323   */\n      dup1\n        /* \"#utility.yul\":25313:25317   */\n      dup2\n        /* \"#utility.yul\":25309:25324   */\n      mul\n        /* \"#utility.yul\":25301:25324   */\n      swap1\n      pop\n        /* \"#utility.yul\":25349:25381   */\n      tag_601\n        /* \"#utility.yul\":25372:25380   */\n      dup6\n        /* \"#utility.yul\":25349:25381   */\n      tag_602\n      jump\t// in\n    tag_601:\n        /* \"#utility.yul\":25337:25381   */\n      swap5\n      pop\n        /* \"#utility.yul\":24679:25391   */\n      jump(tag_595)\n    tag_597:\n        /* \"#utility.yul\":24549:25397   */\n      swap5\n      pop\n      swap5\n      swap3\n      pop\n      pop\n      pop\n      jump\t// out\n        /* \"#utility.yul\":25403:25688   */\n    tag_230:\n        /* \"#utility.yul\":25463:25468   */\n      0x00\n        /* \"#utility.yul\":25487:25510   */\n      tag_604\n        /* \"#utility.yul\":25505:25509   */\n      dup3\n        /* \"#utility.yul\":25487:25510   */\n      tag_527\n      jump\t// in\n    tag_604:\n        /* \"#utility.yul\":25479:25510   */\n      swap2\n      pop\n        /* \"#utility.yul\":25531:25558   */\n      tag_605\n        /* \"#utility.yul\":25549:25557   */\n      dup4\n        /* \"#utility.yul\":25531:25558   */\n      tag_527\n      jump\t// in\n    tag_605:\n        /* \"#utility.yul\":25519:25558   */\n      swap3\n      pop\n        /* \"#utility.yul\":25577:25681   */\n      tag_606\n        /* \"#utility.yul\":25614:25680   */\n      0xffffffffffffffffffffffffffffffffffffffffffffffffffffffffffffffff\n        /* \"#utility.yul\":25604:25612   */\n      dup5\n        /* \"#utility.yul\":25598:25602   */\n      dup5\n        /* \"#utility.yul\":25577:25681   */\n      tag_607\n      jump\t// in\n    tag_606:\n        /* \"#utility.yul\":25568:25681   */\n      swap1\n      pop\n        /* \"#utility.yul\":25403:25688   */\n      swap3\n      swap2\n      pop\n      pop\n      jump\t// out\n        /* \"#utility.yul\":25694:26767   */\n    tag_607:\n        /* \"#utility.yul\":25748:25753   */\n      0x00\n        /* \"#utility.yul\":25939:25947   */\n      dup3\n        /* \"#utility.yul\":25929:25969   */\n      tag_609\n      jumpi\n        /* \"#utility.yul\":25960:25961   */\n      0x01\n        /* \"#utility.yul\":25951:25961   */\n      swap1\n      pop\n        /* \"#utility.yul\":25962:25967   */\n      jump(tag_608)\n        /* \"#utility.yul\":25929:25969   */\n    tag_609:\n        /* \"#utility.yul\":25988:25992   */\n      dup2\n        /* \"#utility.yul\":25978:26014   */\n      tag_610\n      jumpi\n        /* \"#utility.yul\":26005:26006   */\n      0x00\n        /* \"#utility.yul\":25996:26006   */\n      swap1\n      pop\n        /* \"#utility.yul\":26007:26012   */\n      jump(tag_608)\n        /* \"#utility.yul\":25978:26014   */\n    tag_610:\n        /* \"#utility.yul\":26074:26078   */\n      dup2\n        /* \"#utility.yul\":26122:26123   */\n      0x01\n        /* \"#utility.yul\":26117:26144   */\n      dup2\n      eq\n      tag_612\n      jumpi\n        /* \"#utility.yul\":26158:26159   */\n      0x02\n        /* \"#utility.yul\":26153:26344   */\n      dup2\n      eq\n      tag_613\n      jumpi\n        /* \"#utility.yul\":26067:26344   */\n      jump(tag_611)\n        /* \"#utility.yul\":26117:26144   */\n    tag_612:\n        /* \"#utility.yul\":26135:26136   */\n      0x01\n        /* \"#utility.yul\":26126:26136   */\n      swap2\n      pop\n        /* \"#utility.yul\":26137:26142   */\n      pop\n      jump(tag_608)\n        /* \"#utility.yul\":26153:26344   */\n    tag_613:\n        /* \"#utility.yul\":26198:26201   */\n      0xff\n        /* \"#utility.yul\":26188:26196   */\n      dup5\n        /* \"#utility.yul\":26185:26202   */\n      gt\n        /* \"#utility.yul\":26182:26225   */\n      iszero\n      tag_614\n      jumpi\n        /* \"#utility.yul\":26205:26223   */\n      tag_615\n      tag_592\n      jump\t// in\n    tag_615:\n        /* \"#utility.yul\":26182:26225   */\n    tag_614:\n        /* \"#utility.yul\":26254:26262   */\n      dup4\n        /* \"#utility.yul\":26251:26252   */\n      0x02\n        /* \"#utility.yul\":26247:26263   */\n      exp\n        /* \"#utility.yul\":26238:26263   */\n      swap2\n      pop\n        /* \"#utility.yul\":26289:26292   */\n      dup5\n        /* \"#utility.yul\":26282:26287   */\n      dup3\n        /* \"#utility.yul\":26279:26293   */\n      gt\n        /* \"#utility.yul\":26276:26316   */\n      iszero\n      tag_616\n      jumpi\n        /* \"#utility.yul\":26296:26314   */\n      tag_617\n      tag_592\n      jump\t// in\n    tag_617:\n        /* \"#utility.yul\":26276:26316   */\n    tag_616:\n        /* \"#utility.yul\":26329:26334   */\n      pop\n      jump(tag_608)\n        /* \"#utility.yul\":26067:26344   */\n    tag_611:\n      pop\n        /* \"#utility.yul\":26453:26455   */\n      0x20\n        /* \"#utility.yul\":26443:26451   */\n      dup4\n        /* \"#utility.yul\":26440:26456   */\n      lt\n        /* \"#utility.yul\":26434:26437   */\n      0x0133\n        /* \"#utility.yul\":26428:26432   */\n      dup4\n        /* \"#utility.yul\":26425:26438   */\n      lt\n        /* \"#utility.yul\":26421:26457   */\n      and\n        /* \"#utility.yul\":26403:26405   */\n      0x4e\n        /* \"#utility.yul\":26393:26401   */\n      dup5\n        /* \"#utility.yul\":26390:26406   */\n      lt\n        /* \"#utility.yul\":26385:26387   */\n      0x0b\n        /* \"#utility.yul\":26379:26383   */\n      dup5\n        /* \"#utility.yul\":26376:26388   */\n      lt\n        /* \"#utility.yul\":26372:26407   */\n      and\n        /* \"#utility.yul\":26356:26467   */\n      or\n        /* \"#utility.yul\":26353:26599   */\n      iszero\n      tag_618\n      jumpi\n        /* \"#utility.yul\":26509:26517   */\n      dup3\n        /* \"#utility.yul\":26503:26507   */\n      dup3\n        /* \"#utility.yul\":26499:26518   */\n      exp\n        /* \"#utility.yul\":26490:26518   */\n      swap1\n      pop\n        /* \"#utility.yul\":26544:26547   */\n      dup4\n        /* \"#utility.yul\":26537:26542   */\n      dup2\n        /* \"#utility.yul\":26534:26548   */\n      gt\n        /* \"#utility.yul\":26531:26571   */\n      iszero\n      tag_619\n      jumpi\n        /* \"#utility.yul\":26551:26569   */\n      tag_620\n      tag_592\n      jump\t// in\n    tag_620:\n        /* \"#utility.yul\":26531:26571   */\n    tag_619:\n        /* \"#utility.yul\":26584:26589   */\n      jump(tag_608)\n        /* \"#utility.yul\":26353:26599   */\n    tag_618:\n        /* \"#utility.yul\":26624:26666   */\n      tag_621\n        /* \"#utility.yul\":26662:26665   */\n      dup5\n        /* \"#utility.yul\":26652:26660   */\n      dup5\n        /* \"#utility.yul\":26646:26650   */\n      dup5\n        /* \"#utility.yul\":26643:26644   */\n      0x01\n        /* \"#utility.yul\":26624:26666   */\n      tag_593\n      jump\t// in\n    tag_621:\n        /* \"#utility.yul\":26609:26666   */\n      swap3\n      pop\n      swap1\n      pop\n        /* \"#utility.yul\":26698:26702   */\n      dup2\n        /* \"#utility.yul\":26693:26696   */\n      dup5\n        /* \"#utility.yul\":26689:26703   */\n      div\n        /* \"#utility.yul\":26682:26687   */\n      dup2\n        /* \"#utility.yul\":26679:26704   */\n      gt\n        /* \"#utility.yul\":26676:26727   */\n      iszero\n      tag_622\n      jumpi\n        /* \"#utility.yul\":26707:26725   */\n      tag_623\n      tag_592\n      jump\t// in\n    tag_623:\n        /* \"#utility.yul\":26676:26727   */\n    tag_622:\n        /* \"#utility.yul\":26756:26760   */\n      dup2\n        /* \"#utility.yul\":26749:26754   */\n      dup2\n        /* \"#utility.yul\":26745:26761   */\n      mul\n        /* \"#utility.yul\":26736:26761   */\n      swap1\n      pop\n        /* \"#utility.yul\":25694:26767   */\n    tag_608:\n      swap4\n      swap3\n      pop\n      pop\n      pop\n      jump\t// out\n        /* \"#utility.yul\":26773:27121   */\n    tag_228:\n        /* \"#utility.yul\":26813:26820   */\n      0x00\n        /* \"#utility.yul\":26836:26856   */\n      tag_625\n        /* \"#utility.yul\":26854:26855   */\n      dup3\n        /* \"#utility.yul\":26836:26856   */\n      tag_527\n      jump\t// in\n    tag_625:\n        /* \"#utility.yul\":26831:26856   */\n      swap2\n      pop\n        /* \"#utility.yul\":26870:26890   */\n      tag_626\n        /* \"#utility.yul\":26888:26889   */\n      dup4\n        /* \"#utility.yul\":26870:26890   */\n      tag_527\n      jump\t// in\n    tag_626:\n        /* \"#utility.yul\":26865:26890   */\n      swap3\n      pop\n        /* \"#utility.yul\":27058:27059   */\n      dup2\n        /* \"#utility.yul\":26990:27056   */\n      0xffffffffffffffffffffffffffffffffffffffffffffffffffffffffffffffff\n        /* \"#utility.yul\":26986:27060   */\n      div\n        /* \"#utility.yul\":26983:26984   */\n      dup4\n        /* \"#utility.yul\":26980:27061   */\n      gt\n        /* \"#utility.yul\":26975:26976   */\n      dup3\n        /* \"#utility.yul\":26968:26977   */\n      iszero\n        /* \"#utility.yul\":26961:26978   */\n      iszero\n        /* \"#utility.yul\":26957:27062   */\n      and\n        /* \"#utility.yul\":26954:27085   */\n      iszero\n      tag_627\n      jumpi\n        /* \"#utility.yul\":27065:27083   */\n      tag_628\n      tag_592\n      jump\t// in\n    tag_628:\n        /* \"#utility.yul\":26954:27085   */\n    tag_627:\n        /* \"#utility.yul\":27113:27114   */\n      dup3\n        /* \"#utility.yul\":27110:27111   */\n      dup3\n        /* \"#utility.yul\":27106:27115   */\n      mul\n        /* \"#utility.yul\":27095:27115   */\n      swap1\n      pop\n        /* \"#utility.yul\":26773:27121   */\n      swap3\n      swap2\n      pop\n      pop\n      jump\t// out\n        /* \"#utility.yul\":27127:27318   */\n    tag_226:\n        /* \"#utility.yul\":27167:27171   */\n      0x00\n        /* \"#utility.yul\":27187:27207   */\n      tag_630\n        /* \"#utility.yul\":27205:27206   */\n      dup3\n        /* \"#utility.yul\":27187:27207   */\n      tag_527\n      jump\t// in\n    tag_630:\n        /* \"#utility.yul\":27182:27207   */\n      swap2\n      pop\n        /* \"#utility.yul\":27221:27241   */\n      tag_631\n        /* \"#utility.yul\":27239:27240   */\n      dup4\n        /* \"#utility.yul\":27221:27241   */\n      tag_527\n      jump\t// in\n    tag_631:\n        /* \"#utility.yul\":27216:27241   */\n      swap3\n      pop\n        /* \"#utility.yul\":27260:27261   */\n      dup3\n        /* \"#utility.yul\":27257:27258   */\n      dup3\n        /* \"#utility.yul\":27254:27262   */\n      lt\n        /* \"#utility.yul\":27251:27285   */\n      iszero\n      tag_632\n      jumpi\n        /* \"#utility.yul\":27265:27283   */\n      tag_633\n      tag_592\n      jump\t// in\n    tag_633:\n        /* \"#utility.yul\":27251:27285   */\n    tag_632:\n        /* \"#utility.yul\":27310:27311   */\n      dup3\n        /* \"#utility.yul\":27307:27308   */\n      dup3\n        /* \"#utility.yul\":27303:27312   */\n      sub\n        /* \"#utility.yul\":27295:27312   */\n      swap1\n      pop\n        /* \"#utility.yul\":27127:27318   */\n      swap3\n      swap2\n      pop\n      pop\n      jump\t// out\n        /* \"#utility.yul\":27324:27414   */\n    tag_462:\n        /* \"#utility.yul\":27358:27365   */\n      0x00\n        /* \"#utility.yul\":27401:27406   */\n      dup2\n        /* \"#utility.yul\":27394:27407   */\n      iszero\n        /* \"#utility.yul\":27387:27408   */\n      iszero\n        /* \"#utility.yul\":27376:27408   */\n      swap1\n      pop\n        /* \"#utility.yul\":27324:27414   */\n      swap2\n      swap1\n      pop\n      jump\t// out\n        /* \"#utility.yul\":27420:27497   */\n    tag_465:\n        /* \"#utility.yul\":27457:27464   */\n      0x00\n        /* \"#utility.yul\":27486:27491   */\n      dup2\n        /* \"#utility.yul\":27475:27491   */\n      swap1\n      pop\n        /* \"#utility.yul\":27420:27497   */\n      swap2\n      swap1\n      pop\n      jump\t// out\n        /* \"#utility.yul\":27503:27580   */\n    tag_527:\n        /* \"#utility.yul\":27540:27547   */\n      0x00\n        /* \"#utility.yul\":27569:27574   */\n      dup2\n        /* \"#utility.yul\":27558:27574   */\n      swap1\n      pop\n        /* \"#utility.yul\":27503:27580   */\n      swap2\n      swap1\n      pop\n      jump\t// out\n        /* \"#utility.yul\":27586:27672   */\n    tag_531:\n        /* \"#utility.yul\":27621:27628   */\n      0x00\n        /* \"#utility.yul\":27661:27665   */\n      0xff\n        /* \"#utility.yul\":27654:27659   */\n      dup3\n        /* \"#utility.yul\":27650:27666   */\n      and\n        /* \"#utility.yul\":27639:27666   */\n      swap1\n      pop\n        /* \"#utility.yul\":27586:27672   */\n      swap2\n      swap1\n      pop\n      jump\t// out\n        /* \"#utility.yul\":27678:27985   */\n    tag_481:\n        /* \"#utility.yul\":27746:27747   */\n      0x00\n        /* \"#utility.yul\":27756:27869   */\n    tag_639:\n        /* \"#utility.yul\":27770:27776   */\n      dup4\n        /* \"#utility.yul\":27767:27768   */\n      dup2\n        /* \"#utility.yul\":27764:27777   */\n      lt\n        /* \"#utility.yul\":27756:27869   */\n      iszero\n      tag_641\n      jumpi\n        /* \"#utility.yul\":27855:27856   */\n      dup1\n        /* \"#utility.yul\":27850:27853   */\n      dup3\n        /* \"#utility.yul\":27846:27857   */\n      add\n        /* \"#utility.yul\":27840:27858   */\n      mload\n        /* \"#utility.yul\":27836:27837   */\n      dup2\n        /* \"#utility.yul\":27831:27834   */\n      dup5\n        /* \"#utility.yul\":27827:27838   */\n      add\n        /* \"#utility.yul\":27820:27859   */\n      mstore\n        /* \"#utility.yul\":27792:27794   */\n      0x20\n        /* \"#utility.yul\":27789:27790   */\n      dup2\n        /* \"#utility.yul\":27785:27795   */\n      add\n        /* \"#utility.yul\":27780:27795   */\n      swap1\n      pop\n        /* \"#utility.yul\":27756:27869   */\n      jump(tag_639)\n    tag_641:\n        /* \"#utility.yul\":27887:27893   */\n      dup4\n        /* \"#utility.yul\":27884:27885   */\n      dup2\n        /* \"#utility.yul\":27881:27894   */\n      gt\n        /* \"#utility.yul\":27878:27979   */\n      iszero\n      tag_642\n      jumpi\n        /* \"#utility.yul\":27967:27968   */\n      0x00\n        /* \"#utility.yul\":27958:27964   */\n      dup5\n        /* \"#utility.yul\":27953:27956   */\n      dup5\n        /* \"#utility.yul\":27949:27965   */\n      add\n        /* \"#utility.yul\":27942:27969   */\n      mstore\n        /* \"#utility.yul\":27878:27979   */\n    tag_642:\n        /* \"#utility.yul\":27727:27985   */\n      pop\n        /* \"#utility.yul\":27678:27985   */\n      pop\n      pop\n      pop\n      jump\t// out\n        /* \"#utility.yul\":27991:28272   */\n    tag_573:\n        /* \"#utility.yul\":28074:28101   */\n      tag_644\n        /* \"#utility.yul\":28096:28100   */\n      dup3\n        /* \"#utility.yul\":28074:28101   */\n      tag_645\n      jump\t// in\n    tag_644:\n        /* \"#utility.yul\":28066:28072   */\n      dup2\n        /* \"#utility.yul\":28062:28102   */\n      add\n        /* \"#utility.yul\":28204:28210   */\n      dup2\n        /* \"#utility.yul\":28192:28202   */\n      dup2\n        /* \"#utility.yul\":28189:28211   */\n      lt\n        /* \"#utility.yul\":28168:28186   */\n      0xffffffffffffffff\n        /* \"#utility.yul\":28156:28166   */\n      dup3\n        /* \"#utility.yul\":28153:28187   */\n      gt\n        /* \"#utility.yul\":28150:28212   */\n      or\n        /* \"#utility.yul\":28147:28235   */\n      iszero\n      tag_646\n      jumpi\n        /* \"#utility.yul\":28215:28233   */\n      tag_647\n      tag_578\n      jump\t// in\n    tag_647:\n        /* \"#utility.yul\":28147:28235   */\n    tag_646:\n        /* \"#utility.yul\":28255:28265   */\n      dup1\n        /* \"#utility.yul\":28251:28253   */\n      0x40\n        /* \"#utility.yul\":28244:28266   */\n      mstore\n        /* \"#utility.yul\":28034:28272   */\n      pop\n        /* \"#utility.yul\":27991:28272   */\n      pop\n      pop\n      jump\t// out\n        /* \"#utility.yul\":28278:28511   */\n    tag_250:\n        /* \"#utility.yul\":28317:28320   */\n      0x00\n        /* \"#utility.yul\":28340:28364   */\n      tag_649\n        /* \"#utility.yul\":28358:28363   */\n      dup3\n        /* \"#utility.yul\":28340:28364   */\n      tag_527\n      jump\t// in\n    tag_649:\n        /* \"#utility.yul\":28331:28364   */\n      swap2\n      pop\n        /* \"#utility.yul\":28386:28452   */\n      0xffffffffffffffffffffffffffffffffffffffffffffffffffffffffffffffff\n        /* \"#utility.yul\":28379:28384   */\n      dup3\n        /* \"#utility.yul\":28376:28453   */\n      eq\n        /* \"#utility.yul\":28373:28476   */\n      iszero\n      tag_650\n      jumpi\n        /* \"#utility.yul\":28456:28474   */\n      tag_651\n      tag_592\n      jump\t// in\n    tag_651:\n        /* \"#utility.yul\":28373:28476   */\n    tag_650:\n        /* \"#utility.yul\":28503:28504   */\n      0x01\n        /* \"#utility.yul\":28496:28501   */\n      dup3\n        /* \"#utility.yul\":28492:28505   */\n      add\n        /* \"#utility.yul\":28485:28505   */\n      swap1\n      pop\n        /* \"#utility.yul\":28278:28511   */\n      swap2\n      swap1\n      pop\n      jump\t// out\n        /* \"#utility.yul\":28517:28596   */\n    tag_473:\n        /* \"#utility.yul\":28556:28563   */\n      0x00\n        /* \"#utility.yul\":28585:28590   */\n      dup2\n        /* \"#utility.yul\":28574:28590   */\n      swap1\n      pop\n        /* \"#utility.yul\":28517:28596   */\n      swap2\n      swap1\n      pop\n      jump\t// out\n        /* \"#utility.yul\":28602:28782   */\n    tag_592:\n        /* \"#utility.yul\":28650:28727   */\n      0x4e487b7100000000000000000000000000000000000000000000000000000000\n        /* \"#utility.yul\":28647:28648   */\n      0x00\n        /* \"#utility.yul\":28640:28728   */\n      mstore\n        /* \"#utility.yul\":28747:28751   */\n      0x11\n        /* \"#utility.yul\":28744:28745   */\n      0x04\n        /* \"#utility.yul\":28737:28752   */\n      mstore\n        /* \"#utility.yul\":28771:28775   */\n      0x24\n        /* \"#utility.yul\":28768:28769   */\n      0x00\n        /* \"#utility.yul\":28761:28776   */\n      revert\n        /* \"#utility.yul\":28788:28968   */\n    tag_241:\n        /* \"#utility.yul\":28836:28913   */\n      0x4e487b7100000000000000000000000000000000000000000000000000000000\n        /* \"#utility.yul\":28833:28834   */\n      0x00\n        /* \"#utility.yul\":28826:28914   */\n      mstore\n        /* \"#utility.yul\":28933:28937   */\n      0x12\n        /* \"#utility.yul\":28930:28931   */\n      0x04\n        /* \"#utility.yul\":28923:28938   */\n      mstore\n        /* \"#utility.yul\":28957:28961   */\n      0x24\n        /* \"#utility.yul\":28954:28955   */\n      0x00\n        /* \"#utility.yul\":28947:28962   */\n      revert\n        /* \"#utility.yul\":28974:29154   */\n    tag_93:\n        /* \"#utility.yul\":29022:29099   */\n      0x4e487b7100000000000000000000000000000000000000000000000000000000\n        /* \"#utility.yul\":29019:29020   */\n      0x00\n        /* \"#utility.yul\":29012:29100   */\n      mstore\n        /* \"#utility.yul\":29119:29123   */\n      0x32\n        /* \"#utility.yul\":29116:29117   */\n      0x04\n        /* \"#utility.yul\":29109:29124   */\n      mstore\n        /* \"#utility.yul\":29143:29147   */\n      0x24\n        /* \"#utility.yul\":29140:29141   */\n      0x00\n        /* \"#utility.yul\":29133:29148   */\n      revert\n        /* \"#utility.yul\":29160:29340   */\n    tag_578:\n        /* \"#utility.yul\":29208:29285   */\n      0x4e487b7100000000000000000000000000000000000000000000000000000000\n        /* \"#utility.yul\":29205:29206   */\n      0x00\n        /* \"#utility.yul\":29198:29286   */\n      mstore\n        /* \"#utility.yul\":29305:29309   */\n      0x41\n        /* \"#utility.yul\":29302:29303   */\n      0x04\n        /* \"#utility.yul\":29295:29310   */\n      mstore\n        /* \"#utility.yul\":29329:29333   */\n      0x24\n        /* \"#utility.yul\":29326:29327   */\n      0x00\n        /* \"#utility.yul\":29319:29334   */\n      revert\n        /* \"#utility.yul\":29346:29463   */\n    tag_330:\n        /* \"#utility.yul\":29455:29456   */\n      0x00\n        /* \"#utility.yul\":29452:29453   */\n      dup1\n        /* \"#utility.yul\":29445:29457   */\n      revert\n        /* \"#utility.yul\":29469:29586   */\n    tag_342:\n        /* \"#utility.yul\":29578:29579   */\n      0x00\n        /* \"#utility.yul\":29575:29576   */\n      dup1\n        /* \"#utility.yul\":29568:29580   */\n      revert\n        /* \"#utility.yul\":29715:29832   */\n    tag_320:\n        /* \"#utility.yul\":29824:29825   */\n      0x00\n        /* \"#utility.yul\":29821:29822   */\n      dup1\n        /* \"#utility.yul\":29814:29826   */\n      revert\n        /* \"#utility.yul\":29961:30078   */\n    tag_377:\n        /* \"#utility.yul\":30070:30071   */\n      0x00\n        /* \"#utility.yul\":30067:30068   */\n      dup1\n        /* \"#utility.yul\":30060:30072   */\n      revert\n        /* \"#utility.yul\":30084:30186   */\n    tag_645:\n        /* \"#utility.yul\":30125:30131   */\n      0x00\n        /* \"#utility.yul\":30176:30178   */\n      0x1f\n        /* \"#utility.yul\":30172:30179   */\n      not\n        /* \"#utility.yul\":30167:30169   */\n      0x1f\n        /* \"#utility.yul\":30160:30165   */\n      dup4\n        /* \"#utility.yul\":30156:30170   */\n      add\n        /* \"#utility.yul\":30152:30180   */\n      and\n        /* \"#utility.yul\":30142:30180   */\n      swap1\n      pop\n        /* \"#utility.yul\":30084:30186   */\n      swap2\n      swap1\n      pop\n      jump\t// out\n        /* \"#utility.yul\":30192:30294   */\n    tag_602:\n        /* \"#utility.yul\":30234:30242   */\n      0x00\n        /* \"#utility.yul\":30281:30286   */\n      dup2\n        /* \"#utility.yul\":30278:30279   */\n      0x01\n        /* \"#utility.yul\":30274:30287   */\n      shr\n        /* \"#utility.yul\":30253:30287   */\n      swap1\n      pop\n        /* \"#utility.yul\":30192:30294   */\n      swap2\n      swap1\n      pop\n      jump\t// out\n        /* \"#utility.yul\":30300:30464   */\n    tag_487:\n        /* \"#utility.yul\":30440:30456   */\n      0x7532206e6f74206d617463686564000000000000000000000000000000000000\n        /* \"#utility.yul\":30436:30437   */\n      0x00\n        /* \"#utility.yul\":30428:30434   */\n      dup3\n        /* \"#utility.yul\":30424:30438   */\n      add\n        /* \"#utility.yul\":30417:30457   */\n      mstore\n        /* \"#utility.yul\":30300:30464   */\n      pop\n      jump\t// out\n        /* \"#utility.yul\":30470:30635   */\n    tag_492:\n        /* \"#utility.yul\":30610:30627   */\n      0x637431206e6f74206d6174636865640000000000000000000000000000000000\n        /* \"#utility.yul\":30606:30607   */\n      0x00\n        /* \"#utility.yul\":30598:30604   */\n      dup3\n        /* \"#utility.yul\":30594:30608   */\n      add\n        /* \"#utility.yul\":30587:30628   */\n      mstore\n        /* \"#utility.yul\":30470:30635   */\n      pop\n      jump\t// out\n        /* \"#utility.yul\":30641:30804   */\n    tag_497:\n        /* \"#utility.yul\":30781:30796   */\n      0x65206e6f74206d61746368656400000000000000000000000000000000000000\n        /* \"#utility.yul\":30777:30778   */\n      0x00\n        /* \"#utility.yul\":30769:30775   */\n      dup3\n        /* \"#utility.yul\":30765:30779   */\n      add\n        /* \"#utility.yul\":30758:30797   */\n      mstore\n        /* \"#utility.yul\":30641:30804   */\n      pop\n      jump\t// out\n        /* \"#utility.yul\":30810:30973   */\n    tag_502:\n        /* \"#utility.yul\":30950:30965   */\n      0x79206e6f74206d61746368656400000000000000000000000000000000000000\n        /* \"#utility.yul\":30946:30947   */\n      0x00\n        /* \"#utility.yul\":30938:30944   */\n      dup3\n        /* \"#utility.yul\":30934:30948   */\n      add\n        /* \"#utility.yul\":30927:30966   */\n      mstore\n        /* \"#utility.yul\":30810:30973   */\n      pop\n      jump\t// out\n        /* \"#utility.yul\":30979:31143   */\n    tag_507:\n        /* \"#utility.yul\":31119:31135   */\n      0x7531206e6f74206d617463686564000000000000000000000000000000000000\n        /* \"#utility.yul\":31115:31116   */\n      0x00\n        /* \"#utility.yul\":31107:31113   */\n      dup3\n        /* \"#utility.yul\":31103:31117   */\n      add\n        /* \"#utility.yul\":31096:31136   */\n      mstore\n        /* \"#utility.yul\":30979:31143   */\n      pop\n      jump\t// out\n        /* \"#utility.yul\":31149:31312   */\n    tag_512:\n        /* \"#utility.yul\":31289:31304   */\n      0x76206e6f74206d61746368656400000000000000000000000000000000000000\n        /* \"#utility.yul\":31285:31286   */\n      0x00\n        /* \"#utility.yul\":31277:31283   */\n      dup3\n        /* \"#utility.yul\":31273:31287   */\n      add\n        /* \"#utility.yul\":31266:31305   */\n      mstore\n        /* \"#utility.yul\":31149:31312   */\n      pop\n      jump\t// out\n        /* \"#utility.yul\":31318:31483   */\n    tag_517:\n        /* \"#utility.yul\":31458:31475   */\n      0x637430206e6f74206d6174636865640000000000000000000000000000000000\n        /* \"#utility.yul\":31454:31455   */\n      0x00\n        /* \"#utility.yul\":31446:31452   */\n      dup3\n        /* \"#utility.yul\":31442:31456   */\n      add\n        /* \"#utility.yul\":31435:31476   */\n      mstore\n        /* \"#utility.yul\":31318:31483   */\n      pop\n      jump\t// out\n        /* \"#utility.yul\":31489:31611   */\n    tag_334:\n        /* \"#utility.yul\":31562:31586   */\n      tag_675\n        /* \"#utility.yul\":31580:31585   */\n      dup2\n        /* \"#utility.yul\":31562:31586   */\n      tag_465\n      jump\t// in\n    tag_675:\n        /* \"#utility.yul\":31555:31560   */\n      dup2\n        /* \"#utility.yul\":31552:31587   */\n      eq\n        /* \"#utility.yul\":31542:31605   */\n      tag_676\n      jumpi\n        /* \"#utility.yul\":31601:31602   */\n      0x00\n        /* \"#utility.yul\":31598:31599   */\n      dup1\n        /* \"#utility.yul\":31591:31603   */\n      revert\n        /* \"#utility.yul\":31542:31605   */\n    tag_676:\n        /* \"#utility.yul\":31489:31611   */\n      pop\n      jump\t// out\n        /* \"#utility.yul\":31617:31739   */\n    tag_369:\n        /* \"#utility.yul\":31690:31714   */\n      tag_678\n        /* \"#utility.yul\":31708:31713   */\n      dup2\n        /* \"#utility.yul\":31690:31714   */\n      tag_527\n      jump\t// in\n    tag_678:\n        /* \"#utility.yul\":31683:31688   */\n      dup2\n        /* \"#utility.yul\":31680:31715   */\n      eq\n        /* \"#utility.yul\":31670:31733   */\n      tag_679\n      jumpi\n        /* \"#utility.yul\":31729:31730   */\n      0x00\n        /* \"#utility.yul\":31726:31727   */\n      dup1\n        /* \"#utility.yul\":31719:31731   */\n      revert\n        /* \"#utility.yul\":31670:31733   */\n    tag_679:\n        /* \"#utility.yul\":31617:31739   */\n      pop\n      jump\t// out\n        /* \"#utility.yul\":31745:31863   */\n    tag_373:\n        /* \"#utility.yul\":31816:31838   */\n      tag_681\n        /* \"#utility.yul\":31832:31837   */\n      dup2\n        /* \"#utility.yul\":31816:31838   */\n      tag_531\n      jump\t// in\n    tag_681:\n        /* \"#utility.yul\":31809:31814   */\n      dup2\n        /* \"#utility.yul\":31806:31839   */\n      eq\n        /* \"#utility.yul\":31796:31857   */\n      tag_682\n      jumpi\n        /* \"#utility.yul\":31853:31854   */\n      0x00\n        /* \"#utility.yul\":31850:31851   */\n      dup1\n        /* \"#utility.yul\":31843:31855   */\n      revert\n        /* \"#utility.yul\":31796:31857   */\n    tag_682:\n        /* \"#utility.yul\":31745:31863   */\n      pop\n      jump\t// out\n\n    auxdata: 0xa2646970667358221220cde1eebe2a1fb85b050231f3ab1ffee448adc52751a23e3e949a0f54b83660ae64736f6c63430008070033\n}\n",
				"bytecode": {
					"linkReferences": {},
					"object": "608060405234801561001057600080fd5b506121dd806100206000396000f3fe608060405234801561001057600080fd5b50600436106100b45760003560e01c80637befbde8116100715780637befbde8146101d95780637c75074a146102095780638b7b8cf2146102395780639b0421dd14610255578063b83f457a14610285578063daf4b08c146102b5576100b4565b8063082084b1146100b95780630868a3f2146100e957806315e54a661461011957806353495d3d146101495780635714a50514610179578063783ce458146101a9575b600080fd5b6100d360048036038101906100ce9190611426565b6102d1565b6040516100e09190611b20565b60405180910390f35b61010360048036038101906100fe9190611602565b610574565b6040516101109190611a25565b60405180910390f35b610133600480360381019061012e9190611642565b610627565b6040516101409190611a0a565b60405180910390f35b610163600480360381019061015e9190611466565b610771565b6040516101709190611a0a565b60405180910390f35b610193600480360381019061018e9190611426565b610a80565b6040516101a091906119ef565b60405180910390f35b6101c360048036038101906101be91906115af565b610b44565b6040516101d09190611b3c565b60405180910390f35b6101f360048036038101906101ee91906114e6565b610b8d565b60405161020091906119ef565b60405180910390f35b610223600480360381019061021e9190611582565b610cfe565b6040516102309190611a0a565b60405180910390f35b610253600480360381019061024e9190611554565b610d97565b005b61026f600480360381019061026a9190611582565b610e17565b60405161027c9190611b3c565b60405180910390f35b61029f600480360381019061029a91906113e6565b610e96565b6040516102ac91906119ef565b60405180910390f35b6102cf60048036038101906102ca9190611526565b610fa7565b005b6102d9611090565b6102e1611090565b61032a6000800160028060200260405190810160405280929190826002801561031f576020028201915b81548152602001906001019080831161030b575b505050505084610a80565b816000018190525061037c6000600201600280602002604051908101604052809291908260028015610371576020028201915b81548152602001906001019080831161035d575b505050505084610a80565b81602001819052506103d7846103d260006008016002806020026040519081016040528092919082600280156103c7576020028201915b8154815260200190600101908083116103b3575b505050505086610a80565b610e96565b8160400181905250600081600001516000600281106103f9576103f8611fb3565b5b6020020151826000015160016002811061041657610415611fb3565b5b6020020151836020015160006002811061043357610432611fb3565b5b602002015184602001516001600281106104505761044f611fb3565b5b6020020151856040015160006002811061046d5761046c611fb3565b5b6020020151866040015160016002811061048a57610489611fb3565b5b60200201516040516020016104a496959493929190611968565b60405160208183030381529060405280519060200120905061056161050960006004016002806020026040519081016040528092919082600280156104fe576020028201915b8154815260200190600101908083116104ea575b505050505086610a80565b61055c610556600060060160028060200260405190810160405280929190826002801561054b576020028201915b815481526020019060010190808311610537575b505050505088610a80565b84610a80565b610e96565b8260600181905250819250505092915050565b6000808360ff1614156105af5781604051602001610592919061194d565b604051602081830303815290604052805190602001209050610621565b6002826040516020016105c2919061194d565b6040516020818303038152906040526040516105de91906119d8565b602060405180830381855afa1580156105fb573d6000803e3d6000fd5b5050506040513d601f19601f8201168201806040525081019061061e91906114b9565b90505b92915050565b60006106338585610574565b600a6000015414610679576040517f08c379a000000000000000000000000000000000000000000000000000000000815260040161067090611aa0565b60405180910390fd5b60006106858584610b8d565b905060008660ff1614156106e25761069e818588610771565b6106dd576040517f08c379a00000000000000000000000000000000000000000000000000000000081526004016106d490611b00565b60405180910390fd5b61072d565b6106ed818588610771565b61072c576040517f08c379a000000000000000000000000000000000000000000000000000000000815260040161072390611a60565b60405180910390fd5b5b7f1aa6d33caa56b94b21c25e563ff093a625f303e637e89a21303d14f0d9224fec8660405161075c9190611b57565b60405180910390a16001915050949350505050565b60008060008360ff161461078957600a60090161078f565b600a6001015b9050600061079d86866102d1565b9050816000016000600281106107b6576107b5611fb3565b5b015481600001516000600281106107d0576107cf611fb3565b5b60200201511480156108155750816000016001600281106107f4576107f3611fb3565b5b0154816000015160016002811061080e5761080d611fb3565b5b6020020151145b610854576040517f08c379a000000000000000000000000000000000000000000000000000000000815260040161084b90611ac0565b60405180910390fd5b8160020160006002811061086b5761086a611fb3565b5b0154816020015160006002811061088557610884611fb3565b5b60200201511480156108ca5750816002016001600281106108a9576108a8611fb3565b5b015481602001516001600281106108c3576108c2611fb3565b5b6020020151145b610909576040517f08c379a000000000000000000000000000000000000000000000000000000000815260040161090090611a40565b60405180910390fd5b816004016000600281106109205761091f611fb3565b5b0154816040015160006002811061093a57610939611fb3565b5b602002015114801561097f57508160040160016002811061095e5761095d611fb3565b5b0154816040015160016002811061097857610977611fb3565b5b6020020151145b6109be576040517f08c379a00000000000000000000000000000000000000000000000000000000081526004016109b590611a80565b60405180910390fd5b816006016000600281106109d5576109d4611fb3565b5b015481606001516000600281106109ef576109ee611fb3565b5b6020020151148015610a34575081600601600160028110610a1357610a12611fb3565b5b01548160600151600160028110610a2d57610a2c611fb3565b5b6020020151145b610a73576040517f08c379a0000000000000000000000000000000000000000000000000000000008152600401610a6a90611ae0565b60405180910390fd5b6001925050509392505050565b610a886110d0565b610a906110f2565b83600060028110610aa457610aa3611fb3565b5b602002015181600060038110610abd57610abc611fb3565b5b60200201818152505083600160028110610ada57610ad9611fb3565b5b602002015181600160038110610af357610af2611fb3565b5b6020020181815250508281600260038110610b1157610b10611fb3565b5b60200201818152505060408260608360006007611770f18060008114610b3657610b3b565b600080fd5b50505092915050565b600060405160208152602080820152602060408201528460608201528360808201528260a082015260208160c0836005600019fa610b8157600080fd5b80519150509392505050565b610b956110d0565b6000826020610ba49190611e3d565b6008610bb09190611de3565b6002610bbc9190611cc5565b905060008460001c905060005b846002610bd69190611cc5565b811015610cd75760008382610beb9190611de3565b83610bf69190611c1c565b90506000610c607f30644e72e131a029b85045b68181585d97816a916871ca8d3c208c16d87cfd4780610c2c57610c2b611f84565b5b6003610c5a8560037f30644e72e131a029b85045b68181585d97816a916871ca8d3c208c16d87cfd47610b44565b08610e17565b905060008114610cc257610c726110d0565b8260001b81600060028110610c8a57610c89611fb3565b5b6020020181815250508160001b81600160028110610cab57610caa611fb3565b5b602002018181525050809650505050505050610cf8565b50508080610ccf90611f02565b915050610bc9565b5060405180604001604052806000801b81526020016000801b815250925050505b92915050565b600080610d4c837f183227397098d014dc2822db40c0ac2ecbc0b548b438e5469e10460b6c3e7ea37f30644e72e131a029b85045b68181585d97816a916871ca8d3c208c16d87cfd47610b44565b905060017f30644e72e131a029b85045b68181585d97816a916871ca8d3c208c16d87cfd47610d7b9190611e3d565b811415610d8c576000915050610d92565b60019150505b919050565b8060008082015181600001906002610db0929190611114565b50602082015181600201906002610dc8929190611114565b50604082015181600401906002610de0929190611114565b50606082015181600601906002610df8929190611114565b50608082015181600801906002610e10929190611114565b5090505050565b6000610e2282610cfe565b8015610e2f575060008214155b15610e8c576000610e81837f0c19139cb84c680a6e14116da060561765e05aa45a1c72a34f082305b61f3f527f30644e72e131a029b85045b68181585d97816a916871ca8d3c208c16d87cfd47610b44565b905080915050610e91565b600090505b919050565b610e9e6110d0565b610ea6611154565b83600060028110610eba57610eb9611fb3565b5b602002015181600060048110610ed357610ed2611fb3565b5b60200201818152505083600160028110610ef057610eef611fb3565b5b602002015181600160048110610f0957610f08611fb3565b5b60200201818152505082600060028110610f2657610f25611fb3565b5b602002015181600260048110610f3f57610f3e611fb3565b5b60200201818152505082600160028110610f5c57610f5b611fb3565b5b602002015181600360048110610f7557610f74611fb3565b5b602002018181525050604082608083600060066096f18060008114610f9957610f9e565b600080fd5b50505092915050565b80600a60008201518160000155602082015181600101600082015181600001906002610fd4929190611114565b50602082015181600201906002610fec929190611114565b50604082015181600401906002611004929190611114565b5060608201518160060190600261101c929190611114565b50505060408201518160090160008201518160000190600261103f929190611114565b50602082015181600201906002611057929190611114565b5060408201518160040190600261106f929190611114565b50606082015181600601906002611087929190611114565b50505090505050565b60405180608001604052806110a36110d0565b81526020016110b06110d0565b81526020016110bd6110d0565b81526020016110ca6110d0565b81525090565b6040518060400160405280600290602082028036833780820191505090505090565b6040518060600160405280600390602082028036833780820191505090505090565b8260028101928215611143579160200282015b82811115611142578251825591602001919060010190611127565b5b5090506111509190611176565b5090565b6040518060800160405280600490602082028036833780820191505090505090565b5b8082111561118f576000816000905550600101611177565b5090565b60006111a66111a184611b97565b611b72565b905080828560208602820111156111c0576111bf61201b565b5b60005b858110156111f057816111d68882611225565b8452602084019350602083019250506001810190506111c3565b5050509392505050565b600082601f83011261120f5761120e612011565b5b600261121c848285611193565b91505092915050565b60008135905061123481612162565b92915050565b60008151905061124981612162565b92915050565b6000610100828403121561126657611265612016565b5b6112706080611b72565b90506000611280848285016111fa565b6000830152506040611294848285016111fa565b60208301525060806112a8848285016111fa565b60408301525060c06112bc848285016111fa565b60608301525092915050565b600061022082840312156112df576112de612016565b5b6112e96060611b72565b905060006112f984828501611225565b600083015250602061130d8482850161124f565b6020830152506101206113228482850161124f565b60408301525092915050565b6000610140828403121561134557611344612016565b5b61134f60a0611b72565b9050600061135f848285016111fa565b6000830152506040611373848285016111fa565b6020830152506080611387848285016111fa565b60408301525060c061139b848285016111fa565b6060830152506101006113b0848285016111fa565b60808301525092915050565b6000813590506113cb81612179565b92915050565b6000813590506113e081612190565b92915050565b600080608083850312156113fd576113fc612020565b5b600061140b858286016111fa565b925050604061141c858286016111fa565b9150509250929050565b6000806060838503121561143d5761143c612020565b5b600061144b858286016111fa565b925050604061145c85828601611225565b9150509250929050565b60008060006080848603121561147f5761147e612020565b5b600061148d868287016111fa565b935050604061149e86828701611225565b92505060606114af868287016113d1565b9150509250925092565b6000602082840312156114cf576114ce612020565b5b60006114dd8482850161123a565b91505092915050565b600080604083850312156114fd576114fc612020565b5b600061150b85828601611225565b925050602061151c858286016113bc565b9150509250929050565b6000610220828403121561153d5761153c612020565b5b600061154b848285016112c8565b91505092915050565b6000610140828403121561156b5761156a612020565b5b60006115798482850161132e565b91505092915050565b60006020828403121561159857611597612020565b5b60006115a6848285016113bc565b91505092915050565b6000806000606084860312156115c8576115c7612020565b5b60006115d6868287016113bc565b93505060206115e7868287016113bc565b92505060406115f8868287016113bc565b9150509250925092565b6000806040838503121561161957611618612020565b5b6000611627858286016113d1565b925050602061163885828601611225565b9150509250929050565b6000806000806080858703121561165c5761165b612020565b5b600061166a878288016113d1565b945050602061167b87828801611225565b935050604061168c87828801611225565b925050606061169d878288016113bc565b91505092959194509250565b60006116b5838361177e565b60208301905092915050565b6116ca81611bc7565b6116d48184611bea565b92506116df82611bbd565b8060005b838110156117105781516116f787826116a9565b965061170283611bdd565b9250506001810190506116e3565b505050505050565b61172181611bc7565b61172b8184611bf5565b925061173682611bbd565b8060005b8381101561176757815161174e87826116a9565b965061175983611bdd565b92505060018101905061173a565b505050505050565b61177881611e71565b82525050565b61178781611e7d565b82525050565b61179681611e7d565b82525050565b6117ad6117a882611e7d565b611f4b565b82525050565b60006117be82611bd2565b6117c88185611c00565b93506117d8818560208601611e9e565b80840191505092915050565b60006117f1600e83611c0b565b91506117fc82612043565b602082019050919050565b6000611814600f83611c0b565b915061181f8261206c565b602082019050919050565b6000611837600d83611c0b565b915061184282612095565b602082019050919050565b600061185a600d83611c0b565b9150611865826120be565b602082019050919050565b600061187d600e83611c0b565b9150611888826120e7565b602082019050919050565b60006118a0600d83611c0b565b91506118ab82612110565b602082019050919050565b60006118c3600f83611c0b565b91506118ce82612139565b602082019050919050565b610100820160008201516118f060008501826116c1565b50602082015161190360408501826116c1565b50604082015161191660808501826116c1565b50606082015161192960c08501826116c1565b50505050565b61193881611e87565b82525050565b61194781611e91565b82525050565b6000611959828461179c565b60208201915081905092915050565b6000611974828961179c565b602082019150611984828861179c565b602082019150611994828761179c565b6020820191506119a4828661179c565b6020820191506119b4828561179c565b6020820191506119c4828461179c565b602082019150819050979650505050505050565b60006119e482846117b3565b915081905092915050565b6000604082019050611a046000830184611718565b92915050565b6000602082019050611a1f600083018461176f565b92915050565b6000602082019050611a3a600083018461178d565b92915050565b60006020820190508181036000830152611a59816117e4565b9050919050565b60006020820190508181036000830152611a7981611807565b9050919050565b60006020820190508181036000830152611a998161182a565b9050919050565b60006020820190508181036000830152611ab98161184d565b9050919050565b60006020820190508181036000830152611ad981611870565b9050919050565b60006020820190508181036000830152611af981611893565b9050919050565b60006020820190508181036000830152611b19816118b6565b9050919050565b600061010082019050611b3660008301846118d9565b92915050565b6000602082019050611b51600083018461192f565b92915050565b6000602082019050611b6c600083018461193e565b92915050565b6000611b7c611b8d565b9050611b888282611ed1565b919050565b6000604051905090565b600067ffffffffffffffff821115611bb257611bb1611fe2565b5b602082029050919050565b6000819050919050565b600060029050919050565b600081519050919050565b6000602082019050919050565b600081905092915050565b600081905092915050565b600081905092915050565b600082825260208201905092915050565b6000611c2782611e87565b9150611c3283611e87565b9250827fffffffffffffffffffffffffffffffffffffffffffffffffffffffffffffffff03821115611c6757611c66611f55565b5b828201905092915050565b6000808291508390505b6001851115611cbc57808604811115611c9857611c97611f55565b5b6001851615611ca75780820291505b8081029050611cb585612036565b9450611c7c565b94509492505050565b6000611cd082611e87565b9150611cdb83611e87565b9250611d087fffffffffffffffffffffffffffffffffffffffffffffffffffffffffffffffff8484611d10565b905092915050565b600082611d205760019050611ddc565b81611d2e5760009050611ddc565b8160018114611d445760028114611d4e57611d7d565b6001915050611ddc565b60ff841115611d6057611d5f611f55565b5b8360020a915084821115611d7757611d76611f55565b5b50611ddc565b5060208310610133831016604e8410600b8410161715611db25782820a905083811115611dad57611dac611f55565b5b611ddc565b611dbf8484846001611c72565b92509050818404811115611dd657611dd5611f55565b5b81810290505b9392505050565b6000611dee82611e87565b9150611df983611e87565b9250817fffffffffffffffffffffffffffffffffffffffffffffffffffffffffffffffff0483118215151615611e3257611e31611f55565b5b828202905092915050565b6000611e4882611e87565b9150611e5383611e87565b925082821015611e6657611e65611f55565b5b828203905092915050565b60008115159050919050565b6000819050919050565b6000819050919050565b600060ff82169050919050565b60005b83811015611ebc578082015181840152602081019050611ea1565b83811115611ecb576000848401525b50505050565b611eda82612025565b810181811067ffffffffffffffff82111715611ef957611ef8611fe2565b5b80604052505050565b6000611f0d82611e87565b91507fffffffffffffffffffffffffffffffffffffffffffffffffffffffffffffffff821415611f4057611f3f611f55565b5b600182019050919050565b6000819050919050565b7f4e487b7100000000000000000000000000000000000000000000000000000000600052601160045260246000fd5b7f4e487b7100000000000000000000000000000000000000000000000000000000600052601260045260246000fd5b7f4e487b7100000000000000000000000000000000000000000000000000000000600052603260045260246000fd5b7f4e487b7100000000000000000000000000000000000000000000000000000000600052604160045260246000fd5b600080fd5b600080fd5b600080fd5b600080fd5b6000601f19601f8301169050919050565b60008160011c9050919050565b7f7532206e6f74206d617463686564000000000000000000000000000000000000600082015250565b7f637431206e6f74206d6174636865640000000000000000000000000000000000600082015250565b7f65206e6f74206d61746368656400000000000000000000000000000000000000600082015250565b7f79206e6f74206d61746368656400000000000000000000000000000000000000600082015250565b7f7531206e6f74206d617463686564000000000000000000000000000000000000600082015250565b7f76206e6f74206d61746368656400000000000000000000000000000000000000600082015250565b7f637430206e6f74206d6174636865640000000000000000000000000000000000600082015250565b61216b81611e7d565b811461217657600080fd5b50565b61218281611e87565b811461218d57600080fd5b50565b61219981611e91565b81146121a457600080fd5b5056fea2646970667358221220cde1eebe2a1fb85b050231f3ab1ffee448adc52751a23e3e949a0f54b83660ae64736f6c63430008070033",
					"opcodes": "PUSH1 0x80 PUSH1 0x40 MSTORE CALLVALUE DUP1 ISZERO PUSH2 0x10 JUMPI PUSH1 0x0 DUP1 REVERT JUMPDEST POP PUSH2 0x21DD DUP1 PUSH2 0x20 PUSH1 0x0 CODECOPY PUSH1 0x0 RETURN INVALID PUSH1 0x80 PUSH1 0x40 MSTORE CALLVALUE DUP1 ISZERO PUSH2 0x10 JUMPI PUSH1 0x0 DUP1 REVERT JUMPDEST POP PUSH1 0x4 CALLDATASIZE LT PUSH2 0xB4 JUMPI PUSH1 0x0 CALLDATALOAD PUSH1 0xE0 SHR DUP1 PUSH4 0x7BEFBDE8 GT PUSH2 0x71 JUMPI DUP1 PUSH4 0x7BEFBDE8 EQ PUSH2 0x1D9 JUMPI DUP1 PUSH4 0x7C75074A EQ PUSH2 0x209 JUMPI DUP1 PUSH4 0x8B7B8CF2 EQ PUSH2 0x239 JUMPI DUP1 PUSH4 0x9B0421DD EQ PUSH2 0x255 JUMPI DUP1 PUSH4 0xB83F457A EQ PUSH2 0x285 JUMPI DUP1 PUSH4 0xDAF4B08C EQ PUSH2 0x2B5 JUMPI PUSH2 0xB4 JUMP JUMPDEST DUP1 PUSH4 0x82084B1 EQ PUSH2 0xB9 JUMPI DUP1 PUSH4 0x868A3F2 EQ PUSH2 0xE9 JUMPI DUP1 PUSH4 0x15E54A66 EQ PUSH2 0x119 JUMPI DUP1 PUSH4 0x53495D3D EQ PUSH2 0x149 JUMPI DUP1 PUSH4 0x5714A505 EQ PUSH2 0x179 JUMPI DUP1 PUSH4 0x783CE458 EQ PUSH2 0x1A9 JUMPI JUMPDEST PUSH1 0x0 DUP1 REVERT JUMPDEST PUSH2 0xD3 PUSH1 0x4 DUP1 CALLDATASIZE SUB DUP2 ADD SWAP1 PUSH2 0xCE SWAP2 SWAP1 PUSH2 0x1426 JUMP JUMPDEST PUSH2 0x2D1 JUMP JUMPDEST PUSH1 0x40 MLOAD PUSH2 0xE0 SWAP2 SWAP1 PUSH2 0x1B20 JUMP JUMPDEST PUSH1 0x40 MLOAD DUP1 SWAP2 SUB SWAP1 RETURN JUMPDEST PUSH2 0x103 PUSH1 0x4 DUP1 CALLDATASIZE SUB DUP2 ADD SWAP1 PUSH2 0xFE SWAP2 SWAP1 PUSH2 0x1602 JUMP JUMPDEST PUSH2 0x574 JUMP JUMPDEST PUSH1 0x40 MLOAD PUSH2 0x110 SWAP2 SWAP1 PUSH2 0x1A25 JUMP JUMPDEST PUSH1 0x40 MLOAD DUP1 SWAP2 SUB SWAP1 RETURN JUMPDEST PUSH2 0x133 PUSH1 0x4 DUP1 CALLDATASIZE SUB DUP2 ADD SWAP1 PUSH2 0x12E SWAP2 SWAP1 PUSH2 0x1642 JUMP JUMPDEST PUSH2 0x627 JUMP JUMPDEST PUSH1 0x40 MLOAD PUSH2 0x140 SWAP2 SWAP1 PUSH2 0x1A0A JUMP JUMPDEST PUSH1 0x40 MLOAD DUP1 SWAP2 SUB SWAP1 RETURN JUMPDEST PUSH2 0x163 PUSH1 0x4 DUP1 CALLDATASIZE SUB DUP2 ADD SWAP1 PUSH2 0x15E SWAP2 SWAP1 PUSH2 0x1466 JUMP JUMPDEST PUSH2 0x771 JUMP JUMPDEST PUSH1 0x40 MLOAD PUSH2 0x170 SWAP2 SWAP1 PUSH2 0x1A0A JUMP JUMPDEST PUSH1 0x40 MLOAD DUP1 SWAP2 SUB SWAP1 RETURN JUMPDEST PUSH2 0x193 PUSH1 0x4 DUP1 CALLDATASIZE SUB DUP2 ADD SWAP1 PUSH2 0x18E SWAP2 SWAP1 PUSH2 0x1426 JUMP JUMPDEST PUSH2 0xA80 JUMP JUMPDEST PUSH1 0x40 MLOAD PUSH2 0x1A0 SWAP2 SWAP1 PUSH2 0x19EF JUMP JUMPDEST PUSH1 0x40 MLOAD DUP1 SWAP2 SUB SWAP1 RETURN JUMPDEST PUSH2 0x1C3 PUSH1 0x4 DUP1 CALLDATASIZE SUB DUP2 ADD SWAP1 PUSH2 0x1BE SWAP2 SWAP1 PUSH2 0x15AF JUMP JUMPDEST PUSH2 0xB44 JUMP JUMPDEST PUSH1 0x40 MLOAD PUSH2 0x1D0 SWAP2 SWAP1 PUSH2 0x1B3C JUMP JUMPDEST PUSH1 0x40 MLOAD DUP1 SWAP2 SUB SWAP1 RETURN JUMPDEST PUSH2 0x1F3 PUSH1 0x4 DUP1 CALLDATASIZE SUB DUP2 ADD SWAP1 PUSH2 0x1EE SWAP2 SWAP1 PUSH2 0x14E6 JUMP JUMPDEST PUSH2 0xB8D JUMP JUMPDEST PUSH1 0x40 MLOAD PUSH2 0x200 SWAP2 SWAP1 PUSH2 0x19EF JUMP JUMPDEST PUSH1 0x40 MLOAD DUP1 SWAP2 SUB SWAP1 RETURN JUMPDEST PUSH2 0x223 PUSH1 0x4 DUP1 CALLDATASIZE SUB DUP2 ADD SWAP1 PUSH2 0x21E SWAP2 SWAP1 PUSH2 0x1582 JUMP JUMPDEST PUSH2 0xCFE JUMP JUMPDEST PUSH1 0x40 MLOAD PUSH2 0x230 SWAP2 SWAP1 PUSH2 0x1A0A JUMP JUMPDEST PUSH1 0x40 MLOAD DUP1 SWAP2 SUB SWAP1 RETURN JUMPDEST PUSH2 0x253 PUSH1 0x4 DUP1 CALLDATASIZE SUB DUP2 ADD SWAP1 PUSH2 0x24E SWAP2 SWAP1 PUSH2 0x1554 JUMP JUMPDEST PUSH2 0xD97 JUMP JUMPDEST STOP JUMPDEST PUSH2 0x26F PUSH1 0x4 DUP1 CALLDATASIZE SUB DUP2 ADD SWAP1 PUSH2 0x26A SWAP2 SWAP1 PUSH2 0x1582 JUMP JUMPDEST PUSH2 0xE17 JUMP JUMPDEST PUSH1 0x40 MLOAD PUSH2 0x27C SWAP2 SWAP1 PUSH2 0x1B3C JUMP JUMPDEST PUSH1 0x40 MLOAD DUP1 SWAP2 SUB SWAP1 RETURN JUMPDEST PUSH2 0x29F PUSH1 0x4 DUP1 CALLDATASIZE SUB DUP2 ADD SWAP1 PUSH2 0x29A SWAP2 SWAP1 PUSH2 0x13E6 JUMP JUMPDEST PUSH2 0xE96 JUMP JUMPDEST PUSH1 0x40 MLOAD PUSH2 0x2AC SWAP2 SWAP1 PUSH2 0x19EF JUMP JUMPDEST PUSH1 0x40 MLOAD DUP1 SWAP2 SUB SWAP1 RETURN JUMPDEST PUSH2 0x2CF PUSH1 0x4 DUP1 CALLDATASIZE SUB DUP2 ADD SWAP1 PUSH2 0x2CA SWAP2 SWAP1 PUSH2 0x1526 JUMP JUMPDEST PUSH2 0xFA7 JUMP JUMPDEST STOP JUMPDEST PUSH2 0x2D9 PUSH2 0x1090 JUMP JUMPDEST PUSH2 0x2E1 PUSH2 0x1090 JUMP JUMPDEST PUSH2 0x32A PUSH1 0x0 DUP1 ADD PUSH1 0x2 DUP1 PUSH1 0x20 MUL PUSH1 0x40 MLOAD SWAP1 DUP2 ADD PUSH1 0x40 MSTORE DUP1 SWAP3 SWAP2 SWAP1 DUP3 PUSH1 0x2 DUP1 ISZERO PUSH2 0x31F JUMPI PUSH1 0x20 MUL DUP3 ADD SWAP2 JUMPDEST DUP2 SLOAD DUP2 MSTORE PUSH1 0x20 ADD SWAP1 PUSH1 0x1 ADD SWAP1 DUP1 DUP4 GT PUSH2 0x30B JUMPI JUMPDEST POP POP POP POP POP DUP5 PUSH2 0xA80 JUMP JUMPDEST DUP2 PUSH1 0x0 ADD DUP2 SWAP1 MSTORE POP PUSH2 0x37C PUSH1 0x0 PUSH1 0x2 ADD PUSH1 0x2 DUP1 PUSH1 0x20 MUL PUSH1 0x40 MLOAD SWAP1 DUP2 ADD PUSH1 0x40 MSTORE DUP1 SWAP3 SWAP2 SWAP1 DUP3 PUSH1 0x2 DUP1 ISZERO PUSH2 0x371 JUMPI PUSH1 0x20 MUL DUP3 ADD SWAP2 JUMPDEST DUP2 SLOAD DUP2 MSTORE PUSH1 0x20 ADD SWAP1 PUSH1 0x1 ADD SWAP1 DUP1 DUP4 GT PUSH2 0x35D JUMPI JUMPDEST POP POP POP POP POP DUP5 PUSH2 0xA80 JUMP JUMPDEST DUP2 PUSH1 0x20 ADD DUP2 SWAP1 MSTORE POP PUSH2 0x3D7 DUP5 PUSH2 0x3D2 PUSH1 0x0 PUSH1 0x8 ADD PUSH1 0x2 DUP1 PUSH1 0x20 MUL PUSH1 0x40 MLOAD SWAP1 DUP2 ADD PUSH1 0x40 MSTORE DUP1 SWAP3 SWAP2 SWAP1 DUP3 PUSH1 0x2 DUP1 ISZERO PUSH2 0x3C7 JUMPI PUSH1 0x20 MUL DUP3 ADD SWAP2 JUMPDEST DUP2 SLOAD DUP2 MSTORE PUSH1 0x20 ADD SWAP1 PUSH1 0x1 ADD SWAP1 DUP1 DUP4 GT PUSH2 0x3B3 JUMPI JUMPDEST POP POP POP POP POP DUP7 PUSH2 0xA80 JUMP JUMPDEST PUSH2 0xE96 JUMP JUMPDEST DUP2 PUSH1 0x40 ADD DUP2 SWAP1 MSTORE POP PUSH1 0x0 DUP2 PUSH1 0x0 ADD MLOAD PUSH1 0x0 PUSH1 0x2 DUP2 LT PUSH2 0x3F9 JUMPI PUSH2 0x3F8 PUSH2 0x1FB3 JUMP JUMPDEST JUMPDEST PUSH1 0x20 MUL ADD MLOAD DUP3 PUSH1 0x0 ADD MLOAD PUSH1 0x1 PUSH1 0x2 DUP2 LT PUSH2 0x416 JUMPI PUSH2 0x415 PUSH2 0x1FB3 JUMP JUMPDEST JUMPDEST PUSH1 0x20 MUL ADD MLOAD DUP4 PUSH1 0x20 ADD MLOAD PUSH1 0x0 PUSH1 0x2 DUP2 LT PUSH2 0x433 JUMPI PUSH2 0x432 PUSH2 0x1FB3 JUMP JUMPDEST JUMPDEST PUSH1 0x20 MUL ADD MLOAD DUP5 PUSH1 0x20 ADD MLOAD PUSH1 0x1 PUSH1 0x2 DUP2 LT PUSH2 0x450 JUMPI PUSH2 0x44F PUSH2 0x1FB3 JUMP JUMPDEST JUMPDEST PUSH1 0x20 MUL ADD MLOAD DUP6 PUSH1 0x40 ADD MLOAD PUSH1 0x0 PUSH1 0x2 DUP2 LT PUSH2 0x46D JUMPI PUSH2 0x46C PUSH2 0x1FB3 JUMP JUMPDEST JUMPDEST PUSH1 0x20 MUL ADD MLOAD DUP7 PUSH1 0x40 ADD MLOAD PUSH1 0x1 PUSH1 0x2 DUP2 LT PUSH2 0x48A JUMPI PUSH2 0x489 PUSH2 0x1FB3 JUMP JUMPDEST JUMPDEST PUSH1 0x20 MUL ADD MLOAD PUSH1 0x40 MLOAD PUSH1 0x20 ADD PUSH2 0x4A4 SWAP7 SWAP6 SWAP5 SWAP4 SWAP3 SWAP2 SWAP1 PUSH2 0x1968 JUMP JUMPDEST PUSH1 0x40 MLOAD PUSH1 0x20 DUP2 DUP4 SUB SUB DUP2 MSTORE SWAP1 PUSH1 0x40 MSTORE DUP1 MLOAD SWAP1 PUSH1 0x20 ADD KECCAK256 SWAP1 POP PUSH2 0x561 PUSH2 0x509 PUSH1 0x0 PUSH1 0x4 ADD PUSH1 0x2 DUP1 PUSH1 0x20 MUL PUSH1 0x40 MLOAD SWAP1 DUP2 ADD PUSH1 0x40 MSTORE DUP1 SWAP3 SWAP2 SWAP1 DUP3 PUSH1 0x2 DUP1 ISZERO PUSH2 0x4FE JUMPI PUSH1 0x20 MUL DUP3 ADD SWAP2 JUMPDEST DUP2 SLOAD DUP2 MSTORE PUSH1 0x20 ADD SWAP1 PUSH1 0x1 ADD SWAP1 DUP1 DUP4 GT PUSH2 0x4EA JUMPI JUMPDEST POP POP POP POP POP DUP7 PUSH2 0xA80 JUMP JUMPDEST PUSH2 0x55C PUSH2 0x556 PUSH1 0x0 PUSH1 0x6 ADD PUSH1 0x2 DUP1 PUSH1 0x20 MUL PUSH1 0x40 MLOAD SWAP1 DUP2 ADD PUSH1 0x40 MSTORE DUP1 SWAP3 SWAP2 SWAP1 DUP3 PUSH1 0x2 DUP1 ISZERO PUSH2 0x54B JUMPI PUSH1 0x20 MUL DUP3 ADD SWAP2 JUMPDEST DUP2 SLOAD DUP2 MSTORE PUSH1 0x20 ADD SWAP1 PUSH1 0x1 ADD SWAP1 DUP1 DUP4 GT PUSH2 0x537 JUMPI JUMPDEST POP POP POP POP POP DUP9 PUSH2 0xA80 JUMP JUMPDEST DUP5 PUSH2 0xA80 JUMP JUMPDEST PUSH2 0xE96 JUMP JUMPDEST DUP3 PUSH1 0x60 ADD DUP2 SWAP1 MSTORE POP DUP2 SWAP3 POP POP POP SWAP3 SWAP2 POP POP JUMP JUMPDEST PUSH1 0x0 DUP1 DUP4 PUSH1 0xFF AND EQ ISZERO PUSH2 0x5AF JUMPI DUP2 PUSH1 0x40 MLOAD PUSH1 0x20 ADD PUSH2 0x592 SWAP2 SWAP1 PUSH2 0x194D JUMP JUMPDEST PUSH1 0x40 MLOAD PUSH1 0x20 DUP2 DUP4 SUB SUB DUP2 MSTORE SWAP1 PUSH1 0x40 MSTORE DUP1 MLOAD SWAP1 PUSH1 0x20 ADD KECCAK256 SWAP1 POP PUSH2 0x621 JUMP JUMPDEST PUSH1 0x2 DUP3 PUSH1 0x40 MLOAD PUSH1 0x20 ADD PUSH2 0x5C2 SWAP2 SWAP1 PUSH2 0x194D JUMP JUMPDEST PUSH1 0x40 MLOAD PUSH1 0x20 DUP2 DUP4 SUB SUB DUP2 MSTORE SWAP1 PUSH1 0x40 MSTORE PUSH1 0x40 MLOAD PUSH2 0x5DE SWAP2 SWAP1 PUSH2 0x19D8 JUMP JUMPDEST PUSH1 0x20 PUSH1 0x40 MLOAD DUP1 DUP4 SUB DUP2 DUP6 GAS STATICCALL ISZERO DUP1 ISZERO PUSH2 0x5FB JUMPI RETURNDATASIZE PUSH1 0x0 DUP1 RETURNDATACOPY RETURNDATASIZE PUSH1 0x0 REVERT JUMPDEST POP POP POP PUSH1 0x40 MLOAD RETURNDATASIZE PUSH1 0x1F NOT PUSH1 0x1F DUP3 ADD AND DUP3 ADD DUP1 PUSH1 0x40 MSTORE POP DUP2 ADD SWAP1 PUSH2 0x61E SWAP2 SWAP1 PUSH2 0x14B9 JUMP JUMPDEST SWAP1 POP JUMPDEST SWAP3 SWAP2 POP POP JUMP JUMPDEST PUSH1 0x0 PUSH2 0x633 DUP6 DUP6 PUSH2 0x574 JUMP JUMPDEST PUSH1 0xA PUSH1 0x0 ADD SLOAD EQ PUSH2 0x679 JUMPI PUSH1 0x40 MLOAD PUSH32 0x8C379A000000000000000000000000000000000000000000000000000000000 DUP2 MSTORE PUSH1 0x4 ADD PUSH2 0x670 SWAP1 PUSH2 0x1AA0 JUMP JUMPDEST PUSH1 0x40 MLOAD DUP1 SWAP2 SUB SWAP1 REVERT JUMPDEST PUSH1 0x0 PUSH2 0x685 DUP6 DUP5 PUSH2 0xB8D JUMP JUMPDEST SWAP1 POP PUSH1 0x0 DUP7 PUSH1 0xFF AND EQ ISZERO PUSH2 0x6E2 JUMPI PUSH2 0x69E DUP2 DUP6 DUP9 PUSH2 0x771 JUMP JUMPDEST PUSH2 0x6DD JUMPI PUSH1 0x40 MLOAD PUSH32 0x8C379A000000000000000000000000000000000000000000000000000000000 DUP2 MSTORE PUSH1 0x4 ADD PUSH2 0x6D4 SWAP1 PUSH2 0x1B00 JUMP JUMPDEST PUSH1 0x40 MLOAD DUP1 SWAP2 SUB SWAP1 REVERT JUMPDEST PUSH2 0x72D JUMP JUMPDEST PUSH2 0x6ED DUP2 DUP6 DUP9 PUSH2 0x771 JUMP JUMPDEST PUSH2 0x72C JUMPI PUSH1 0x40 MLOAD PUSH32 0x8C379A000000000000000000000000000000000000000000000000000000000 DUP2 MSTORE PUSH1 0x4 ADD PUSH2 0x723 SWAP1 PUSH2 0x1A60 JUMP JUMPDEST PUSH1 0x40 MLOAD DUP1 SWAP2 SUB SWAP1 REVERT JUMPDEST JUMPDEST PUSH32 0x1AA6D33CAA56B94B21C25E563FF093A625F303E637E89A21303D14F0D9224FEC DUP7 PUSH1 0x40 MLOAD PUSH2 0x75C SWAP2 SWAP1 PUSH2 0x1B57 JUMP JUMPDEST PUSH1 0x40 MLOAD DUP1 SWAP2 SUB SWAP1 LOG1 PUSH1 0x1 SWAP2 POP POP SWAP5 SWAP4 POP POP POP POP JUMP JUMPDEST PUSH1 0x0 DUP1 PUSH1 0x0 DUP4 PUSH1 0xFF AND EQ PUSH2 0x789 JUMPI PUSH1 0xA PUSH1 0x9 ADD PUSH2 0x78F JUMP JUMPDEST PUSH1 0xA PUSH1 0x1 ADD JUMPDEST SWAP1 POP PUSH1 0x0 PUSH2 0x79D DUP7 DUP7 PUSH2 0x2D1 JUMP JUMPDEST SWAP1 POP DUP2 PUSH1 0x0 ADD PUSH1 0x0 PUSH1 0x2 DUP2 LT PUSH2 0x7B6 JUMPI PUSH2 0x7B5 PUSH2 0x1FB3 JUMP JUMPDEST JUMPDEST ADD SLOAD DUP2 PUSH1 0x0 ADD MLOAD PUSH1 0x0 PUSH1 0x2 DUP2 LT PUSH2 0x7D0 JUMPI PUSH2 0x7CF PUSH2 0x1FB3 JUMP JUMPDEST JUMPDEST PUSH1 0x20 MUL ADD MLOAD EQ DUP1 ISZERO PUSH2 0x815 JUMPI POP DUP2 PUSH1 0x0 ADD PUSH1 0x1 PUSH1 0x2 DUP2 LT PUSH2 0x7F4 JUMPI PUSH2 0x7F3 PUSH2 0x1FB3 JUMP JUMPDEST JUMPDEST ADD SLOAD DUP2 PUSH1 0x0 ADD MLOAD PUSH1 0x1 PUSH1 0x2 DUP2 LT PUSH2 0x80E JUMPI PUSH2 0x80D PUSH2 0x1FB3 JUMP JUMPDEST JUMPDEST PUSH1 0x20 MUL ADD MLOAD EQ JUMPDEST PUSH2 0x854 JUMPI PUSH1 0x40 MLOAD PUSH32 0x8C379A000000000000000000000000000000000000000000000000000000000 DUP2 MSTORE PUSH1 0x4 ADD PUSH2 0x84B SWAP1 PUSH2 0x1AC0 JUMP JUMPDEST PUSH1 0x40 MLOAD DUP1 SWAP2 SUB SWAP1 REVERT JUMPDEST DUP2 PUSH1 0x2 ADD PUSH1 0x0 PUSH1 0x2 DUP2 LT PUSH2 0x86B JUMPI PUSH2 0x86A PUSH2 0x1FB3 JUMP JUMPDEST JUMPDEST ADD SLOAD DUP2 PUSH1 0x20 ADD MLOAD PUSH1 0x0 PUSH1 0x2 DUP2 LT PUSH2 0x885 JUMPI PUSH2 0x884 PUSH2 0x1FB3 JUMP JUMPDEST JUMPDEST PUSH1 0x20 MUL ADD MLOAD EQ DUP1 ISZERO PUSH2 0x8CA JUMPI POP DUP2 PUSH1 0x2 ADD PUSH1 0x1 PUSH1 0x2 DUP2 LT PUSH2 0x8A9 JUMPI PUSH2 0x8A8 PUSH2 0x1FB3 JUMP JUMPDEST JUMPDEST ADD SLOAD DUP2 PUSH1 0x20 ADD MLOAD PUSH1 0x1 PUSH1 0x2 DUP2 LT PUSH2 0x8C3 JUMPI PUSH2 0x8C2 PUSH2 0x1FB3 JUMP JUMPDEST JUMPDEST PUSH1 0x20 MUL ADD MLOAD EQ JUMPDEST PUSH2 0x909 JUMPI PUSH1 0x40 MLOAD PUSH32 0x8C379A000000000000000000000000000000000000000000000000000000000 DUP2 MSTORE PUSH1 0x4 ADD PUSH2 0x900 SWAP1 PUSH2 0x1A40 JUMP JUMPDEST PUSH1 0x40 MLOAD DUP1 SWAP2 SUB SWAP1 REVERT JUMPDEST DUP2 PUSH1 0x4 ADD PUSH1 0x0 PUSH1 0x2 DUP2 LT PUSH2 0x920 JUMPI PUSH2 0x91F PUSH2 0x1FB3 JUMP JUMPDEST JUMPDEST ADD SLOAD DUP2 PUSH1 0x40 ADD MLOAD PUSH1 0x0 PUSH1 0x2 DUP2 LT PUSH2 0x93A JUMPI PUSH2 0x939 PUSH2 0x1FB3 JUMP JUMPDEST JUMPDEST PUSH1 0x20 MUL ADD MLOAD EQ DUP1 ISZERO PUSH2 0x97F JUMPI POP DUP2 PUSH1 0x4 ADD PUSH1 0x1 PUSH1 0x2 DUP2 LT PUSH2 0x95E JUMPI PUSH2 0x95D PUSH2 0x1FB3 JUMP JUMPDEST JUMPDEST ADD SLOAD DUP2 PUSH1 0x40 ADD MLOAD PUSH1 0x1 PUSH1 0x2 DUP2 LT PUSH2 0x978 JUMPI PUSH2 0x977 PUSH2 0x1FB3 JUMP JUMPDEST JUMPDEST PUSH1 0x20 MUL ADD MLOAD EQ JUMPDEST PUSH2 0x9BE JUMPI PUSH1 0x40 MLOAD PUSH32 0x8C379A000000000000000000000000000000000000000000000000000000000 DUP2 MSTORE PUSH1 0x4 ADD PUSH2 0x9B5 SWAP1 PUSH2 0x1A80 JUMP JUMPDEST PUSH1 0x40 MLOAD DUP1 SWAP2 SUB SWAP1 REVERT JUMPDEST DUP2 PUSH1 0x6 ADD PUSH1 0x0 PUSH1 0x2 DUP2 LT PUSH2 0x9D5 JUMPI PUSH2 0x9D4 PUSH2 0x1FB3 JUMP JUMPDEST JUMPDEST ADD SLOAD DUP2 PUSH1 0x60 ADD MLOAD PUSH1 0x0 PUSH1 0x2 DUP2 LT PUSH2 0x9EF JUMPI PUSH2 0x9EE PUSH2 0x1FB3 JUMP JUMPDEST JUMPDEST PUSH1 0x20 MUL ADD MLOAD EQ DUP1 ISZERO PUSH2 0xA34 JUMPI POP DUP2 PUSH1 0x6 ADD PUSH1 0x1 PUSH1 0x2 DUP2 LT PUSH2 0xA13 JUMPI PUSH2 0xA12 PUSH2 0x1FB3 JUMP JUMPDEST JUMPDEST ADD SLOAD DUP2 PUSH1 0x60 ADD MLOAD PUSH1 0x1 PUSH1 0x2 DUP2 LT PUSH2 0xA2D JUMPI PUSH2 0xA2C PUSH2 0x1FB3 JUMP JUMPDEST JUMPDEST PUSH1 0x20 MUL ADD MLOAD EQ JUMPDEST PUSH2 0xA73 JUMPI PUSH1 0x40 MLOAD PUSH32 0x8C379A000000000000000000000000000000000000000000000000000000000 DUP2 MSTORE PUSH1 0x4 ADD PUSH2 0xA6A SWAP1 PUSH2 0x1AE0 JUMP JUMPDEST PUSH1 0x40 MLOAD DUP1 SWAP2 SUB SWAP1 REVERT JUMPDEST PUSH1 0x1 SWAP3 POP POP POP SWAP4 SWAP3 POP POP POP JUMP JUMPDEST PUSH2 0xA88 PUSH2 0x10D0 JUMP JUMPDEST PUSH2 0xA90 PUSH2 0x10F2 JUMP JUMPDEST DUP4 PUSH1 0x0 PUSH1 0x2 DUP2 LT PUSH2 0xAA4 JUMPI PUSH2 0xAA3 PUSH2 0x1FB3 JUMP JUMPDEST JUMPDEST PUSH1 0x20 MUL ADD MLOAD DUP2 PUSH1 0x0 PUSH1 0x3 DUP2 LT PUSH2 0xABD JUMPI PUSH2 0xABC PUSH2 0x1FB3 JUMP JUMPDEST JUMPDEST PUSH1 0x20 MUL ADD DUP2 DUP2 MSTORE POP POP DUP4 PUSH1 0x1 PUSH1 0x2 DUP2 LT PUSH2 0xADA JUMPI PUSH2 0xAD9 PUSH2 0x1FB3 JUMP JUMPDEST JUMPDEST PUSH1 0x20 MUL ADD MLOAD DUP2 PUSH1 0x1 PUSH1 0x3 DUP2 LT PUSH2 0xAF3 JUMPI PUSH2 0xAF2 PUSH2 0x1FB3 JUMP JUMPDEST JUMPDEST PUSH1 0x20 MUL ADD DUP2 DUP2 MSTORE POP POP DUP3 DUP2 PUSH1 0x2 PUSH1 0x3 DUP2 LT PUSH2 0xB11 JUMPI PUSH2 0xB10 PUSH2 0x1FB3 JUMP JUMPDEST JUMPDEST PUSH1 0x20 MUL ADD DUP2 DUP2 MSTORE POP POP PUSH1 0x40 DUP3 PUSH1 0x60 DUP4 PUSH1 0x0 PUSH1 0x7 PUSH2 0x1770 CALL DUP1 PUSH1 0x0 DUP2 EQ PUSH2 0xB36 JUMPI PUSH2 0xB3B JUMP JUMPDEST PUSH1 0x0 DUP1 REVERT JUMPDEST POP POP POP SWAP3 SWAP2 POP POP JUMP JUMPDEST PUSH1 0x0 PUSH1 0x40 MLOAD PUSH1 0x20 DUP2 MSTORE PUSH1 0x20 DUP1 DUP3 ADD MSTORE PUSH1 0x20 PUSH1 0x40 DUP3 ADD MSTORE DUP5 PUSH1 0x60 DUP3 ADD MSTORE DUP4 PUSH1 0x80 DUP3 ADD MSTORE DUP3 PUSH1 0xA0 DUP3 ADD MSTORE PUSH1 0x20 DUP2 PUSH1 0xC0 DUP4 PUSH1 0x5 PUSH1 0x0 NOT STATICCALL PUSH2 0xB81 JUMPI PUSH1 0x0 DUP1 REVERT JUMPDEST DUP1 MLOAD SWAP2 POP POP SWAP4 SWAP3 POP POP POP JUMP JUMPDEST PUSH2 0xB95 PUSH2 0x10D0 JUMP JUMPDEST PUSH1 0x0 DUP3 PUSH1 0x20 PUSH2 0xBA4 SWAP2 SWAP1 PUSH2 0x1E3D JUMP JUMPDEST PUSH1 0x8 PUSH2 0xBB0 SWAP2 SWAP1 PUSH2 0x1DE3 JUMP JUMPDEST PUSH1 0x2 PUSH2 0xBBC SWAP2 SWAP1 PUSH2 0x1CC5 JUMP JUMPDEST SWAP1 POP PUSH1 0x0 DUP5 PUSH1 0x0 SHR SWAP1 POP PUSH1 0x0 JUMPDEST DUP5 PUSH1 0x2 PUSH2 0xBD6 SWAP2 SWAP1 PUSH2 0x1CC5 JUMP JUMPDEST DUP2 LT ISZERO PUSH2 0xCD7 JUMPI PUSH1 0x0 DUP4 DUP3 PUSH2 0xBEB SWAP2 SWAP1 PUSH2 0x1DE3 JUMP JUMPDEST DUP4 PUSH2 0xBF6 SWAP2 SWAP1 PUSH2 0x1C1C JUMP JUMPDEST SWAP1 POP PUSH1 0x0 PUSH2 0xC60 PUSH32 0x30644E72E131A029B85045B68181585D97816A916871CA8D3C208C16D87CFD47 DUP1 PUSH2 0xC2C JUMPI PUSH2 0xC2B PUSH2 0x1F84 JUMP JUMPDEST JUMPDEST PUSH1 0x3 PUSH2 0xC5A DUP6 PUSH1 0x3 PUSH32 0x30644E72E131A029B85045B68181585D97816A916871CA8D3C208C16D87CFD47 PUSH2 0xB44 JUMP JUMPDEST ADDMOD PUSH2 0xE17 JUMP JUMPDEST SWAP1 POP PUSH1 0x0 DUP2 EQ PUSH2 0xCC2 JUMPI PUSH2 0xC72 PUSH2 0x10D0 JUMP JUMPDEST DUP3 PUSH1 0x0 SHL DUP2 PUSH1 0x0 PUSH1 0x2 DUP2 LT PUSH2 0xC8A JUMPI PUSH2 0xC89 PUSH2 0x1FB3 JUMP JUMPDEST JUMPDEST PUSH1 0x20 MUL ADD DUP2 DUP2 MSTORE POP POP DUP2 PUSH1 0x0 SHL DUP2 PUSH1 0x1 PUSH1 0x2 DUP2 LT PUSH2 0xCAB JUMPI PUSH2 0xCAA PUSH2 0x1FB3 JUMP JUMPDEST JUMPDEST PUSH1 0x20 MUL ADD DUP2 DUP2 MSTORE POP POP DUP1 SWAP7 POP POP POP POP POP POP POP PUSH2 0xCF8 JUMP JUMPDEST POP POP DUP1 DUP1 PUSH2 0xCCF SWAP1 PUSH2 0x1F02 JUMP JUMPDEST SWAP2 POP POP PUSH2 0xBC9 JUMP JUMPDEST POP PUSH1 0x40 MLOAD DUP1 PUSH1 0x40 ADD PUSH1 0x40 MSTORE DUP1 PUSH1 0x0 DUP1 SHL DUP2 MSTORE PUSH1 0x20 ADD PUSH1 0x0 DUP1 SHL DUP2 MSTORE POP SWAP3 POP POP POP JUMPDEST SWAP3 SWAP2 POP POP JUMP JUMPDEST PUSH1 0x0 DUP1 PUSH2 0xD4C DUP4 PUSH32 0x183227397098D014DC2822DB40C0AC2ECBC0B548B438E5469E10460B6C3E7EA3 PUSH32 0x30644E72E131A029B85045B68181585D97816A916871CA8D3C208C16D87CFD47 PUSH2 0xB44 JUMP JUMPDEST SWAP1 POP PUSH1 0x1 PUSH32 0x30644E72E131A029B85045B68181585D97816A916871CA8D3C208C16D87CFD47 PUSH2 0xD7B SWAP2 SWAP1 PUSH2 0x1E3D JUMP JUMPDEST DUP2 EQ ISZERO PUSH2 0xD8C JUMPI PUSH1 0x0 SWAP2 POP POP PUSH2 0xD92 JUMP JUMPDEST PUSH1 0x1 SWAP2 POP POP JUMPDEST SWAP2 SWAP1 POP JUMP JUMPDEST DUP1 PUSH1 0x0 DUP1 DUP3 ADD MLOAD DUP2 PUSH1 0x0 ADD SWAP1 PUSH1 0x2 PUSH2 0xDB0 SWAP3 SWAP2 SWAP1 PUSH2 0x1114 JUMP JUMPDEST POP PUSH1 0x20 DUP3 ADD MLOAD DUP2 PUSH1 0x2 ADD SWAP1 PUSH1 0x2 PUSH2 0xDC8 SWAP3 SWAP2 SWAP1 PUSH2 0x1114 JUMP JUMPDEST POP PUSH1 0x40 DUP3 ADD MLOAD DUP2 PUSH1 0x4 ADD SWAP1 PUSH1 0x2 PUSH2 0xDE0 SWAP3 SWAP2 SWAP1 PUSH2 0x1114 JUMP JUMPDEST POP PUSH1 0x60 DUP3 ADD MLOAD DUP2 PUSH1 0x6 ADD SWAP1 PUSH1 0x2 PUSH2 0xDF8 SWAP3 SWAP2 SWAP1 PUSH2 0x1114 JUMP JUMPDEST POP PUSH1 0x80 DUP3 ADD MLOAD DUP2 PUSH1 0x8 ADD SWAP1 PUSH1 0x2 PUSH2 0xE10 SWAP3 SWAP2 SWAP1 PUSH2 0x1114 JUMP JUMPDEST POP SWAP1 POP POP POP JUMP JUMPDEST PUSH1 0x0 PUSH2 0xE22 DUP3 PUSH2 0xCFE JUMP JUMPDEST DUP1 ISZERO PUSH2 0xE2F JUMPI POP PUSH1 0x0 DUP3 EQ ISZERO JUMPDEST ISZERO PUSH2 0xE8C JUMPI PUSH1 0x0 PUSH2 0xE81 DUP4 PUSH32 0xC19139CB84C680A6E14116DA060561765E05AA45A1C72A34F082305B61F3F52 PUSH32 0x30644E72E131A029B85045B68181585D97816A916871CA8D3C208C16D87CFD47 PUSH2 0xB44 JUMP JUMPDEST SWAP1 POP DUP1 SWAP2 POP POP PUSH2 0xE91 JUMP JUMPDEST PUSH1 0x0 SWAP1 POP JUMPDEST SWAP2 SWAP1 POP JUMP JUMPDEST PUSH2 0xE9E PUSH2 0x10D0 JUMP JUMPDEST PUSH2 0xEA6 PUSH2 0x1154 JUMP JUMPDEST DUP4 PUSH1 0x0 PUSH1 0x2 DUP2 LT PUSH2 0xEBA JUMPI PUSH2 0xEB9 PUSH2 0x1FB3 JUMP JUMPDEST JUMPDEST PUSH1 0x20 MUL ADD MLOAD DUP2 PUSH1 0x0 PUSH1 0x4 DUP2 LT PUSH2 0xED3 JUMPI PUSH2 0xED2 PUSH2 0x1FB3 JUMP JUMPDEST JUMPDEST PUSH1 0x20 MUL ADD DUP2 DUP2 MSTORE POP POP DUP4 PUSH1 0x1 PUSH1 0x2 DUP2 LT PUSH2 0xEF0 JUMPI PUSH2 0xEEF PUSH2 0x1FB3 JUMP JUMPDEST JUMPDEST PUSH1 0x20 MUL ADD MLOAD DUP2 PUSH1 0x1 PUSH1 0x4 DUP2 LT PUSH2 0xF09 JUMPI PUSH2 0xF08 PUSH2 0x1FB3 JUMP JUMPDEST JUMPDEST PUSH1 0x20 MUL ADD DUP2 DUP2 MSTORE POP POP DUP3 PUSH1 0x0 PUSH1 0x2 DUP2 LT PUSH2 0xF26 JUMPI PUSH2 0xF25 PUSH2 0x1FB3 JUMP JUMPDEST JUMPDEST PUSH1 0x20 MUL ADD MLOAD DUP2 PUSH1 0x2 PUSH1 0x4 DUP2 LT PUSH2 0xF3F JUMPI PUSH2 0xF3E PUSH2 0x1FB3 JUMP JUMPDEST JUMPDEST PUSH1 0x20 MUL ADD DUP2 DUP2 MSTORE POP POP DUP3 PUSH1 0x1 PUSH1 0x2 DUP2 LT PUSH2 0xF5C JUMPI PUSH2 0xF5B PUSH2 0x1FB3 JUMP JUMPDEST JUMPDEST PUSH1 0x20 MUL ADD MLOAD DUP2 PUSH1 0x3 PUSH1 0x4 DUP2 LT PUSH2 0xF75 JUMPI PUSH2 0xF74 PUSH2 0x1FB3 JUMP JUMPDEST JUMPDEST PUSH1 0x20 MUL ADD DUP2 DUP2 MSTORE POP POP PUSH1 0x40 DUP3 PUSH1 0x80 DUP4 PUSH1 0x0 PUSH1 0x6 PUSH1 0x96 CALL DUP1 PUSH1 0x0 DUP2 EQ PUSH2 0xF99 JUMPI PUSH2 0xF9E JUMP JUMPDEST PUSH1 0x0 DUP1 REVERT JUMPDEST POP POP POP SWAP3 SWAP2 POP POP JUMP JUMPDEST DUP1 PUSH1 0xA PUSH1 0x0 DUP3 ADD MLOAD DUP2 PUSH1 0x0 ADD SSTORE PUSH1 0x20 DUP3 ADD MLOAD DUP2 PUSH1 0x1 ADD PUSH1 0x0 DUP3 ADD MLOAD DUP2 PUSH1 0x0 ADD SWAP1 PUSH1 0x2 PUSH2 0xFD4 SWAP3 SWAP2 SWAP1 PUSH2 0x1114 JUMP JUMPDEST POP PUSH1 0x20 DUP3 ADD MLOAD DUP2 PUSH1 0x2 ADD SWAP1 PUSH1 0x2 PUSH2 0xFEC SWAP3 SWAP2 SWAP1 PUSH2 0x1114 JUMP JUMPDEST POP PUSH1 0x40 DUP3 ADD MLOAD DUP2 PUSH1 0x4 ADD SWAP1 PUSH1 0x2 PUSH2 0x1004 SWAP3 SWAP2 SWAP1 PUSH2 0x1114 JUMP JUMPDEST POP PUSH1 0x60 DUP3 ADD MLOAD DUP2 PUSH1 0x6 ADD SWAP1 PUSH1 0x2 PUSH2 0x101C SWAP3 SWAP2 SWAP1 PUSH2 0x1114 JUMP JUMPDEST POP POP POP PUSH1 0x40 DUP3 ADD MLOAD DUP2 PUSH1 0x9 ADD PUSH1 0x0 DUP3 ADD MLOAD DUP2 PUSH1 0x0 ADD SWAP1 PUSH1 0x2 PUSH2 0x103F SWAP3 SWAP2 SWAP1 PUSH2 0x1114 JUMP JUMPDEST POP PUSH1 0x20 DUP3 ADD MLOAD DUP2 PUSH1 0x2 ADD SWAP1 PUSH1 0x2 PUSH2 0x1057 SWAP3 SWAP2 SWAP1 PUSH2 0x1114 JUMP JUMPDEST POP PUSH1 0x40 DUP3 ADD MLOAD DUP2 PUSH1 0x4 ADD SWAP1 PUSH1 0x2 PUSH2 0x106F SWAP3 SWAP2 SWAP1 PUSH2 0x1114 JUMP JUMPDEST POP PUSH1 0x60 DUP3 ADD MLOAD DUP2 PUSH1 0x6 ADD SWAP1 PUSH1 0x2 PUSH2 0x1087 SWAP3 SWAP2 SWAP1 PUSH2 0x1114 JUMP JUMPDEST POP POP POP SWAP1 POP POP POP JUMP JUMPDEST PUSH1 0x40 MLOAD DUP1 PUSH1 0x80 ADD PUSH1 0x40 MSTORE DUP1 PUSH2 0x10A3 PUSH2 0x10D0 JUMP JUMPDEST DUP2 MSTORE PUSH1 0x20 ADD PUSH2 0x10B0 PUSH2 0x10D0 JUMP JUMPDEST DUP2 MSTORE PUSH1 0x20 ADD PUSH2 0x10BD PUSH2 0x10D0 JUMP JUMPDEST DUP2 MSTORE PUSH1 0x20 ADD PUSH2 0x10CA PUSH2 0x10D0 JUMP JUMPDEST DUP2 MSTORE POP SWAP1 JUMP JUMPDEST PUSH1 0x40 MLOAD DUP1 PUSH1 0x40 ADD PUSH1 0x40 MSTORE DUP1 PUSH1 0x2 SWAP1 PUSH1 0x20 DUP3 MUL DUP1 CALLDATASIZE DUP4 CALLDATACOPY DUP1 DUP3 ADD SWAP2 POP POP SWAP1 POP POP SWAP1 JUMP JUMPDEST PUSH1 0x40 MLOAD DUP1 PUSH1 0x60 ADD PUSH1 0x40 MSTORE DUP1 PUSH1 0x3 SWAP1 PUSH1 0x20 DUP3 MUL DUP1 CALLDATASIZE DUP4 CALLDATACOPY DUP1 DUP3 ADD SWAP2 POP POP SWAP1 POP POP SWAP1 JUMP JUMPDEST DUP3 PUSH1 0x2 DUP2 ADD SWAP3 DUP3 ISZERO PUSH2 0x1143 JUMPI SWAP2 PUSH1 0x20 MUL DUP3 ADD JUMPDEST DUP3 DUP2 GT ISZERO PUSH2 0x1142 JUMPI DUP3 MLOAD DUP3 SSTORE SWAP2 PUSH1 0x20 ADD SWAP2 SWAP1 PUSH1 0x1 ADD SWAP1 PUSH2 0x1127 JUMP JUMPDEST JUMPDEST POP SWAP1 POP PUSH2 0x1150 SWAP2 SWAP1 PUSH2 0x1176 JUMP JUMPDEST POP SWAP1 JUMP JUMPDEST PUSH1 0x40 MLOAD DUP1 PUSH1 0x80 ADD PUSH1 0x40 MSTORE DUP1 PUSH1 0x4 SWAP1 PUSH1 0x20 DUP3 MUL DUP1 CALLDATASIZE DUP4 CALLDATACOPY DUP1 DUP3 ADD SWAP2 POP POP SWAP1 POP POP SWAP1 JUMP JUMPDEST JUMPDEST DUP1 DUP3 GT ISZERO PUSH2 0x118F JUMPI PUSH1 0x0 DUP2 PUSH1 0x0 SWAP1 SSTORE POP PUSH1 0x1 ADD PUSH2 0x1177 JUMP JUMPDEST POP SWAP1 JUMP JUMPDEST PUSH1 0x0 PUSH2 0x11A6 PUSH2 0x11A1 DUP5 PUSH2 0x1B97 JUMP JUMPDEST PUSH2 0x1B72 JUMP JUMPDEST SWAP1 POP DUP1 DUP3 DUP6 PUSH1 0x20 DUP7 MUL DUP3 ADD GT ISZERO PUSH2 0x11C0 JUMPI PUSH2 0x11BF PUSH2 0x201B JUMP JUMPDEST JUMPDEST PUSH1 0x0 JUMPDEST DUP6 DUP2 LT ISZERO PUSH2 0x11F0 JUMPI DUP2 PUSH2 0x11D6 DUP9 DUP3 PUSH2 0x1225 JUMP JUMPDEST DUP5 MSTORE PUSH1 0x20 DUP5 ADD SWAP4 POP PUSH1 0x20 DUP4 ADD SWAP3 POP POP PUSH1 0x1 DUP2 ADD SWAP1 POP PUSH2 0x11C3 JUMP JUMPDEST POP POP POP SWAP4 SWAP3 POP POP POP JUMP JUMPDEST PUSH1 0x0 DUP3 PUSH1 0x1F DUP4 ADD SLT PUSH2 0x120F JUMPI PUSH2 0x120E PUSH2 0x2011 JUMP JUMPDEST JUMPDEST PUSH1 0x2 PUSH2 0x121C DUP5 DUP3 DUP6 PUSH2 0x1193 JUMP JUMPDEST SWAP2 POP POP SWAP3 SWAP2 POP POP JUMP JUMPDEST PUSH1 0x0 DUP2 CALLDATALOAD SWAP1 POP PUSH2 0x1234 DUP2 PUSH2 0x2162 JUMP JUMPDEST SWAP3 SWAP2 POP POP JUMP JUMPDEST PUSH1 0x0 DUP2 MLOAD SWAP1 POP PUSH2 0x1249 DUP2 PUSH2 0x2162 JUMP JUMPDEST SWAP3 SWAP2 POP POP JUMP JUMPDEST PUSH1 0x0 PUSH2 0x100 DUP3 DUP5 SUB SLT ISZERO PUSH2 0x1266 JUMPI PUSH2 0x1265 PUSH2 0x2016 JUMP JUMPDEST JUMPDEST PUSH2 0x1270 PUSH1 0x80 PUSH2 0x1B72 JUMP JUMPDEST SWAP1 POP PUSH1 0x0 PUSH2 0x1280 DUP5 DUP3 DUP6 ADD PUSH2 0x11FA JUMP JUMPDEST PUSH1 0x0 DUP4 ADD MSTORE POP PUSH1 0x40 PUSH2 0x1294 DUP5 DUP3 DUP6 ADD PUSH2 0x11FA JUMP JUMPDEST PUSH1 0x20 DUP4 ADD MSTORE POP PUSH1 0x80 PUSH2 0x12A8 DUP5 DUP3 DUP6 ADD PUSH2 0x11FA JUMP JUMPDEST PUSH1 0x40 DUP4 ADD MSTORE POP PUSH1 0xC0 PUSH2 0x12BC DUP5 DUP3 DUP6 ADD PUSH2 0x11FA JUMP JUMPDEST PUSH1 0x60 DUP4 ADD MSTORE POP SWAP3 SWAP2 POP POP JUMP JUMPDEST PUSH1 0x0 PUSH2 0x220 DUP3 DUP5 SUB SLT ISZERO PUSH2 0x12DF JUMPI PUSH2 0x12DE PUSH2 0x2016 JUMP JUMPDEST JUMPDEST PUSH2 0x12E9 PUSH1 0x60 PUSH2 0x1B72 JUMP JUMPDEST SWAP1 POP PUSH1 0x0 PUSH2 0x12F9 DUP5 DUP3 DUP6 ADD PUSH2 0x1225 JUMP JUMPDEST PUSH1 0x0 DUP4 ADD MSTORE POP PUSH1 0x20 PUSH2 0x130D DUP5 DUP3 DUP6 ADD PUSH2 0x124F JUMP JUMPDEST PUSH1 0x20 DUP4 ADD MSTORE POP PUSH2 0x120 PUSH2 0x1322 DUP5 DUP3 DUP6 ADD PUSH2 0x124F JUMP JUMPDEST PUSH1 0x40 DUP4 ADD MSTORE POP SWAP3 SWAP2 POP POP JUMP JUMPDEST PUSH1 0x0 PUSH2 0x140 DUP3 DUP5 SUB SLT ISZERO PUSH2 0x1345 JUMPI PUSH2 0x1344 PUSH2 0x2016 JUMP JUMPDEST JUMPDEST PUSH2 0x134F PUSH1 0xA0 PUSH2 0x1B72 JUMP JUMPDEST SWAP1 POP PUSH1 0x0 PUSH2 0x135F DUP5 DUP3 DUP6 ADD PUSH2 0x11FA JUMP JUMPDEST PUSH1 0x0 DUP4 ADD MSTORE POP PUSH1 0x40 PUSH2 0x1373 DUP5 DUP3 DUP6 ADD PUSH2 0x11FA JUMP JUMPDEST PUSH1 0x20 DUP4 ADD MSTORE POP PUSH1 0x80 PUSH2 0x1387 DUP5 DUP3 DUP6 ADD PUSH2 0x11FA JUMP JUMPDEST PUSH1 0x40 DUP4 ADD MSTORE POP PUSH1 0xC0 PUSH2 0x139B DUP5 DUP3 DUP6 ADD PUSH2 0x11FA JUMP JUMPDEST PUSH1 0x60 DUP4 ADD MSTORE POP PUSH2 0x100 PUSH2 0x13B0 DUP5 DUP3 DUP6 ADD PUSH2 0x11FA JUMP JUMPDEST PUSH1 0x80 DUP4 ADD MSTORE POP SWAP3 SWAP2 POP POP JUMP JUMPDEST PUSH1 0x0 DUP2 CALLDATALOAD SWAP1 POP PUSH2 0x13CB DUP2 PUSH2 0x2179 JUMP JUMPDEST SWAP3 SWAP2 POP POP JUMP JUMPDEST PUSH1 0x0 DUP2 CALLDATALOAD SWAP1 POP PUSH2 0x13E0 DUP2 PUSH2 0x2190 JUMP JUMPDEST SWAP3 SWAP2 POP POP JUMP JUMPDEST PUSH1 0x0 DUP1 PUSH1 0x80 DUP4 DUP6 SUB SLT ISZERO PUSH2 0x13FD JUMPI PUSH2 0x13FC PUSH2 0x2020 JUMP JUMPDEST JUMPDEST PUSH1 0x0 PUSH2 0x140B DUP6 DUP3 DUP7 ADD PUSH2 0x11FA JUMP JUMPDEST SWAP3 POP POP PUSH1 0x40 PUSH2 0x141C DUP6 DUP3 DUP7 ADD PUSH2 0x11FA JUMP JUMPDEST SWAP2 POP POP SWAP3 POP SWAP3 SWAP1 POP JUMP JUMPDEST PUSH1 0x0 DUP1 PUSH1 0x60 DUP4 DUP6 SUB SLT ISZERO PUSH2 0x143D JUMPI PUSH2 0x143C PUSH2 0x2020 JUMP JUMPDEST JUMPDEST PUSH1 0x0 PUSH2 0x144B DUP6 DUP3 DUP7 ADD PUSH2 0x11FA JUMP JUMPDEST SWAP3 POP POP PUSH1 0x40 PUSH2 0x145C DUP6 DUP3 DUP7 ADD PUSH2 0x1225 JUMP JUMPDEST SWAP2 POP POP SWAP3 POP SWAP3 SWAP1 POP JUMP JUMPDEST PUSH1 0x0 DUP1 PUSH1 0x0 PUSH1 0x80 DUP5 DUP7 SUB SLT ISZERO PUSH2 0x147F JUMPI PUSH2 0x147E PUSH2 0x2020 JUMP JUMPDEST JUMPDEST PUSH1 0x0 PUSH2 0x148D DUP7 DUP3 DUP8 ADD PUSH2 0x11FA JUMP JUMPDEST SWAP4 POP POP PUSH1 0x40 PUSH2 0x149E DUP7 DUP3 DUP8 ADD PUSH2 0x1225 JUMP JUMPDEST SWAP3 POP POP PUSH1 0x60 PUSH2 0x14AF DUP7 DUP3 DUP8 ADD PUSH2 0x13D1 JUMP JUMPDEST SWAP2 POP POP SWAP3 POP SWAP3 POP SWAP3 JUMP JUMPDEST PUSH1 0x0 PUSH1 0x20 DUP3 DUP5 SUB SLT ISZERO PUSH2 0x14CF JUMPI PUSH2 0x14CE PUSH2 0x2020 JUMP JUMPDEST JUMPDEST PUSH1 0x0 PUSH2 0x14DD DUP5 DUP3 DUP6 ADD PUSH2 0x123A JUMP JUMPDEST SWAP2 POP POP SWAP3 SWAP2 POP POP JUMP JUMPDEST PUSH1 0x0 DUP1 PUSH1 0x40 DUP4 DUP6 SUB SLT ISZERO PUSH2 0x14FD JUMPI PUSH2 0x14FC PUSH2 0x2020 JUMP JUMPDEST JUMPDEST PUSH1 0x0 PUSH2 0x150B DUP6 DUP3 DUP7 ADD PUSH2 0x1225 JUMP JUMPDEST SWAP3 POP POP PUSH1 0x20 PUSH2 0x151C DUP6 DUP3 DUP7 ADD PUSH2 0x13BC JUMP JUMPDEST SWAP2 POP POP SWAP3 POP SWAP3 SWAP1 POP JUMP JUMPDEST PUSH1 0x0 PUSH2 0x220 DUP3 DUP5 SUB SLT ISZERO PUSH2 0x153D JUMPI PUSH2 0x153C PUSH2 0x2020 JUMP JUMPDEST JUMPDEST PUSH1 0x0 PUSH2 0x154B DUP5 DUP3 DUP6 ADD PUSH2 0x12C8 JUMP JUMPDEST SWAP2 POP POP SWAP3 SWAP2 POP POP JUMP JUMPDEST PUSH1 0x0 PUSH2 0x140 DUP3 DUP5 SUB SLT ISZERO PUSH2 0x156B JUMPI PUSH2 0x156A PUSH2 0x2020 JUMP JUMPDEST JUMPDEST PUSH1 0x0 PUSH2 0x1579 DUP5 DUP3 DUP6 ADD PUSH2 0x132E JUMP JUMPDEST SWAP2 POP POP SWAP3 SWAP2 POP POP JUMP JUMPDEST PUSH1 0x0 PUSH1 0x20 DUP3 DUP5 SUB SLT ISZERO PUSH2 0x1598 JUMPI PUSH2 0x1597 PUSH2 0x2020 JUMP JUMPDEST JUMPDEST PUSH1 0x0 PUSH2 0x15A6 DUP5 DUP3 DUP6 ADD PUSH2 0x13BC JUMP JUMPDEST SWAP2 POP POP SWAP3 SWAP2 POP POP JUMP JUMPDEST PUSH1 0x0 DUP1 PUSH1 0x0 PUSH1 0x60 DUP5 DUP7 SUB SLT ISZERO PUSH2 0x15C8 JUMPI PUSH2 0x15C7 PUSH2 0x2020 JUMP JUMPDEST JUMPDEST PUSH1 0x0 PUSH2 0x15D6 DUP7 DUP3 DUP8 ADD PUSH2 0x13BC JUMP JUMPDEST SWAP4 POP POP PUSH1 0x20 PUSH2 0x15E7 DUP7 DUP3 DUP8 ADD PUSH2 0x13BC JUMP JUMPDEST SWAP3 POP POP PUSH1 0x40 PUSH2 0x15F8 DUP7 DUP3 DUP8 ADD PUSH2 0x13BC JUMP JUMPDEST SWAP2 POP POP SWAP3 POP SWAP3 POP SWAP3 JUMP JUMPDEST PUSH1 0x0 DUP1 PUSH1 0x40 DUP4 DUP6 SUB SLT ISZERO PUSH2 0x1619 JUMPI PUSH2 0x1618 PUSH2 0x2020 JUMP JUMPDEST JUMPDEST PUSH1 0x0 PUSH2 0x1627 DUP6 DUP3 DUP7 ADD PUSH2 0x13D1 JUMP JUMPDEST SWAP3 POP POP PUSH1 0x20 PUSH2 0x1638 DUP6 DUP3 DUP7 ADD PUSH2 0x1225 JUMP JUMPDEST SWAP2 POP POP SWAP3 POP SWAP3 SWAP1 POP JUMP JUMPDEST PUSH1 0x0 DUP1 PUSH1 0x0 DUP1 PUSH1 0x80 DUP6 DUP8 SUB SLT ISZERO PUSH2 0x165C JUMPI PUSH2 0x165B PUSH2 0x2020 JUMP JUMPDEST JUMPDEST PUSH1 0x0 PUSH2 0x166A DUP8 DUP3 DUP9 ADD PUSH2 0x13D1 JUMP JUMPDEST SWAP5 POP POP PUSH1 0x20 PUSH2 0x167B DUP8 DUP3 DUP9 ADD PUSH2 0x1225 JUMP JUMPDEST SWAP4 POP POP PUSH1 0x40 PUSH2 0x168C DUP8 DUP3 DUP9 ADD PUSH2 0x1225 JUMP JUMPDEST SWAP3 POP POP PUSH1 0x60 PUSH2 0x169D DUP8 DUP3 DUP9 ADD PUSH2 0x13BC JUMP JUMPDEST SWAP2 POP POP SWAP3 SWAP6 SWAP2 SWAP5 POP SWAP3 POP JUMP JUMPDEST PUSH1 0x0 PUSH2 0x16B5 DUP4 DUP4 PUSH2 0x177E JUMP JUMPDEST PUSH1 0x20 DUP4 ADD SWAP1 POP SWAP3 SWAP2 POP POP JUMP JUMPDEST PUSH2 0x16CA DUP2 PUSH2 0x1BC7 JUMP JUMPDEST PUSH2 0x16D4 DUP2 DUP5 PUSH2 0x1BEA JUMP JUMPDEST SWAP3 POP PUSH2 0x16DF DUP3 PUSH2 0x1BBD JUMP JUMPDEST DUP1 PUSH1 0x0 JUMPDEST DUP4 DUP2 LT ISZERO PUSH2 0x1710 JUMPI DUP2 MLOAD PUSH2 0x16F7 DUP8 DUP3 PUSH2 0x16A9 JUMP JUMPDEST SWAP7 POP PUSH2 0x1702 DUP4 PUSH2 0x1BDD JUMP JUMPDEST SWAP3 POP POP PUSH1 0x1 DUP2 ADD SWAP1 POP PUSH2 0x16E3 JUMP JUMPDEST POP POP POP POP POP POP JUMP JUMPDEST PUSH2 0x1721 DUP2 PUSH2 0x1BC7 JUMP JUMPDEST PUSH2 0x172B DUP2 DUP5 PUSH2 0x1BF5 JUMP JUMPDEST SWAP3 POP PUSH2 0x1736 DUP3 PUSH2 0x1BBD JUMP JUMPDEST DUP1 PUSH1 0x0 JUMPDEST DUP4 DUP2 LT ISZERO PUSH2 0x1767 JUMPI DUP2 MLOAD PUSH2 0x174E DUP8 DUP3 PUSH2 0x16A9 JUMP JUMPDEST SWAP7 POP PUSH2 0x1759 DUP4 PUSH2 0x1BDD JUMP JUMPDEST SWAP3 POP POP PUSH1 0x1 DUP2 ADD SWAP1 POP PUSH2 0x173A JUMP JUMPDEST POP POP POP POP POP POP JUMP JUMPDEST PUSH2 0x1778 DUP2 PUSH2 0x1E71 JUMP JUMPDEST DUP3 MSTORE POP POP JUMP JUMPDEST PUSH2 0x1787 DUP2 PUSH2 0x1E7D JUMP JUMPDEST DUP3 MSTORE POP POP JUMP JUMPDEST PUSH2 0x1796 DUP2 PUSH2 0x1E7D JUMP JUMPDEST DUP3 MSTORE POP POP JUMP JUMPDEST PUSH2 0x17AD PUSH2 0x17A8 DUP3 PUSH2 0x1E7D JUMP JUMPDEST PUSH2 0x1F4B JUMP JUMPDEST DUP3 MSTORE POP POP JUMP JUMPDEST PUSH1 0x0 PUSH2 0x17BE DUP3 PUSH2 0x1BD2 JUMP JUMPDEST PUSH2 0x17C8 DUP2 DUP6 PUSH2 0x1C00 JUMP JUMPDEST SWAP4 POP PUSH2 0x17D8 DUP2 DUP6 PUSH1 0x20 DUP7 ADD PUSH2 0x1E9E JUMP JUMPDEST DUP1 DUP5 ADD SWAP2 POP POP SWAP3 SWAP2 POP POP JUMP JUMPDEST PUSH1 0x0 PUSH2 0x17F1 PUSH1 0xE DUP4 PUSH2 0x1C0B JUMP JUMPDEST SWAP2 POP PUSH2 0x17FC DUP3 PUSH2 0x2043 JUMP JUMPDEST PUSH1 0x20 DUP3 ADD SWAP1 POP SWAP2 SWAP1 POP JUMP JUMPDEST PUSH1 0x0 PUSH2 0x1814 PUSH1 0xF DUP4 PUSH2 0x1C0B JUMP JUMPDEST SWAP2 POP PUSH2 0x181F DUP3 PUSH2 0x206C JUMP JUMPDEST PUSH1 0x20 DUP3 ADD SWAP1 POP SWAP2 SWAP1 POP JUMP JUMPDEST PUSH1 0x0 PUSH2 0x1837 PUSH1 0xD DUP4 PUSH2 0x1C0B JUMP JUMPDEST SWAP2 POP PUSH2 0x1842 DUP3 PUSH2 0x2095 JUMP JUMPDEST PUSH1 0x20 DUP3 ADD SWAP1 POP SWAP2 SWAP1 POP JUMP JUMPDEST PUSH1 0x0 PUSH2 0x185A PUSH1 0xD DUP4 PUSH2 0x1C0B JUMP JUMPDEST SWAP2 POP PUSH2 0x1865 DUP3 PUSH2 0x20BE JUMP JUMPDEST PUSH1 0x20 DUP3 ADD SWAP1 POP SWAP2 SWAP1 POP JUMP JUMPDEST PUSH1 0x0 PUSH2 0x187D PUSH1 0xE DUP4 PUSH2 0x1C0B JUMP JUMPDEST SWAP2 POP PUSH2 0x1888 DUP3 PUSH2 0x20E7 JUMP JUMPDEST PUSH1 0x20 DUP3 ADD SWAP1 POP SWAP2 SWAP1 POP JUMP JUMPDEST PUSH1 0x0 PUSH2 0x18A0 PUSH1 0xD DUP4 PUSH2 0x1C0B JUMP JUMPDEST SWAP2 POP PUSH2 0x18AB DUP3 PUSH2 0x2110 JUMP JUMPDEST PUSH1 0x20 DUP3 ADD SWAP1 POP SWAP2 SWAP1 POP JUMP JUMPDEST PUSH1 0x0 PUSH2 0x18C3 PUSH1 0xF DUP4 PUSH2 0x1C0B JUMP JUMPDEST SWAP2 POP PUSH2 0x18CE DUP3 PUSH2 0x2139 JUMP JUMPDEST PUSH1 0x20 DUP3 ADD SWAP1 POP SWAP2 SWAP1 POP JUMP JUMPDEST PUSH2 0x100 DUP3 ADD PUSH1 0x0 DUP3 ADD MLOAD PUSH2 0x18F0 PUSH1 0x0 DUP6 ADD DUP3 PUSH2 0x16C1 JUMP JUMPDEST POP PUSH1 0x20 DUP3 ADD MLOAD PUSH2 0x1903 PUSH1 0x40 DUP6 ADD DUP3 PUSH2 0x16C1 JUMP JUMPDEST POP PUSH1 0x40 DUP3 ADD MLOAD PUSH2 0x1916 PUSH1 0x80 DUP6 ADD DUP3 PUSH2 0x16C1 JUMP JUMPDEST POP PUSH1 0x60 DUP3 ADD MLOAD PUSH2 0x1929 PUSH1 0xC0 DUP6 ADD DUP3 PUSH2 0x16C1 JUMP JUMPDEST POP POP POP POP JUMP JUMPDEST PUSH2 0x1938 DUP2 PUSH2 0x1E87 JUMP JUMPDEST DUP3 MSTORE POP POP JUMP JUMPDEST PUSH2 0x1947 DUP2 PUSH2 0x1E91 JUMP JUMPDEST DUP3 MSTORE POP POP JUMP JUMPDEST PUSH1 0x0 PUSH2 0x1959 DUP3 DUP5 PUSH2 0x179C JUMP JUMPDEST PUSH1 0x20 DUP3 ADD SWAP2 POP DUP2 SWAP1 POP SWAP3 SWAP2 POP POP JUMP JUMPDEST PUSH1 0x0 PUSH2 0x1974 DUP3 DUP10 PUSH2 0x179C JUMP JUMPDEST PUSH1 0x20 DUP3 ADD SWAP2 POP PUSH2 0x1984 DUP3 DUP9 PUSH2 0x179C JUMP JUMPDEST PUSH1 0x20 DUP3 ADD SWAP2 POP PUSH2 0x1994 DUP3 DUP8 PUSH2 0x179C JUMP JUMPDEST PUSH1 0x20 DUP3 ADD SWAP2 POP PUSH2 0x19A4 DUP3 DUP7 PUSH2 0x179C JUMP JUMPDEST PUSH1 0x20 DUP3 ADD SWAP2 POP PUSH2 0x19B4 DUP3 DUP6 PUSH2 0x179C JUMP JUMPDEST PUSH1 0x20 DUP3 ADD SWAP2 POP PUSH2 0x19C4 DUP3 DUP5 PUSH2 0x179C JUMP JUMPDEST PUSH1 0x20 DUP3 ADD SWAP2 POP DUP2 SWAP1 POP SWAP8 SWAP7 POP POP POP POP POP POP POP JUMP JUMPDEST PUSH1 0x0 PUSH2 0x19E4 DUP3 DUP5 PUSH2 0x17B3 JUMP JUMPDEST SWAP2 POP DUP2 SWAP1 POP SWAP3 SWAP2 POP POP JUMP JUMPDEST PUSH1 0x0 PUSH1 0x40 DUP3 ADD SWAP1 POP PUSH2 0x1A04 PUSH1 0x0 DUP4 ADD DUP5 PUSH2 0x1718 JUMP JUMPDEST SWAP3 SWAP2 POP POP JUMP JUMPDEST PUSH1 0x0 PUSH1 0x20 DUP3 ADD SWAP1 POP PUSH2 0x1A1F PUSH1 0x0 DUP4 ADD DUP5 PUSH2 0x176F JUMP JUMPDEST SWAP3 SWAP2 POP POP JUMP JUMPDEST PUSH1 0x0 PUSH1 0x20 DUP3 ADD SWAP1 POP PUSH2 0x1A3A PUSH1 0x0 DUP4 ADD DUP5 PUSH2 0x178D JUMP JUMPDEST SWAP3 SWAP2 POP POP JUMP JUMPDEST PUSH1 0x0 PUSH1 0x20 DUP3 ADD SWAP1 POP DUP2 DUP2 SUB PUSH1 0x0 DUP4 ADD MSTORE PUSH2 0x1A59 DUP2 PUSH2 0x17E4 JUMP JUMPDEST SWAP1 POP SWAP2 SWAP1 POP JUMP JUMPDEST PUSH1 0x0 PUSH1 0x20 DUP3 ADD SWAP1 POP DUP2 DUP2 SUB PUSH1 0x0 DUP4 ADD MSTORE PUSH2 0x1A79 DUP2 PUSH2 0x1807 JUMP JUMPDEST SWAP1 POP SWAP2 SWAP1 POP JUMP JUMPDEST PUSH1 0x0 PUSH1 0x20 DUP3 ADD SWAP1 POP DUP2 DUP2 SUB PUSH1 0x0 DUP4 ADD MSTORE PUSH2 0x1A99 DUP2 PUSH2 0x182A JUMP JUMPDEST SWAP1 POP SWAP2 SWAP1 POP JUMP JUMPDEST PUSH1 0x0 PUSH1 0x20 DUP3 ADD SWAP1 POP DUP2 DUP2 SUB PUSH1 0x0 DUP4 ADD MSTORE PUSH2 0x1AB9 DUP2 PUSH2 0x184D JUMP JUMPDEST SWAP1 POP SWAP2 SWAP1 POP JUMP JUMPDEST PUSH1 0x0 PUSH1 0x20 DUP3 ADD SWAP1 POP DUP2 DUP2 SUB PUSH1 0x0 DUP4 ADD MSTORE PUSH2 0x1AD9 DUP2 PUSH2 0x1870 JUMP JUMPDEST SWAP1 POP SWAP2 SWAP1 POP JUMP JUMPDEST PUSH1 0x0 PUSH1 0x20 DUP3 ADD SWAP1 POP DUP2 DUP2 SUB PUSH1 0x0 DUP4 ADD MSTORE PUSH2 0x1AF9 DUP2 PUSH2 0x1893 JUMP JUMPDEST SWAP1 POP SWAP2 SWAP1 POP JUMP JUMPDEST PUSH1 0x0 PUSH1 0x20 DUP3 ADD SWAP1 POP DUP2 DUP2 SUB PUSH1 0x0 DUP4 ADD MSTORE PUSH2 0x1B19 DUP2 PUSH2 0x18B6 JUMP JUMPDEST SWAP1 POP SWAP2 SWAP1 POP JUMP JUMPDEST PUSH1 0x0 PUSH2 0x100 DUP3 ADD SWAP1 POP PUSH2 0x1B36 PUSH1 0x0 DUP4 ADD DUP5 PUSH2 0x18D9 JUMP JUMPDEST SWAP3 SWAP2 POP POP JUMP JUMPDEST PUSH1 0x0 PUSH1 0x20 DUP3 ADD SWAP1 POP PUSH2 0x1B51 PUSH1 0x0 DUP4 ADD DUP5 PUSH2 0x192F JUMP JUMPDEST SWAP3 SWAP2 POP POP JUMP JUMPDEST PUSH1 0x0 PUSH1 0x20 DUP3 ADD SWAP1 POP PUSH2 0x1B6C PUSH1 0x0 DUP4 ADD DUP5 PUSH2 0x193E JUMP JUMPDEST SWAP3 SWAP2 POP POP JUMP JUMPDEST PUSH1 0x0 PUSH2 0x1B7C PUSH2 0x1B8D JUMP JUMPDEST SWAP1 POP PUSH2 0x1B88 DUP3 DUP3 PUSH2 0x1ED1 JUMP JUMPDEST SWAP2 SWAP1 POP JUMP JUMPDEST PUSH1 0x0 PUSH1 0x40 MLOAD SWAP1 POP SWAP1 JUMP JUMPDEST PUSH1 0x0 PUSH8 0xFFFFFFFFFFFFFFFF DUP3 GT ISZERO PUSH2 0x1BB2 JUMPI PUSH2 0x1BB1 PUSH2 0x1FE2 JUMP JUMPDEST JUMPDEST PUSH1 0x20 DUP3 MUL SWAP1 POP SWAP2 SWAP1 POP JUMP JUMPDEST PUSH1 0x0 DUP2 SWAP1 POP SWAP2 SWAP1 POP JUMP JUMPDEST PUSH1 0x0 PUSH1 0x2 SWAP1 POP SWAP2 SWAP1 POP JUMP JUMPDEST PUSH1 0x0 DUP2 MLOAD SWAP1 POP SWAP2 SWAP1 POP JUMP JUMPDEST PUSH1 0x0 PUSH1 0x20 DUP3 ADD SWAP1 POP SWAP2 SWAP1 POP JUMP JUMPDEST PUSH1 0x0 DUP2 SWAP1 POP SWAP3 SWAP2 POP POP JUMP JUMPDEST PUSH1 0x0 DUP2 SWAP1 POP SWAP3 SWAP2 POP POP JUMP JUMPDEST PUSH1 0x0 DUP2 SWAP1 POP SWAP3 SWAP2 POP POP JUMP JUMPDEST PUSH1 0x0 DUP3 DUP3 MSTORE PUSH1 0x20 DUP3 ADD SWAP1 POP SWAP3 SWAP2 POP POP JUMP JUMPDEST PUSH1 0x0 PUSH2 0x1C27 DUP3 PUSH2 0x1E87 JUMP JUMPDEST SWAP2 POP PUSH2 0x1C32 DUP4 PUSH2 0x1E87 JUMP JUMPDEST SWAP3 POP DUP3 PUSH32 0xFFFFFFFFFFFFFFFFFFFFFFFFFFFFFFFFFFFFFFFFFFFFFFFFFFFFFFFFFFFFFFFF SUB DUP3 GT ISZERO PUSH2 0x1C67 JUMPI PUSH2 0x1C66 PUSH2 0x1F55 JUMP JUMPDEST JUMPDEST DUP3 DUP3 ADD SWAP1 POP SWAP3 SWAP2 POP POP JUMP JUMPDEST PUSH1 0x0 DUP1 DUP3 SWAP2 POP DUP4 SWAP1 POP JUMPDEST PUSH1 0x1 DUP6 GT ISZERO PUSH2 0x1CBC JUMPI DUP1 DUP7 DIV DUP2 GT ISZERO PUSH2 0x1C98 JUMPI PUSH2 0x1C97 PUSH2 0x1F55 JUMP JUMPDEST JUMPDEST PUSH1 0x1 DUP6 AND ISZERO PUSH2 0x1CA7 JUMPI DUP1 DUP3 MUL SWAP2 POP JUMPDEST DUP1 DUP2 MUL SWAP1 POP PUSH2 0x1CB5 DUP6 PUSH2 0x2036 JUMP JUMPDEST SWAP5 POP PUSH2 0x1C7C JUMP JUMPDEST SWAP5 POP SWAP5 SWAP3 POP POP POP JUMP JUMPDEST PUSH1 0x0 PUSH2 0x1CD0 DUP3 PUSH2 0x1E87 JUMP JUMPDEST SWAP2 POP PUSH2 0x1CDB DUP4 PUSH2 0x1E87 JUMP JUMPDEST SWAP3 POP PUSH2 0x1D08 PUSH32 0xFFFFFFFFFFFFFFFFFFFFFFFFFFFFFFFFFFFFFFFFFFFFFFFFFFFFFFFFFFFFFFFF DUP5 DUP5 PUSH2 0x1D10 JUMP JUMPDEST SWAP1 POP SWAP3 SWAP2 POP POP JUMP JUMPDEST PUSH1 0x0 DUP3 PUSH2 0x1D20 JUMPI PUSH1 0x1 SWAP1 POP PUSH2 0x1DDC JUMP JUMPDEST DUP2 PUSH2 0x1D2E JUMPI PUSH1 0x0 SWAP1 POP PUSH2 0x1DDC JUMP JUMPDEST DUP2 PUSH1 0x1 DUP2 EQ PUSH2 0x1D44 JUMPI PUSH1 0x2 DUP2 EQ PUSH2 0x1D4E JUMPI PUSH2 0x1D7D JUMP JUMPDEST PUSH1 0x1 SWAP2 POP POP PUSH2 0x1DDC JUMP JUMPDEST PUSH1 0xFF DUP5 GT ISZERO PUSH2 0x1D60 JUMPI PUSH2 0x1D5F PUSH2 0x1F55 JUMP JUMPDEST JUMPDEST DUP4 PUSH1 0x2 EXP SWAP2 POP DUP5 DUP3 GT ISZERO PUSH2 0x1D77 JUMPI PUSH2 0x1D76 PUSH2 0x1F55 JUMP JUMPDEST JUMPDEST POP PUSH2 0x1DDC JUMP JUMPDEST POP PUSH1 0x20 DUP4 LT PUSH2 0x133 DUP4 LT AND PUSH1 0x4E DUP5 LT PUSH1 0xB DUP5 LT AND OR ISZERO PUSH2 0x1DB2 JUMPI DUP3 DUP3 EXP SWAP1 POP DUP4 DUP2 GT ISZERO PUSH2 0x1DAD JUMPI PUSH2 0x1DAC PUSH2 0x1F55 JUMP JUMPDEST JUMPDEST PUSH2 0x1DDC JUMP JUMPDEST PUSH2 0x1DBF DUP5 DUP5 DUP5 PUSH1 0x1 PUSH2 0x1C72 JUMP JUMPDEST SWAP3 POP SWAP1 POP DUP2 DUP5 DIV DUP2 GT ISZERO PUSH2 0x1DD6 JUMPI PUSH2 0x1DD5 PUSH2 0x1F55 JUMP JUMPDEST JUMPDEST DUP2 DUP2 MUL SWAP1 POP JUMPDEST SWAP4 SWAP3 POP POP POP JUMP JUMPDEST PUSH1 0x0 PUSH2 0x1DEE DUP3 PUSH2 0x1E87 JUMP JUMPDEST SWAP2 POP PUSH2 0x1DF9 DUP4 PUSH2 0x1E87 JUMP JUMPDEST SWAP3 POP DUP2 PUSH32 0xFFFFFFFFFFFFFFFFFFFFFFFFFFFFFFFFFFFFFFFFFFFFFFFFFFFFFFFFFFFFFFFF DIV DUP4 GT DUP3 ISZERO ISZERO AND ISZERO PUSH2 0x1E32 JUMPI PUSH2 0x1E31 PUSH2 0x1F55 JUMP JUMPDEST JUMPDEST DUP3 DUP3 MUL SWAP1 POP SWAP3 SWAP2 POP POP JUMP JUMPDEST PUSH1 0x0 PUSH2 0x1E48 DUP3 PUSH2 0x1E87 JUMP JUMPDEST SWAP2 POP PUSH2 0x1E53 DUP4 PUSH2 0x1E87 JUMP JUMPDEST SWAP3 POP DUP3 DUP3 LT ISZERO PUSH2 0x1E66 JUMPI PUSH2 0x1E65 PUSH2 0x1F55 JUMP JUMPDEST JUMPDEST DUP3 DUP3 SUB SWAP1 POP SWAP3 SWAP2 POP POP JUMP JUMPDEST PUSH1 0x0 DUP2 ISZERO ISZERO SWAP1 POP SWAP2 SWAP1 POP JUMP JUMPDEST PUSH1 0x0 DUP2 SWAP1 POP SWAP2 SWAP1 POP JUMP JUMPDEST PUSH1 0x0 DUP2 SWAP1 POP SWAP2 SWAP1 POP JUMP JUMPDEST PUSH1 0x0 PUSH1 0xFF DUP3 AND SWAP1 POP SWAP2 SWAP1 POP JUMP JUMPDEST PUSH1 0x0 JUMPDEST DUP4 DUP2 LT ISZERO PUSH2 0x1EBC JUMPI DUP1 DUP3 ADD MLOAD DUP2 DUP5 ADD MSTORE PUSH1 0x20 DUP2 ADD SWAP1 POP PUSH2 0x1EA1 JUMP JUMPDEST DUP4 DUP2 GT ISZERO PUSH2 0x1ECB JUMPI PUSH1 0x0 DUP5 DUP5 ADD MSTORE JUMPDEST POP POP POP POP JUMP JUMPDEST PUSH2 0x1EDA DUP3 PUSH2 0x2025 JUMP JUMPDEST DUP2 ADD DUP2 DUP2 LT PUSH8 0xFFFFFFFFFFFFFFFF DUP3 GT OR ISZERO PUSH2 0x1EF9 JUMPI PUSH2 0x1EF8 PUSH2 0x1FE2 JUMP JUMPDEST JUMPDEST DUP1 PUSH1 0x40 MSTORE POP POP POP JUMP JUMPDEST PUSH1 0x0 PUSH2 0x1F0D DUP3 PUSH2 0x1E87 JUMP JUMPDEST SWAP2 POP PUSH32 0xFFFFFFFFFFFFFFFFFFFFFFFFFFFFFFFFFFFFFFFFFFFFFFFFFFFFFFFFFFFFFFFF DUP3 EQ ISZERO PUSH2 0x1F40 JUMPI PUSH2 0x1F3F PUSH2 0x1F55 JUMP JUMPDEST JUMPDEST PUSH1 0x1 DUP3 ADD SWAP1 POP SWAP2 SWAP1 POP JUMP JUMPDEST PUSH1 0x0 DUP2 SWAP1 POP SWAP2 SWAP1 POP JUMP JUMPDEST PUSH32 0x4E487B7100000000000000000000000000000000000000000000000000000000 PUSH1 0x0 MSTORE PUSH1 0x11 PUSH1 0x4 MSTORE PUSH1 0x24 PUSH1 0x0 REVERT JUMPDEST PUSH32 0x4E487B7100000000000000000000000000000000000000000000000000000000 PUSH1 0x0 MSTORE PUSH1 0x12 PUSH1 0x4 MSTORE PUSH1 0x24 PUSH1 0x0 REVERT JUMPDEST PUSH32 0x4E487B7100000000000000000000000000000000000000000000000000000000 PUSH1 0x0 MSTORE PUSH1 0x32 PUSH1 0x4 MSTORE PUSH1 0x24 PUSH1 0x0 REVERT JUMPDEST PUSH32 0x4E487B7100000000000000000000000000000000000000000000000000000000 PUSH1 0x0 MSTORE PUSH1 0x41 PUSH1 0x4 MSTORE PUSH1 0x24 PUSH1 0x0 REVERT JUMPDEST PUSH1 0x0 DUP1 REVERT JUMPDEST PUSH1 0x0 DUP1 REVERT JUMPDEST PUSH1 0x0 DUP1 REVERT JUMPDEST PUSH1 0x0 DUP1 REVERT JUMPDEST PUSH1 0x0 PUSH1 0x1F NOT PUSH1 0x1F DUP4 ADD AND SWAP1 POP SWAP2 SWAP1 POP JUMP JUMPDEST PUSH1 0x0 DUP2 PUSH1 0x1 SHR SWAP1 POP SWAP2 SWAP1 POP JUMP JUMPDEST PUSH32 0x7532206E6F74206D617463686564000000000000000000000000000000000000 PUSH1 0x0 DUP3 ADD MSTORE POP JUMP JUMPDEST PUSH32 0x637431206E6F74206D6174636865640000000000000000000000000000000000 PUSH1 0x0 DUP3 ADD MSTORE POP JUMP JUMPDEST PUSH32 0x65206E6F74206D61746368656400000000000000000000000000000000000000 PUSH1 0x0 DUP3 ADD MSTORE POP JUMP JUMPDEST PUSH32 0x79206E6F74206D61746368656400000000000000000000000000000000000000 PUSH1 0x0 DUP3 ADD MSTORE POP JUMP JUMPDEST PUSH32 0x7531206E6F74206D617463686564000000000000000000000000000000000000 PUSH1 0x0 DUP3 ADD MSTORE POP JUMP JUMPDEST PUSH32 0x76206E6F74206D61746368656400000000000000000000000000000000000000 PUSH1 0x0 DUP3 ADD MSTORE POP JUMP JUMPDEST PUSH32 0x637430206E6F74206D6174636865640000000000000000000000000000000000 PUSH1 0x0 DUP3 ADD MSTORE POP JUMP JUMPDEST PUSH2 0x216B DUP2 PUSH2 0x1E7D JUMP JUMPDEST DUP2 EQ PUSH2 0x2176 JUMPI PUSH1 0x0 DUP1 REVERT JUMPDEST POP JUMP JUMPDEST PUSH2 0x2182 DUP2 PUSH2 0x1E87 JUMP JUMPDEST DUP2 EQ PUSH2 0x218D JUMPI PUSH1 0x0 DUP1 REVERT JUMPDEST POP JUMP JUMPDEST PUSH2 0x2199 DUP2 PUSH2 0x1E91 JUMP JUMPDEST DUP2 EQ PUSH2 0x21A4 JUMPI PUSH1 0x0 DUP1 REVERT JUMPDEST POP JUMP INVALID LOG2 PUSH5 0x6970667358 0x22 SLT KECCAK256 0xCD 0xE1 0xEE 0xBE 0x2A 0x1F 0xB8 JUMPDEST SDIV MUL BALANCE RETURN 0xAB 0x1F INVALID 0xE4 BASEFEE 0xAD 0xC5 0x27 MLOAD LOG2 RETURNDATACOPY RETURNDATACOPY SWAP5 SWAP11 0xF SLOAD 0xB8 CALLDATASIZE PUSH1 0xAE PUSH5 0x736F6C6343 STOP ADDMOD SMOD STOP CALLER "
				},
				"gasEstimates": {
					"creation": {
						"codeDepositCost": "1733800",
						"executionCost": "1820",
						"totalCost": "1735620"
					},
					"external": {
						"commit((bytes32,(bytes32[2],bytes32[2],bytes32[2],bytes32[2]),(bytes32[2],bytes32[2],bytes32[2],bytes32[2])))": "infinite",
						"ecAdd(bytes32[2],bytes32[2])": "infinite",
						"ecMul(bytes32[2],bytes32)": "infinite",
						"encode_x(bytes32,uint256)": "infinite",
						"encrypt(bytes32[2],bytes32)": "infinite",
						"encryptAndCompare(bytes32[2],bytes32,uint8)": "infinite",
						"expmod(uint256,uint256,uint256)": "infinite",
						"f(uint8,bytes32)": "infinite",
						"legendre_p(uint256)": "infinite",
						"reveal(uint8,bytes32,bytes32,uint256)": "infinite",
						"setPublicKey((bytes32[2],bytes32[2],bytes32[2],bytes32[2],bytes32[2]))": "infinite",
						"sqrt_p(uint256)": "infinite"
					}
				},
				"methodIdentifiers": {
					"commit((bytes32,(bytes32[2],bytes32[2],bytes32[2],bytes32[2]),(bytes32[2],bytes32[2],bytes32[2],bytes32[2])))": "daf4b08c",
					"ecAdd(bytes32[2],bytes32[2])": "b83f457a",
					"ecMul(bytes32[2],bytes32)": "5714a505",
					"encode_x(bytes32,uint256)": "7befbde8",
					"encrypt(bytes32[2],bytes32)": "082084b1",
					"encryptAndCompare(bytes32[2],bytes32,uint8)": "53495d3d",
					"expmod(uint256,uint256,uint256)": "783ce458",
					"f(uint8,bytes32)": "0868a3f2",
					"legendre_p(uint256)": "7c75074a",
					"reveal(uint8,bytes32,bytes32,uint256)": "15e54a66",
					"setPublicKey((bytes32[2],bytes32[2],bytes32[2],bytes32[2],bytes32[2]))": "8b7b8cf2",
					"sqrt_p(uint256)": "9b0421dd"
				}
			},
			"storageLayout": {
				"storage": [
					{
						"astId": 51,
						"contract": "cramer_shoup.sol:CramerShoup",
						"label": "pk",
						"offset": 0,
						"slot": "0",
						"type": "t_struct(PublicKey)22_storage"
					},
					{
						"astId": 54,
						"contract": "cramer_shoup.sol:CramerShoup",
						"label": "com",
						"offset": 0,
						"slot": "10",
						"type": "t_struct(Commitment)48_storage"
					}
				],
				"types": {
					"t_array(t_bytes32)2_storage": {
						"base": "t_bytes32",
						"encoding": "inplace",
						"label": "bytes32[2]",
						"numberOfBytes": "64"
					},
					"t_bytes32": {
						"encoding": "inplace",
						"label": "bytes32",
						"numberOfBytes": "32"
					},
					"t_struct(ChiperText)39_storage": {
						"encoding": "inplace",
						"label": "struct ChiperText",
						"members": [
							{
								"astId": 26,
								"contract": "cramer_shoup.sol:CramerShoup",
								"label": "u1",
								"offset": 0,
								"slot": "0",
								"type": "t_array(t_bytes32)2_storage"
							},
							{
								"astId": 30,
								"contract": "cramer_shoup.sol:CramerShoup",
								"label": "u2",
								"offset": 0,
								"slot": "2",
								"type": "t_array(t_bytes32)2_storage"
							},
							{
								"astId": 34,
								"contract": "cramer_shoup.sol:CramerShoup",
								"label": "e",
								"offset": 0,
								"slot": "4",
								"type": "t_array(t_bytes32)2_storage"
							},
							{
								"astId": 38,
								"contract": "cramer_shoup.sol:CramerShoup",
								"label": "v",
								"offset": 0,
								"slot": "6",
								"type": "t_array(t_bytes32)2_storage"
							}
						],
						"numberOfBytes": "256"
					},
					"t_struct(Commitment)48_storage": {
						"encoding": "inplace",
						"label": "struct Commitment",
						"members": [
							{
								"astId": 41,
								"contract": "cramer_shoup.sol:CramerShoup",
								"label": "y",
								"offset": 0,
								"slot": "0",
								"type": "t_bytes32"
							},
							{
								"astId": 44,
								"contract": "cramer_shoup.sol:CramerShoup",
								"label": "ct0",
								"offset": 0,
								"slot": "1",
								"type": "t_struct(ChiperText)39_storage"
							},
							{
								"astId": 47,
								"contract": "cramer_shoup.sol:CramerShoup",
								"label": "ct1",
								"offset": 0,
								"slot": "9",
								"type": "t_struct(ChiperText)39_storage"
							}
						],
						"numberOfBytes": "544"
					},
					"t_struct(PublicKey)22_storage": {
						"encoding": "inplace",
						"label": "struct PublicKey",
						"members": [
							{
								"astId": 5,
								"contract": "cramer_shoup.sol:CramerShoup",
								"label": "g1",
								"offset": 0,
								"slot": "0",
								"type": "t_array(t_bytes32)2_storage"
							},
							{
								"astId": 9,
								"contract": "cramer_shoup.sol:CramerShoup",
								"label": "g2",
								"offset": 0,
								"slot": "2",
								"type": "t_array(t_bytes32)2_storage"
							},
							{
								"astId": 13,
								"contract": "cramer_shoup.sol:CramerShoup",
								"label": "c",
								"offset": 0,
								"slot": "4",
								"type": "t_array(t_bytes32)2_storage"
							},
							{
								"astId": 17,
								"contract": "cramer_shoup.sol:CramerShoup",
								"label": "d",
								"offset": 0,
								"slot": "6",
								"type": "t_array(t_bytes32)2_storage"
							},
							{
								"astId": 21,
								"contract": "cramer_shoup.sol:CramerShoup",
								"label": "h",
								"offset": 0,
								"slot": "8",
								"type": "t_array(t_bytes32)2_storage"
							}
						],
						"numberOfBytes": "320"
					}
				}
			},
			"userdoc": {
				"kind": "user",
				"methods": {},
				"version": 1
			}
		}
	}
}